:04000000F9EF00F024
:060008004B82FCEF11F039
:100018004B80D8CFCFF0E8CFD0F0E0CFD1F0FACFF7
:10002800D2F0FBCFD3F0E9CFD4F0EACFD5F0E1CFCF
:10003800D6F0E2CFD7F0D9CFD8F0DACFD9F0F3CFD6
:10004800DAF0F4CFDBF0F6CFDCF0F7CFDDF0F8CF65
:10005800DEF0F5CFDFF04BC0E0F04CC0E1F04DC072
:10006800E2F04EC0E3F0F0B6F0A005D00001824BFC
:10007800832B8AEC19F0F2BAF2A48BD000017E4BE4
:100088007F2B7C4B7D2B7F5104E1150E7E5DD8A024
:1000980022D0000E7F6F000E7E6F82C0BBF083C03F
:1000A800BCF0000EBE6F3C0EBD6FC6EC17F0BBC0B7
:1000B800C1F0BCC0C2F0000E0001C46F070EC36FD0
:1000C80028EC15F0C1C080F0C2C081F0000E00011C
:1000D800836F000E826FF50E7C5D010E7D59D8A0EE
:1000E8002ED0000E7D6F000E7C6F000EC46F3C0E8C
:1000F800C36F80C0C1F081C0C2F028EC15F0C1C048
:10010800C8F0C2C0C9F0EEEC17F0C8C064F0C9C0AE
:1001180065F0CAC066F067C0C3F068C0C4F069C0C3
:10012800C5F064C0C6F065C0C7F066C0C8F0EFECA3
:100138000FF0C3C067F0C4C068F0C5C069F000F034
:10014800A3EC14F00204D8A413D003B204D0000125
:100158008C4B8D2B1CD003B404D000018A4B8B2B05
:1001680016D00150D8B403B012D00001A42B0FD080
:100178000104D8B403B00BD00001864B872B8751FC
:1001880004E1640E865DD8A002D0010EA76FDAECF8
:1001980017F0E3C04EF0E2C04DF0E1C04CF0E0C013
:1001A8004BF0DFC0F5FFDEC0F8FFDDC0F7FFDCC0B5
:1001B800F6FFDBC0F4FFDAC0F3FFD9C0DAFFD8C01E
:1001C800D9FFD7C0E2FFD6C0E1FFD5C0EAFFD4C04F
:1001D800E9FFD3C0FBFFD2C0FAFFD1C0E0FFD0C017
:0E01E800E8FFCFC0D8FF4B9010006CEF14F072
:10100000000B05542E4C74723A2020202020202002
:1010100020202000462E526174653A202020202096
:1010200020202020002020202020203030302020B0
:1010300020202020200020202020476F20466F7293
:1010400020202020202000446174612053617665B7
:10105000642E2E2E2020200057616E7420746F2085
:10106000534156453F2020200020203E59657320E3
:10107000202020204E6F2020200020202059657342
:10108000202020203E4E6F20202000202020576569
:101090006C436F6D6520546F2020200020507265D6
:1010A000737320534554204B455920200020204481
:1010B00065766963652049642049732020002020FB
:1010C0005365742044657669636520494420002D8A
:1010D0002D3E536D61727420436974793C2D2D004F
:1010E000546F205365742044455649434520494474
:1010F0000000010E0101286FF40E276FDBEC18F0E1
:10110000010E0101286FF40E276FDBEC18F0010EC1
:101110000101286FF40E276FDBEC18F0010E0101BE
:10112000286FF40E276FDBEC18F0010E0101286F19
:10113000F40E276FDBEC18F00BEC19F0F28EF28C4A
:10114000F28C000E0101286F640E276FDBEC18F0A3
:1011500052EC15F0000E0101286F0A0E276FDBEC30
:1011600018F07EEC19F082EC19F08B0E01012E6F55
:10117000100E2F6F800E6FEC16F0CF0E01012E6F48
:10118000100E2F6FC00E6FEC16F0010E0101286FCC
:101190002C0E276F8FEC16F0010E0101286F2C0E1C
:1011A000276F8FEC16F0010E0101286F2C0E276FB0
:1011B0008FEC16F0010E0101286F2C0E276F8FECBB
:1011C00016F0000E0101286F0A0E276FDBEC18F0F5
:1011D00025EC18F0000E0101286F0A0E276FDBECDA
:1011E00018F06DEC18F0B2EC17F0CDEC18F0EF0E33
:1011F00001012B6F000E2C6F28EC17F0F90E010186
:101200002B6F000E2C6F5BEC17F0F70E01012B6FAC
:10121000000E2C6F72EC17F001EC18F0CFEC16F00A
:101220001F0E2DEC16F0010E6FEC13F0010E34ECD6
:1012300014F033EC19F09C0E01012E6F100E2F6F7D
:10124000800E6FEC16F0E00E01012E6F100E2F6F66
:10125000C00E6FEC16F0010E0101286FF40E276F1F
:10126000DBEC18F082EC19F0000E0101286F020E81
:10127000276F45EC19F00001A26F000E0101286FE5
:10128000050E276F45EC19F00101396F3951000146
:101290007A6F7B6BA229D8A402D0000EA26F010E38
:1012A000016E360E01012E6F100E2F6F800E6FEC47
:1012B00016F0BE0E01012E6F100E2F6FC00E6FECD8
:1012C00016F00001A705D8A407D0000E016E71EC3E
:1012D0000BF0010E0001A46F884B892B895107E1A7
:1012E000140E885DD8B003D0A451D8B4D8D7000E5E
:1012F000026E82EC19F0000E016E000E00018D6F7F
:10130000000E8C6F000E8B6F000E8A6F000EA46FA4
:101310000C0E9FEC18F0010E026E140E01012E6FE0
:10132000100E2F6F800E6FEC16F0030E01012E6F62
:10133000100E2F6FC00E6FEC16F00001965192192F
:1013400032E197519319D8A42ED0210EB019D8A408
:101350002AD0000EB06F8092000E0101286F020E9D
:10136000276F45EC19F00001A26F210E0101226FD9
:101370007AC023F1A2C024F1000E286F640E276FFB
:10138000DBEC18F0000E0101286F640E276FDBEC18
:1013900018F0000E0101286F640E276FDBEC18F0C7
:1013A000C6EC10F0808280C084F081C085F000011E
:1013B000855119E10A0E845DD8B015D08E0E9FECD0
:1013C00018F000018451300F8FEC18F08D0E9FEC57
:1013D00018F0300E8FEC18F08C0E9FEC18F0300ED9
:1013E0008FEC18F0A1D00001855104E10A0E845D54
:1013F000D8A03BD0855139E1640E845DD8B035D09A
:1014000084C027F185C028F1000E01012A6F0A0E61
:10141000296FFEEC14F00101275100019F6F84C079
:1014200027F185C028F1000E01012A6F0A0E296FED
:10143000C8EC15F00101275100019E6F8D0E9FEC45
:1014400018F000019F51300F8FEC18F08E0E9FECBA
:1014500018F000019E51300F8FEC18F08C0E9FECAD
:1014600018F0300E8FEC18F05FD00001855104E1C8
:10147000640E845DD8A058D0E80E845D030E8559B3
:10148000D8B052D084C027F185C028F1000E0101E8
:101490002A6F640E296FFEEC14F001012751000140
:1014A0009D6F84C027F185C028F1000E01012A6FCD
:1014B000640E296FC8EC15F00101275100019C6FE3
:1014C0009CC027F10101286B000E2A6F0A0E296FBC
:1014D000B8EC13F00101275100019F6F9CC027F168
:1014E0000101286B000E2A6F0A0E296FFBEC13F026
:1014F0000101275100019E6F8C0E9FEC18F0000136
:101500009D51300F8FEC18F08D0E9FEC18F00001FC
:101510009F51300F8FEC18F08E0E9FEC18F00001E9
:101520009E51300F8FEC18F067C027F168C028F18A
:1015300069C029F180EC11F027C17AF028C17BF055
:10154000000E0101286F050E276F7AC029F1EEEC1D
:1015500016F0000E0101286F050E276F7AC029F1E1
:10156000EEEC16F000017B5119E10A0E7A5DD8B05D
:1015700015D0CE0E9FEC18F000017A51300F8FEC91
:1015800018F0CD0E9FEC18F0300E8FEC18F0CC0E4A
:101590009FEC18F0300E8FEC18F0A1D000017B51B9
:1015A00004E10A0E7A5DD8A03BD07B5139E1640E8C
:1015B0007A5DD8B035D07AC027F17BC028F1000E13
:1015C00001012A6F0A0E296FFEEC14F00101275168
:1015D00000019F6F7AC027F17BC028F1000E010146
:1015E0002A6F0A0E296FC8EC15F00101275100017E
:1015F0009E6FCD0E9FEC18F000019F51300F8FECC5
:1016000018F0CE0E9FEC18F000019E51300F8FECB9
:1016100018F0CC0E9FEC18F0300E8FEC18F05FD065
:1016200000017B5104E1640E7A5DD8A058D0E80E29
:101630007A5D030E7B59D8B052D07AC027F17BC0B7
:1016400028F1000E01012A6F640E296FFEEC14F0E0
:101650000101275100019D6F7AC027F17BC028F15D
:10166000000E01012A6F640E296FC8EC15F001010C
:10167000275100019C6F9CC027F10101286B000ECF
:101680002A6F0A0E296FB8EC13F0010127510001EF
:101690009F6F9CC027F10101286B000E2A6F0A0E74
:1016A000296FFBEC13F00101275100019E6FCC0E56
:1016B0009FEC18F000019D51300F8FEC18F0CD0E0B
:1016C0009FEC18F000019F51300F8FEC18F0CE0EF8
:1016D0009FEC18F000019E51300F8FEC18F000F0D5
:1016E0002CD6000E0101386F000E366F010E376FD9
:1016F000000E356F000E346F000E336F82EC19F060
:10170000AD0E01012E6F100E2F6F800E6FEC16F0D4
:10171000250E01012E6F100E2F6FC00E6FEC16F00C
:10172000C60E9FEC18F00E0E9FEC18F003A0FED72B
:10173000000E0101286F1E0E276F0CEC17F0000E33
:1017400000018D6F000E8C6F000E8B6F000E8A6F84
:10175000000EA46F010E026E8D5104E1140E8C5D1B
:10176000D8A034D001013851C60F9FEC18F0010108
:10177000362B090E366502D0000E366F0C0E9FEC2C
:1017800018F036C127F10101286B000E2A6F0A0EEE
:10179000296FFBEC13F001012751300F8FEC18F08B
:1017A00001013851C60F9FEC18F00E0E9FEC18F097
:1017B00003A2FED7000E0101286F1E0E276F0CEC4E
:1017C00017F0000E00018D6F000E8C6F8B5104E13D
:1017D000140E8A5DD8A02FD001013851C60F9FEC9E
:1017E00018F0010136070C0E9FEC18F036C127F1F6
:1017F0000101286B000E2A6F0A0E296FFBEC13F013
:1018000001012751300F8FEC18F001013851C60F3C
:101810009FEC18F00E0E9FEC18F003A4FED7000EFC
:101820000101286F1E0E276F0CEC17F0000E00014F
:101830008B6F000E8A6F130EA46591D10101385190
:10184000010DB50EF324D96E000EF420DA6E36C108
:10185000DFFF382B3851C60F9FEC18F00C0E9FECB1
:1018600018F0000E0101366F03A0FED7000E010133
:10187000286F1E0E276F0CEC17F0000E0001A46FEE
:10188000020E010138656BD1000E386F580E2E6FB5
:10189000100E2F6F800E6FEC16F0690E01012E6F87
:1018A000100E2F6FC00E6FEC16F0000E00018D6F42
:1018B000000E8C6F000E8B6F000E8A6F000EA46FEF
:1018C000010E026E00018D5104E1140E8C5DD8A052
:1018D00032D00101372B00F000F000F000F0020ED2
:1018E0000101376502D0010E376F03A2FED7000E4B
:1018F0000101286F1E0E276F0CEC17F00101370550
:10190000D8A408D0690E2E6F100E2F6FC00E6FEC8A
:1019100016F00CD0020E01013719D8A407D07A0EA8
:101920002E6F100E2F6FC00E6FEC16F0000E000120
:101930008D6F000E8C6F8B5104E1140E8A5DD8A060
:1019400032D00101370700F000F000F000F0010193
:101950003751D8A402D0020E376F03A4FED7000E71
:101960000101286F1E0E276F0CEC17F001013705DF
:10197000D8A408D0690E2E6F100E2F6FC00E6FEC1A
:1019800016F00CD0020E01013719D8A407D07A0E38
:101990002E6F100E2F6FC00E6FEC16F0000E0001B0
:1019A0008B6F000E8A6F130EA4658CD703A0FED731
:1019B000000E0101286F1E0E276F0CEC17F00101BD
:1019C0003705D8A49FD0000E386F020E386501D0BD
:1019D0004CD03851D8A40DD03851010DB50EF32498
:1019E000D96E000EF420DA6EDF50316F3151640D84
:1019F0000FD03805D8A411D03851010DB50EF324FD
:101A0000D96E000EF420DA6EDF50316F31510A0DBD
:101A1000F3CF33F1F4CF34F111D0020E3819D8A43A
:101A20000DD03851010DB50EF324D96E000EF420FF
:101A3000DA6EDF50316F3151336F346B640E3825FD
:101A4000276F286B000E28233851010DB50EF324A3
:101A5000D96E000EF420DA6EDF50296FEEEC16F02E
:101A600092EC19F00101382BB0D7000E386F020E3E
:101A7000386501D041D03851010DB50EF324D96E2F
:101A8000000EF420DA6E640E3825276F286B000EE6
:101A9000282345EC19F00101326FDE503219D8A429
:101AA00022D0020E3819D8A424D0000E026E010EE6
:101AB0000001A56F000E0101386F000E366F82EC39
:101AC00019F0470E01012E6F100E2F6F800E6FEC74
:101AD00016F0010E0101286FF40E276F0CEC17F0C1
:101AE00082EC19F009D00101352B020E35656BD758
:101AF0000ED00101382BBBD70001A505D8B42FD0DB
:101B0000000EA46F020E01013719D8A4DBD682ECB7
:101B100019F0AD0E01012E6F100E2F6F800E6FECBD
:101B200016F0250E01012E6F100E2F6FC00E6FECF8
:101B300016F0C60E9FEC18F00E0E9FEC18F0000E7B
:101B40000101376F000E00018D6F000E8C6F000ECB
:101B50008B6F000E8A6F000EA46F010E026E0001E3
:101B6000A505D8A4F9D5B6510A0DF3CF31F1B55179
:101B7000640DF350010131250001B725A36F000E5C
:101B80000101286F020E276FA3C029F1EEEC16F0B9
:101B9000000E0001A56F010E026E1200000E356EE0
:101BA000000E366E000E356E35500409356E35C0A8
:101BB00029F0390EBEEC18F0030E2A6E000E296EC5
:101BC0007BEC15F0236E00F0000E366E7F0E36644F
:101BD00001D06AD0020EF66E100EF76E000EF86E8F
:101BE0000800F550306E316A010EF66E100EF76E79
:101BF000000EF86E0800F5503026000E3122050E5A
:101C00003026000E31223650326E336A3050325C4C
:101C10003350800A346E3150800A3458D8B012D014
:101C20003650010D000EF324D96E010EF420DA6E49
:101C300036500001EC25296E000EED212A6E7BEC5A
:101C400015F0DF6E020EF66E100EF76E000EF86ED7
:101C50000800F550306E316A010EF66E100EF76E08
:101C6000000EF86E0800F5503026000E3122050EE9
:101C70003026000E31223650326E336A3050325CDC
:101C80003350800A346E3150800A3458D8A00AD0BC
:101C900036500001EC25296E000EED212A6E7BECFA
:101CA00015F01E6E362A92D7010EF66E100EF76EE4
:101CB000000EF86E0800F550306E316A010E3026C5
:101CC000000E3122000E3024D96E010E3120DA6E62
:101CD000DF500001B06F010EF66E100EF76E000EB1
:101CE000F86E0800F550306E316A020E3026000E94
:101CF0003122000E3024D96E010E3120DA6EDF5011
:101D0000B16F010EF66E100EF76E000EF86E080041
:101D1000F550306E316A030E3026000E3122000E6F
:101D20003024D96E010E3120DA6EDF50B26F010E11
:101D3000F66E100EF76E000EF86E0800F550306E5D
:101D4000316A040E3026000E3122000E3024D96E86
:101D5000010E3120DA6EDF50B36F010EF66E100EF9
:101D6000F76E000EF86E0800F550306E316A050E01
:101D70003026000E3122000E3024D96E010E3120A3
:101D8000DA6EDF50B46F010EF66E100EF76E000EB5
:101D9000F86E0800F550306E316A020EF66E100EC5
:101DA000F76E000EF86E0800F5503026000E312256
:101DB000030E3026000E3122000E3024D96E010EA3
:101DC0003120DA6EDF50206E010EF66E100EF76EC7
:101DD000000EF86E0800F550306E316A020EF66E95
:101DE000100EF76E000EF86E0800F5503026000E4B
:101DF0003122040E3026000E3122000E3024D96E1E
:101E0000010E3120DA6EDF501F6E000E356E000EAF
:101E1000356E35C029F0390EBEEC18F01200010104
:101E2000306F1B0E0101306103D00B0E3061A2D068
:101E30000B0E306F9FD0020E2A6F000E296F020E1C
:101E40002B6FD4EC14F0C8D0020E01012A6F000EE3
:101E5000296F120E2B6FD4EC14F0BED0020E0101CC
:101E60002A6F000E296F220E2B6FD4EC14F0B4D021
:101E7000020E01012A6F000E296F320E2B6FD4EC77
:101E800014F0AAD0020E01012A6F000E296F420E33
:101E90002B6FD4EC14F0A0D0020E01012A6F000EBB
:101EA000296F520E2B6FD4EC14F096D0020E010164
:101EB0002A6F000E296F620E2B6FD4EC14F08CD0B9
:101EC000020E01012A6F000E296F720E2B6FD4ECE7
:101ED00014F082D0020E01012A6F000E296F820ECB
:101EE0002B6FD4EC14F078D0020E01012A6F000E93
:101EF000296F920E2B6FD4EC14F06ED0020E0101FC
:101F00002A6F000E296FA20E2B6FD4EC14F064D050
:101F1000020E01012A6F000E296FB20E2B6FD4EC56
:101F200014F05AD0020E01012A6F000E296FC20E62
:101F30002B6FD4EC14F050D0020E01012A6F000E6A
:101F4000296FD20E2B6FD4EC14F046D0020E010193
:101F50002A6F000E296FE20E2B6FD4EC14F03CD0E8
:101F6000020E01012A6F000E296FF20E2B6FD4ECC6
:101F700014F032D0010130510B0AD8B45CD7070AF3
:101F8000D8B462D7010AD8B469D7030AD8B470D7D5
:101F9000010AD8B477D71F0AD8B47ED7010AD8B4BB
:101FA00085D7030AD8B48CD7010AD8B493D7070AC7
:101FB000D8B49AD7010AD8B4A1D7030AD8B4A8D7FD
:101FC000010AD8B4AFD70F0AD8B4B6D7010AD8B42B
:101FD000BDD7030AD8B4C4D7B2EC17F01200C5C0FD
:101FE000C9F00001CA6BCB6BC435C93701E3CA81A4
:101FF000C951CE6FC8C0C9F0CA6BCB6BC735C937E2
:1020000001E3CA81C951CD6FCE51D8B40BD0CD51A7
:10201000CE5DD8B00ED0CE510008CD25C96F180EB8
:10202000C96507D0C6C0C3F0C7C0C4F0C8C0C5F0FA
:102030001200CD51D8B40BD0CE51CD5DD8B00ED05A
:10204000CD510008CE25C96F180EC96507D0C3C091
:10205000C3F0C4C0C4F0C5C0C5F01200060ECC6FFA
:10206000C5BFCC8FC8BFCC8DC48FFF0EC317FF0E6A
:10207000C417000EC517C78FFF0EC617FF0EC71770
:10208000000EC817CD51CE5DD8B01BD0D890C63742
:10209000C737C837CD07CE51CD19D8B40DD0CC072E
:1020A000CCC0C9F0070EC917D8B406D0EFD7D89066
:1020B000C533C433C333CE2BCD51CE19D8B41FD0C2
:1020C000F6D7CE51CD5DD8B01AD0D890C337C4372B
:1020D000C537CE07CE51CD19D8B40DD0CC07CCC062
:1020E000C9F0070EC917D8B406D0EFD7D890C833B7
:1020F000C733C633CD2BCD51CE19D8A4F7D7CCAF2B
:102100000CD0FF0EC31BFF0EC41BFF0EC51B010E20
:10211000C327000EC423000EC523CCAD0CD0FF0E88
:10212000C61BFF0EC71BFF0EC81B010EC627000EE5
:10213000C723000EC823000ECC6FC351C627C4515D
:10214000C723C551C823C8AF0ED0FF0EC61BFF0E54
:10215000C71BFF0EC81B010EC627000EC723000EAB
:10216000C823010ECC6FC6C0BBF0C7C0BCF0C8C04E
:10217000BDF0CEC0BEF0CCC0BFF0CCEC12F0BBC006
:10218000C3F0BCC0C4F0BDC0C5F01200000E010118
:10219000366F000E356F010EF66E100EF76E000EE4
:1021A000F86E0800F5CF15F1020EF66E100EF76E00
:1021B000000EF86E0800F5CF30F1010EF66E100E2D
:1021C000F76E000EF86E0800F5503025166F010E00
:1021D000176F880E186FEEC019F1F8C01AF1F7C02A
:1021E0001BF1F9C01CF1FAC01DF1E8C01EF1E9C0F5
:1021F0001FF1EAC020F1EBC021F1000E356F0D0E8A
:102200000001AD6F020E0101356501D018D000014B
:10221000AD51010D150EF324D96E010EF420DA6EC6
:1022200001013551010DB80EF324E16E000EF420CA
:10223000E26EDFCFE7FF352B0001AD2BE3D7B80E01
:10224000276F000E286F030E296F0CEC16F027C1C4
:1022500094F028C195F094C025F100019551010139
:10226000266F000E366F010EF66E100EF76E000E22
:10227000F86E0800F550306F316B020EF66E100EDE
:10228000F76E000EF86E0800F5503027000E31236F
:10229000020E3027000E31233651326F336B30512E
:1022A000325D3351800A346F3151800A3459D8B0CD
:1022B00020D03651000198250101296F000E000140
:1022C000992101012A6F3651010D150EF324D96EA3
:1022D000010EF420DA6EDF502B6FD4EC14F0000EF8
:1022E0000101286F0A0E276FDBEC18F00101362B75
:1022F000BAD700EC19F0F5EC18F0A4EC15F01200C8
:1023000029C12BF101012C6B2D6B28352B3701E3F3
:102310002C812B51356F3551D8A409D0000E276F71
:10232000000E286F000E296F000E2A6F1200170E84
:102330002B6F27C12CF128C12DF129C12EF12B299A
:102340002F6F04D0D8902E332D332C332F2FFAD764
:1023500001012C51306F288FFF0E2717FF0E281711
:10236000000E29172751316F2851326F2951336FD1
:10237000346B8E0E355F35AF16D03551800A8F0F16
:10238000D8B009D0000E276F000E286F000E296FFD
:10239000000E2A6F1200D890343333333233313386
:1023A000353FF9D715D0170E35650FD0000E276FC2
:1023B000000E286F000E296F000E2A6F1200D890B1
:1023C000313732373337343735073551D8A4F7D75B
:1023D0003051D8B408D0341F331F321F316D000E76
:1023E00032233323342331C127F132C128F133C1E1
:1023F00029F134C12AF11200FACF39F0FBCF3AF0BB
:10240000E9CF3BF0EACF3CF0E1CF3DF0E2CF3EF048
:10241000D9CF3FF0DACF40F0F3CF41F0F4CF42F024
:10242000F6CF43F0F7CF44F0F8CF45F0F5CF46F0C4
:102430004BC047F04CC048F04DC049F04EC04AF088
:10244000F2B8F2A220D0310E7EEC18F0266E26A64D
:1024500018D0F29ECEEC0DF0F28EB00E276E000E6C
:10246000286E030E296EAFEC16F027C092F028C03C
:1024700093F00001B451376EB351966F37C097F0A7
:1024800000F08EEC19F04AC04EF049C04DF048C043
:102490004CF047C04BF046C0F5FF45C0F8FF44C0C4
:1024A000F7FF43C0F6FF42C0F4FF41C0F3FF40C056
:1024B000DAFF3FC0D9FF3EC0E2FF3DC0E1FF3CC0B4
:1024C000EAFF3BC0E9FF3AC0FBFF39C0FAFF4B927D
:1024D000110001012B6F000E01012C6F51D0000E75
:1024E0002C6F2C5180092C6F2C51DF0B2C6F2CC1C1
:1024F00029F13A0E13EC18F0600E0101296F3F0E1E
:1025000013EC18F01200000E01012C6F2C51400941
:102510002C6F2C517F0B2C6F2CC129F13A0E13EC30
:1025200018F0000E01012C6F2C5138092C6F2C5122
:10253000FB0B2C6F2CC129F13A0E13EC18F0120092
:10254000000E01012C6F2C51C0092C6F2CC129F1F8
:102550003A0E13EC18F0000E01012C6F2C513809C3
:102560002C6F2C51FB0B2C6F2CC129F13A0E13EC64
:1025700018F0600E0101296F3F0E13EC18F01200E5
:1025800001012B51010AD8B4AAD7030AD8B4BBD78A
:10259000010AD8A41200D4D70001BE51D8B405D086
:1025A000BB51BC11BD11D8A40CD0000EBB6F000EE6
:1025B000BC6F000EBD6F1200BE2BD890BD33BC3374
:1025C000BB33000EBB15C06F000EBC15C16FFE0EF5
:1025D000BD15C26FC051C111C211D8B40CD0ECD717
:1025E000BE2B010EBB27000EBC23000EBD23D890CE
:1025F000BD33BC33BB33000EBB15C06F000EBC1522
:10260000C16FFF0EBD15C26FC051C111C211D8B448
:1026100006D0E6D7BE07D890BB37BC37BD37BCBFA6
:1026200003D0020EBE61F6D7BEA1BC9FD890BE33C8
:10263000BE51BD13BF51D8A4BD8FBBC0BBF0BCC041
:10264000BCF0BDC0BDF01200980E0101296F180E3C
:1026500013EC18F0950E0101296F2E0E13EC18F0F3
:10266000020E01012A6F010E296F010E2B6FD4ECAF
:1026700014F016EC19F0020E01012A6F060E296FF4
:10268000900E2B6FD4EC14F0020E01012A6F070E8E
:10269000296F800E2B6FD4EC14F0020E01012A6F0B
:1026A000080E296F100E2B6FD4EC14F0020E0101EE
:1026B000296F110E13EC18F0020E01012A6F200E83
:1026C000296F210E2B6FD4EC14F0020E01012A6F3A
:1026D0002F0E296F0F0E2B6FD4EC14F01200010196
:1026E0002B6F000E01012C6F34D0000E2C6F000EEA
:1026F0002C6F2CC129F10D0E13EC18F01200000EF6
:1027000001012C6F000E2C6F2C5108092C6F2CC16D
:1027100029F10D0E13EC18F01200000E01012C6FC0
:10272000000E2C6F2C5104092C6F2CC129F10D0EB9
:1027300013EC18F01200000E01012C6F000E2C6F2C
:102740002C5102092C6F2CC129F10D0E13EC18F03D
:10275000120001012B51010AD8B4C7D7030AD8B41B
:10276000CED7010AD8B4D9D7070AD8A41200E3D724
:10277000000E01012C6F2AAF06D0296D2A1FD8B098
:102780002A2B010E2C6F28AF06D0276D281FD8B03A
:10279000282B010E2C1B000E2E6F000E2D6F2951C1
:1027A0002A11D8B41CD0010E2B6F04D0D890293731
:1027B0002A372B2B2AAFFAD7D8902D372E3729510D
:1027C000275D2A512859D8A005D02951275F2A51C1
:1027D000285B2D81D8902A3329332B2FEDD72C510C
:1027E000D8B404D02D6D2E1FD8B02E2B2DC127F1BB
:1027F0002EC128F11200000E01012C6F28AF06D067
:10280000276D281FD8B0282B010E2C6F2AAF04D0BB
:10281000296D2A1FD8B02A2B29512A11D8B418D0D3
:10282000010E2B6F04D0D89029372A372B2B2AAFD3
:10283000FAD72951275D2A512859D8A004D0295107
:10284000275F2A51285BD8902A3329332B2FF1D7C1
:102850002C51D8B404D0276D281FD8B0282B27C1FD
:1028600027F128C128F1120001012B6F000E010190
:102870002C6F26D0000E2C6F000E2C6F2CC129F16E
:10288000000E13EC18F01200000E01012C6F000E68
:102890002C6F2C5102092C6F2CC129F1000E13EC66
:1028A00018F01200000E01012C6F000E2C6F2C513D
:1028B00001092C6F2CC129F1000E13EC18F0120045
:1028C00001012B51010AD8B4D5D7030AD8B4DCD7FB
:1028D000010AD8A41200E6D7F40EF66E320EF76E97
:1028E000000EF86E01EE3AF010EE08F00900F5CF98
:1028F000EEFFE550E150FAE1D20EF66E310EF76EC2
:10290000000EF86E00EEE4F010EE17F00900F5CFBF
:10291000EEFFE550E150FAE101EE00F0270EEE6A1D
:10292000E806FDE100EE60F05B0EEE6AE806FDE110
:1029300000EE01F0260EEE6AE806FDE14B904B92A8
:10294000000179EF08F086CFBBF0000E0001BD6FEB
:1029500086CFBCF0BD51010DE40EF324D96E000EFC
:10296000F420DA6EBD51010DE60EF324E16E000E87
:10297000F420E26EE750BC11DF6EBD51010DE60E92
:10298000F324D96E000EF420DA6EBCC0DFFFBD5117
:10299000010DE40EF324D96E000EF420DA6EDF5040
:1029A000036EBD29BD6F1200000E01012E6F000ED7
:1029B0002F6F829029C12CF12AC12DF1D8902D338F
:1029C0002C33D8902D332C33D8902D332C332C51DD
:1029D0007F0B80092E6F2939E846E00BE00B1009C8
:1029E0002F6F2E513CEC19F001012F513CEC19F0E6
:1029F00001012B513CEC19F082801200000E010104
:102A00002D6F000E2C6F29512A11D8B41CD0010E45
:102A10002B6F04D0D89029372A372B2B2AAFFAD71F
:102A2000D8902C372D372951275D2A512859D8A005
:102A300005D02951275F2A51285B2C81D8902A3351
:102A400029332B2FEDD72CC127F12DC128F11200EE
:102A5000000E0001C76F000EC66FC351C411D8B479
:102A60001CD0010EC56F04D0D890C337C437C52B16
:102A7000C4AFFAD7D890C637C737C351C15DC45168
:102A8000C259D8A005D0C351C15FC451C25BC68131
:102A9000D890C433C333C52FEDD7C6C0C1F0C7C06B
:102AA000C2F01200380E9FEC18F0000E0101286FE2
:102AB0000A0E276F8FEC16F00E0E9FEC18F0000E2A
:102AC0000101286F0A0E276F8FEC16F0010E9FECA4
:102AD00018F0000E0101286F0A0E276F8FEC16F018
:102AE000800E9FEC18F0000E0101286F0A0E276F70
:102AF0008FEC16F01200000E2D6E000E2E6E000EE2
:102B00002F6E829029C02BF02AC02CF0D8902C3246
:102B10002B32D8902C322B32D8902C322B322B5097
:102B20007F0B80092E6E2938E846E00BE00B2F6EF4
:102B30002E504EEC19F02F504EEC19F056EC19F0C7
:102B40002D6E82802D501200000E0001AE6FAE512E
:102B50000109AE6FAEC029F11B0E13EC18F0000E88
:102B60000001AE6F310E9EEC17F0E806D8A4FAD73C
:102B7000310E9EEC17F00001AE6F00F0000E000168
:102B8000AE6F240E9EEC17F00001AE6F00F0120045
:102B9000010129512A11D8B418D0010E2B6F04D08D
:102BA000D89029372A372B2B2AAFFAD72951275DFE
:102BB0002A512859D8A004D02951275F2A51285BCF
:102BC000D8902A3329332B2FF1D727C127F128C1D9
:102BD00028F11200000E8D6E000E8C6E0F0E896EA5
:102BE000100E8E6E000E8A6E070E8F6E030E8B6EA9
:102BF000000E966EE00E976EC00E926E1F0E986ECF
:102C00009368FC0E946E9568200E0F01256F0C0ED4
:102C1000246F030E236F12008D0E01012C6F0D0E19
:102C20002B6F000E2E6F000E2D6F0AD027C1D9FF1B
:102C300028C1DAFFDF502A6F2A512B1B274B282B84
:102C400029072929D8A4F2D72BC12DF12CC12EF1A7
:102C50002DC127F12EC128F112000101316F1F0E85
:102C60000101316502D01F0E316F315100081F0F75
:102C7000316F31C130F11F0E3017D8903037D890F6
:102C80003037D8903035F80B316F020E2A6F030EB3
:102C9000296F31C12BF1D4EC14F0120001012B6F1C
:102CA000000E01012C6F12D0000E2C6F2C518009E8
:102CB0002C6F2CC129F13E0E13EC18F01200400EBF
:102CC0000101296F3E0E13EC18F0120001012B5187
:102CD000010AD8B4E9D7030AD8A41200F0D7010139
:102CE000306F010130519FEC18F00DD02EC1F6FF6E
:102CF0002FC1F7FF000EF86E0800F5508FEC18F0AA
:102D000001012E4B2F2B2EC1F6FF2FC1F7FF000E16
:102D1000F86E0800F5500009D8B41200E7D7000E8D
:102D200001012A6F000E296F11D0000E2C6F000ECA
:102D30002B6F2CBF06D0F50E2B5D010E2C59D8B091
:102D400003D02B4B2C2BF5D7294B2A2B2751295D50
:102D500028512A59D8A0E9D700F000F012008D0EB2
:102D60002C6E0D0E2B6E000E2E6E000E2D6E0AD0E8
:102D700027C0D9FF28C0DAFFDF502A6E2A502B1A4D
:102D8000274A282A29062928D8A4F2D72BC02DF0B3
:102D90002CC02EF02DC027F02EC028F01200000EFF
:102DA00001012B6F000E2B6F2B5108092B6F2BC1CC
:102DB00029F1000E13EC18F0000E01012B6F2B51BE
:102DC000DF0B2B6F2BC129F1110E13EC18F0FF0E46
:102DD0000101296F100E13EC18F01200000E010112
:102DE0002A6F27C162FF29C161FF7F9E7F9C7F847C
:102DF000000EF2BE010E2A6FF29E550E7E6EAA0ED6
:102E00007E6E7F827FB2FED701012AB102D0F29E90
:102E100001D0F28E7F941200000E01012A6F000E85
:102E2000296F0FD0000E2C6F000E2B6FF50E2B5D4F
:102E3000010E2C59D8B003D02B4B2C2BF7D7294B94
:102E40002A2B2751295D28512A59D8B01200EAD7D8
:102E5000000E01012D6F000E2D6F070E2D6501D0A4
:102E600012002D51010DF3502B25D96EF4502C2159
:102E7000DA6EDF50296F2D51050F13EC18F00101A8
:102E80002D2BEBD7F090F18A2C0E0101276F330E1A
:102E9000286F000E296F6CEC19F0F086F292F19C0D
:102EA0002E0E0101276F330E286F000E296F73EC71
:102EB00019F0F28812002BC1D9FF2CC1DAFFDF50C4
:102EC0000101296F030E13EC18F0010120EE01F04F
:102ED0002B51D9262C51DA22DF50296F040E13EC26
:102EE00018F012002BC1D9FF2CC1DAFFDF5001010D
:102EF000296F010E13EC18F0010120EE01F02B51A7
:102F0000D9262C51DA22DF50296F020E13EC18F06B
:102F10001200000ED76E020ED66E020E0001AF6FC9
:102F2000F294F28A2A0E0101276F330E286F000EE9
:102F3000296F65EC19F0D70ED56E120001012A6FCA
:102F4000000E0101296F82902A512A257E0B2A6FDB
:102F50002A513CEC19F02AEC19F00101296F82800A
:102F600029511200040E0101296F360E13EC18F0DE
:102F7000000E0101296F360E13EC18F0000E01014E
:102F8000286F140E276FDBEC18F012000001BB5104
:102F9000BD03F3CFBFF0F4CFC0F0BB51BE03F3507D
:102FA000C027BC51BD03F350C027BFC0BBF0C0C099
:102FB000BCF01200F294AFC0D6FF00019A4B9B2BDD
:102FC0009B5104E1980E9A5DD8A0120037EC18F0DE
:102FD000000E00019B6F000E9A6F1200C8C0BBF07C
:102FE000C9C0BCF00001BD6B8E0EBE6F000EBF6F7E
:102FF000CCEC12F0BBC0C8F0BCC0C9F0BDC0CAF078
:10300000120024EC13F0010E69EC12F0020E4EECEB
:1030100016F05EEC19F00F0E0FEC0FF033EC19F018
:10302000B2EC17F0120001012A6F829001012A51BF
:103030002A257F0B01092A6F2A513CEC19F0010166
:1030400029513CEC19F082801200C690C692C694B9
:10305000C696949A9496C68AC78EC698C78C000E58
:103060000101286F0A0E276FAFEC18F01200000163
:10307000735174117511D8B4120001D812000500F3
:10308000FA6E7351FD6E7451FE6E7551FF6EFA50FB
:1030900012000001705171117211D8B4120001D8E0
:1030A00012000500FA6E7051FD6E7151FE6E725184
:1030B000FF6EFA50120000016D516E116F11D8B4FD
:1030C000120001D812000500FA6E6D51FD6E6E51AE
:1030D000FE6E6F51FF6EFA5012008292000E0101D7
:1030E000286F0A0E276FDBEC18F08282000E0101B8
:1030F000286F0A0E276FDBEC18F01200296E000E05
:103100002A6E8290295029247E0B296E29504EEC7C
:1031100019F056EC19F02A6E82802A501200010133
:103120002D6F2DC184FF858200F08586000E010180
:10313000286F050E276F8FEC16F08596120001019F
:103140002D6F2DC184FF859200F08586000E010150
:10315000286F050E276F8FEC16F085961200000E73
:1031600001012A6F000E296F02D0294B2A2B27510B
:10317000295D28512A59D8B01200F7D72A6E8290BB
:103180002A502A247F0B01092A6E2A504EEC19F08E
:1031900029504EEC19F0828012008598600E0101D2
:1031A000296F0D0E13EC18F0800E0101296F220E0D
:1031B00013EC18F01200000E01012A6F000E296FA7
:1031C000274B282B100E275D270E2859D8B0120048
:1031D000F7D7FFFFFFFF03030101000323020202F1
:0931E000020202020203030202D2
:1031EA00000E01012B6F000E2B6F2BC129F11B0E54
:1031FA0013EC18F01200000E01012B6F000E2B6F5A
:10320A002BC129F11B0E13EC18F0120086EC19F0F1
:10321A00EAEC15F020EC19F042EC17F089EC17F003
:10322A001200020E01012A6F020E296F800E2B6F07
:10323A00D4EC14F01200600ED36E000E646E000E11
:10324A009B6E000E0F012A6F1200C968C7A0FED735
:10325A00C9CF27F19E960101275112008588000ED9
:10326A000101286F0A0E276FDBEC18F0120001012A
:10327A00286F28C1C9FFC7A0FED7C9CF27F11200FE
:10328A0027C162FF7F9C7F9E7F8000F000F0615023
:10329A001200286E28C0C9FFC7A0FED7C9CF27F0E1
:1032AA001200C968C7A0FED7C9CF27F09E9627503B
:1032BA001200F70E0101296F320E13EC18F01200FA
:1032CA0027C173F028C174F029C175F0120027C113
:1032DA0070F028C171F029C172F0120027C16DF097
:1032EA0028C16EF029C16FF012000101010101012C
:1032FA0001010C0E9FEC18F01200010E9FEC18F061
:10330A001200D08EF09CF1941200F09049EC18F063
:10331A001200F2925BEC18F012007FB2FED7120094
:06332A0012001200120067
:020000040020DA
:08000000FFFFFFFFFFFFFFFF00
:020000040030CA
:0E00000015137F7C018991FFFFC0FFE0FF40D8
:00000001FF
