:040000007EEF00F09F
:0600080049829FEF8BF01E
:100018004980D8CFEAF0E8CFEBF0E0CFECF0FACFA8
:10002800EDF0FBCFEEF0E9CFEFF0EACFF0F0E1CF63
:10003800F1F0E2CFF2F0D9CFF3F0DACFF4F0F3CF6A
:10004800F5F0F4CFF6F0F6CFF7F0F7CFF8F0F8CFF9
:10005800F9F0F5CFFAF049C0FBF04AC0FCF04BC00C
:10006800FDF04CC0FEF0F2BAF2A418D0042AC70E74
:10007800046412D0000E046E80A602D0010E01D0D6
:10008800000EFF0A0001E96FE947E947E947805098
:10009800E919F70BE919806E42EC94F0FEC04CF0B8
:1000A800FDC04BF0FCC04AF0FBC049F0FAC0F5FFB8
:1000B800F9C0F8FFF8C0F7FFF7C0F6FFF6C0F4FF85
:1000C800F5C0F3FFF4C0DAFFF3C0D9FFF2C0E2FFD6
:1000D800F1C0E1FFF0C0EAFFEFC0E9FFEEC0FBFFAF
:1000E800EDC0FAFFECC0E0FFEBC0E8FFEAC0D8FFC4
:0800F8004990100054EF90F054
:10FD0000004C69676874206973204F46462E242092
:10FD10004D5347352050415220535424204D5347D2
:10FD20003320414C5445524E24204D5347322041FC
:10FD30004C4C204F4624204D53473120414C4C2001
:10FD40004F4E4C69676874206973204F4E41542BA5
:10FD5000434D47523D310D41542B434D45453D32B6
:10FD60000D24204D534734204C4441542B435049DB
:10FD70004E3F0D41542B4950523F0D41542B475398
:10FD80004E0D415445300D00415456310D415449FA
:10FD90000D0B052020202D2D2D3E4C45442044697F
:10FDA00073706C617920426F617264204461746188
:10FDB0003C2D2D2D2D202020506C65617365204336
:10FDC00068616E676520796F7572204C6967687429
:10FDD000204D6F64756C652E41542B434D47443D57
:10FDE000312C340D41540D2053656E642053746FD3
:10FDF0007265642049442020202020004964204965
:10FE000073204E6F742053746F7265642E2E2E20F3
:10FE10000020202020202020202020202020202002
:10FE2000202020200053656E64696E672E202020FC
:10FE300020202020202020200053656E64696E67FA
:10FE40002E2E202020202020202020200053656EF0
:10FE500064696E672E2E2E20202020202020202056
:10FE60000053656E64696E672E2E2E2E2020202092
:10FE70002020202000506C7A20576169742E2E2E8D
:10FE800020202020202020200053656E64696E67AA
:10FE90002E2E2E2E2E20202020202020004D5347B5
:10FEA0002044656C657465642E2E2E202020202051
:10FEB0000057616974696E6720666F7220534D53F5
:10FEC00020202020004F6E65204E6577204D657301
:10FED0007361676520202020004D73672031205218
:10FEE000656365697665642E2E2E2020004D73674C
:10FEF00020322052656365697665642E2E2E20209F
:10FF0000004D736720332052656365697665642E02
:10FF10002E2E2020004D73672034205265636569C2
:10FF20007665642E2E2E2020004D736720352052DA
:10FF3000656365697665642E2E2E20200052656308
:10FF40006569766564204C454420535441545553AB
:10FF500000202020207068696C627269636B202029
:10FF6000202020002020546563686E6F6C6F6769E5
:10FF70006573202020200053656E642070726F70BE
:10FF80006572206D73672020200057726F6E6720A6
:10FF90004D73672052656365697665640044656CDE
:10FFA0006574696E6720534D532020202000416CFA
:10FFB0006C20534D532064656C6574656420005358
:10FFC000746F72656420696E2044657669636500AC
:10FFD000202049442020202020697320696E2000C1
:10FFE000202020456D657267656E637920200020B2
:0FFFF00020494420202020697320696E200000E2
:020000040001F9
:10000000010E0101D96FF40ED86F0CEC95F0010EC2
:100010000101D96FF40ED86F0CEC95F0010E0101BF
:10002000D96FF40ED86F0CEC95F0010E0101D96F69
:10003000F40ED86F0CEC95F0010E0101D96FF40E9F
:10004000D86F0CEC95F06CEC95F0F28EF28CF28C93
:10005000000E0101D96F640ED86F0CEC95F0F2EC34
:1000600091F0000E0101D96F0A0ED86F0CEC95F0DB
:100070009CEC95F0A0EC95F0510E0101DF6FFF0EA6
:10008000E06F800EEDEC92F0640E0101DF6FFF0E69
:10009000E06FC00EEDEC92F0010E0101D96F2C0E55
:1000A000D86F0DEC93F0010E0101D96F2C0ED86FB3
:1000B0000DEC93F0010E0101D96F2C0ED86F0DECF1
:1000C00093F0010E0101D96F2C0ED86F0DEC93F057
:1000D000000E0101D96F0A0ED86F0CEC95F07AEC86
:1000E00094F0000E0101D96F0A0ED86F0CEC95F058
:1000F0006AEC91F09EEC94F02EEC94F0FEEC94F00F
:10010000D50E0101DC6F000EDD6FA5EC93F0E70E5C
:100110000101DC6F000EDD6FD7EC93F0E50E0101FD
:10012000DC6F000EDD6FEEEC93F056EC94F04DECCE
:1001300093F01F0EABEC92F0010EA8EC8EF0010EC6
:10014000CAEC90F05AEC95F00A0E016E02EC91F0B8
:10015000000E0001B06F0A0EB06501D018D0B0518A
:10016000010D4D0EF324F66EFD0EF420F76EF86AC5
:10017000000EF822B051010DCB0EF324D96E010E02
:10018000F420DA6E0800F5CFDFFFB02BE4D7B10E14
:100190000101DF6FFE0EE06F800EEDEC92F0110EAC
:1001A0000101DF6FFE0EE06FC00EEDEC92F0010E6C
:1001B0000001A56F000E036E100E026E000E01010D
:1001C000D96F010ED86F0DEC93F00001A405D8A4EF
:1001D000EAD3000EA46F8090C50E0101DF6FFE0E02
:1001E000E06F800EEDEC92F0000E0101D96F640E0D
:1001F000D86F0DEC93F0000E0101D96F640ED86F2B
:100200000DEC93F0000E0101D96F640ED86F0DEC68
:1002100093F00EC2D3F105EC94F0010E0001A56F2E
:10022000000E036E5A0E026E000E0101D96F010E10
:10023000D86F0DEC93F0CB0E0101DE6F010EDF6F76
:100240000A0EE06F36EC91F00001A551D8A4FCD75E
:10025000000EB06F2BD0B051010D000EF324D96EFB
:10026000020EF420DA6E240EDE18D8A41DD0B0C021
:100270009CF0000E9B6F14D09C51010D000EF324D6
:10028000D96E020EF420DA6E9B51010D720EF3242A
:10029000E16E000EF420E26EDFCFE7FF9C2B9B2B7C
:1002A0000E0E9B65E9D700F00001B02B0250B05D47
:1002B000D8A0D1D700F08080750E0101DF6FFE0E4F
:1002C000E06F800EEDEC92F0110E0101DF6FFE0E7B
:1002D000E06FC00EEDEC92F0000E0101D96F640EDC
:1002E000D86F0DEC93F0000E0101D96F640ED86F3A
:1002F0000DEC93F0000E0101D96F640ED86F0DEC78
:1003000093F0000E0101D96F640ED86F0DEC93F0DD
:10031000000E0101D96F640ED86F0DEC93F0000E42
:100320000101D96F640ED86F0DEC93F00A0E016EC7
:10033000010E0001A56F000E036E05EC94F0050E92
:10034000026ED80E0101DE6FFD0EDF6F0C0EE06F46
:100350009DEC91F00001A551D8A4FCD79D0E0101A0
:10036000DF6FFE0EE06F800EEDEC92F0110E0101DA
:10037000DF6FFE0EE06FC00EEDEC92F0000E01019B
:10038000D96F640ED86F0DEC93F0000E0101D96F98
:10039000640ED86F0DEC93F0000E0101D96F640E5E
:1003A000D86F0DEC93F0000E0101D96F640ED86F79
:1003B0000DEC93F0000E0101D96F640ED86F0DECB7
:1003C00093F0000E0101D96F640ED86F0DEC93F01D
:1003D00000EC89F000019D6F8BD2D90E0101DF6F17
:1003E000FE0EE06F800EEDEC92F0110E0101DF6F5A
:1003F000FE0EE06FC00EEDEC92F0240E00016D6F6A
:100400004D0E6E6F310E22D2ED0E0101DF6FFE0E2A
:10041000E06F800EEDEC92F0240E00016D6F4D0E3A
:100420006E6F320E13D2010E0101DF6FFF0EE06F0F
:10043000800EEDEC92F0240E00016D6F4D0E6E6F8C
:10044000330E04D2150E0101DF6FFF0EE06F800E38
:10045000EDEC92F0000E0101D96F640ED86F0DEC37
:1004600093F0000E0101D96F640ED86F0DEC93F07C
:10047000000E0101D96F640ED86F0DEC93F0000EE1
:100480000101D96F640ED86F0DEC93F0000E0101DD
:10049000D96F640ED86F0DEC93F0000E0101D96F87
:1004A000640ED86F0DEC93F0000E0101D96F640E4D
:1004B000D86F0DEC93F0000E0101D96F640ED86F68
:1004C0000DEC93F0000E0101D96F640ED86F0DECA6
:1004D00093F008EC8EF00101E86FE85100018B6F9A
:1004E0008C6B8BC0D8F18CC0D9F175EC95F0010103
:1004F000E86FE96B00018B510101E81905E100018A
:100500008C510101E919D8A441D1240E00016D6F6D
:100510004C0E6E6F8BC06FF0A0EC95F00A0E0001D0
:1005200081613DD08151D8B43AD0300E812781C04D
:100530006DF1A0EC95F0EF0E0101DF6FFF0EE06FA3
:10054000800EEDEC92F0850ED0EC94F001016D512F
:10055000C0EC94F0BF0E0101DF6FFF0EE06FC00E24
:10056000EDEC92F0010E0101D96F2C0ED86F0DEC5D
:1005700093F0010E0101D96F2C0ED86F0DEC93F0A2
:10058000010E0101D96F2C0ED86F0DEC93F0010E06
:100590000101D96F2C0ED86F0DEC93F009D1090E23
:1005A0000001816565D0640E816162D081C0D8F19F
:1005B0000101D96B000EDB6F0A0EDA6F11EC90F0BF
:1005C0000101D8510001A26F81C0D8F10101D96B9E
:1005D000000EDB6F0A0EDA6F91EC90F00101D8513A
:1005E0000001A16FA251300F0101576F0001A1510D
:1005F000300F0101586FA0EC95F0EF0E0101DF6F95
:10060000FF0EE06F800EEDEC92F0850ED0EC94F0D2
:1006100001015751C0EC94F0860ED0EC94F001012A
:100620005851C0EC94F0BF0E0101DF6FFF0EE06F78
:10063000C00EEDEC92F0010E0101D96F2C0ED86FB7
:100640000DEC93F0010E0101D96F2C0ED86F0DEC5B
:1006500093F0010E0101D96F2C0ED86F0DEC93F0C1
:10066000010E0101D96F2C0ED86F0DEC93F0A0D0C4
:10067000630E000181659CD081C0D8F10101D96B66
:10068000000EDB6F640EDA6F11EC90F00101D851AF
:100690000001A06F81C0D8F10101D96B000EDB6FA2
:1006A000640EDA6F91EC90F00101D85100019F6F58
:1006B0009FC0D8F10101D96B000EDB6F0A0EDA6F13
:1006C00011EC90F00101D8510001A16F9FC0D8F149
:1006D0000101D96B000EDB6F0A0EDA6F91EC90F01E
:1006E0000101D8510001A26FA051300F01012A6F02
:1006F0000001A151300F01012B6F0001A251300FF9
:1007000001012C6FA0EC95F0D00E0101DF6FFF0E00
:10071000E06F800EEDEC92F0850ED0EC94F00101CC
:100720002A51C0EC94F0860ED0EC94F001012B51CC
:10073000C0EC94F0870ED0EC94F001012C51C0EC89
:1007400094F0BF0E0101DF6FFF0EE06FC00EEDEC05
:1007500092F0010E0101D96F2C0ED86F0DEC93F0C1
:10076000010E0101D96F2C0ED86F0DEC93F0010E24
:100770000101D96F2C0ED86F0DEC93F0010E010121
:10078000D96F2C0ED86F0DEC93F012D0A0EC95F031
:10079000FC0E0101DF6FFD0EE06F800EEDEC92F0BC
:1007A000E70E0101DF6FFD0EE06FC00EEDEC92F081
:1007B000000E0101D96F640ED86F0DEC93F0000E9E
:1007C0000101D96F640ED86F0DEC93F0000E01019A
:1007D000D96F640ED86F0DEC93F0000E0101D96F44
:1007E000640ED86F0DEC93F0000E0101D96F640E0A
:1007F000D86F0DEC93F0000E0101D96F640ED86F25
:100800000DEC93F0000E0101D96F640ED86F0DEC62
:1008100093F0000E0101D96F640ED86F0DEC93F0C8
:10082000000E0101D96F640ED86F0DEC93F074D0F7
:10083000290E0101DF6FFF0EE06F800EEDEC92F0EC
:10084000400E00016D6F430E6E6F4B0E6F6F64D0E4
:100850008A0E0101DF6FFF0EE06F800EEDEC92F06B
:10086000770E0101DF6FFF0EE06FC00EEDEC92F02E
:10087000000E0101D96F640ED86F0DEC93F0000EDD
:100880000101D96F640ED86F0DEC93F0000E0101D9
:10089000D96F640ED86F0DEC93F0000E0101D96F83
:1008A000640ED86F0DEC93F0000E0101D96F640E49
:1008B000D86F0DEC93F0000E0101D96F640ED86F64
:1008C0000DEC93F0000E0101D96F640ED86F0DECA2
:1008D00093F0000E0101D96F640ED86F0DEC93F008
:1008E000000E0101D96F640ED86F0DEC93F014D097
:1008F00000019D51000AD8B4ABD7010AD8B46DD518
:10090000030AD8B481D5010AD8B48DD5070AD8B462
:1009100099D5010AD8B48CD700019D51D8B443D0E1
:100920008092E3EC8AF0000E0101D96F640ED86F5B
:100930000DEC93F0000E0101D96F640ED86F0DEC31
:1009400093F0000E0101D96F640ED86F0DEC93F097
:10095000000E0101D96F640ED86F0DEC93F0000EFC
:100960000101D96F640ED86F0DEC93F0000E0101F8
:10097000D96F640ED86F0DEC93F0000E0101D96FA2
:10098000640ED86F0DEC93F0000E0101D96F640E68
:10099000D86F0DEC93F0000E0101D96F640ED86F83
:1009A0000DEC93F0808200019551911903E196516D
:1009B0009219D8A4C7D0400EB219D8A4C3D0B3C0DE
:1009C00008F1B305D8A402D0310E16D0020E0001F2
:1009D000B319D8A402D0320E0FD0040E0001B319FF
:1009E000D8A402D0340E08D0080E0001B319D8A440
:1009F00002D0380E01D0300E0101976F8AEC93F0CF
:100A00003D0E0101DF6FFF0EE06F800EEDEC92F006
:100A1000250E0101DF6FFE0EE06FC00EEDEC92F0CF
:100A2000000E0101D96F0A0ED86F0DEC93F001ECA6
:100A30008DF0000E0101D96F640ED86F0DEC93F0AC
:100A4000000E0101D96F640ED86F0DEC93F0000E0B
:100A50000101D96F640ED86F0DEC93F0390E0101CE
:100A6000DF6FFE0EE06FC00EEDEC92F0000E0101A4
:100A7000D96F640ED86F0DEC93F0000E0101D96FA1
:100A8000640ED86F0DEC93F0000E0101D96F640E67
:100A9000D86F0DEC93F04D0E0101DF6FFE0EE06F8D
:100AA000C00EEDEC92F0000E0101D96F640ED86F0C
:100AB0000DEC93F0000E0101D96F640ED86F0DECB0
:100AC00093F0000E0101D96F640ED86F0DEC93F016
:100AD000610E0101DF6FFE0EE06FC00EEDEC92F0D3
:100AE000000E0101D96F640ED86F0DEC93F0000E6B
:100AF0000101D96F640ED86F0DEC93F0000E010167
:100B0000D96F640ED86F0DEC93F0890E0101DF6F81
:100B1000FE0EE06FC00EEDEC92F0000E0101D96FF9
:100B2000640ED86F0DEC93F0000E0101D96F640EC6
:100B3000D86F0DEC93F0000E0101D96F640ED86FE1
:100B40000DEC93F000019551911950E196519219D5
:100B5000D8A44CD0230EB219D8A448D0B3C081F089
:100B600081C0D8F10101D96B75EC95F000018119B4
:100B7000D8A412D08090230E6D6F450E6E6F81C089
:100B80006FF0010EA96F000E0101D96F320ED86F00
:100B90000CEC95F080801AD081C0D8F10101D96B9E
:100BA00081C0DAF16CEC93F08092230E00016D6F3E
:100BB0004F0E6E6F81C06FF0010EA86F000E010125
:100BC000D96F320ED86F0CEC95F080820001A90528
:100BD000D8A404D0000EA96FE3EC8AF00001A805A8
:100BE000D8A404D0000EA86FE3EC8AF00001955160
:100BF000911903E196519219D8A4A8EF80F0240E20
:100C0000B219D8A4A8EF80F0B3C081F0B4C082F0CC
:100C10008AEC93F0430E00018219D8A43CD10A0E4D
:100C200081613FD08151D8B43CD0300E812781C042
:100C30006DF1C9EC8FF0A0EC95F0EF0E0101DF6FC4
:100C4000FF0EE06F800EEDEC92F0850ED0EC94F08C
:100C500001016D51C0EC94F0E00E0101DF6FFF0E59
:100C6000E06FC00EEDEC92F0010E0101D96F2C0E79
:100C7000D86F0DEC93F0010E0101D96F2C0ED86FD7
:100C80000DEC93F0010E0101D96F2C0ED86F0DEC15
:100C900093F0010E0101D96F2C0ED86F0DEC93F07B
:100CA000FAD0090E0001816567D0640E816164D0BD
:100CB00081C0D8F10101D96B000EDB6F0A0EDA6F2B
:100CC00011EC90F00101D8510001A26F81C0D8F160
:100CD0000101D96B000EDB6F0A0EDA6F91EC90F018
:100CE0000101D8510001A16FA251300F0101576FCE
:100CF0000001A151300F0101586F81EC8FF0A0EC81
:100D000095F0EF0E0101DF6FFF0EE06F800EEDEC4E
:100D100092F0850ED0EC94F001015751C0EC94F0A4
:100D2000860ED0EC94F001015851C0EC94F0E00E26
:100D30000101DF6FFF0EE06FC00EEDEC92F0010ECF
:100D40000101D96F2C0ED86F0DEC93F0010E01014B
:100D5000D96F2C0ED86F0DEC93F0010E0101D96FF5
:100D60002C0ED86F0DEC93F0010E0101D96F2C0EF3
:100D7000D86F0DEC93F08FD0630E000181658BD09E
:100D800081C0D8F10101D96B000EDB6F640EDA6F00
:100D900011EC90F00101D8510001A06F81C0D8F191
:100DA0000101D96B000EDB6F640EDA6F91EC90F0ED
:100DB0000101D85100019F6F9FC0D8F10101D96B8B
:100DC000000EDB6F0A0EDA6F11EC90F00101D851C2
:100DD0000001A16F9FC0D8F10101D96B000EDB6F3C
:100DE0000A0EDA6F91EC90F00101D8510001A26F68
:100DF000A051300F01012A6F0001A151300F0101F4
:100E00002B6F0001A251300F01012C6F39EC8FF0D4
:100E1000A0EC95F0D00E0101DF6FFF0EE06F800EA9
:100E2000EDEC92F0850ED0EC94F001012A51C0EC6B
:100E300094F0860ED0EC94F001012B51C0EC94F0AC
:100E4000870ED0EC94F001012C51C0EC94F0E00E30
:100E50000101DF6FFF0EE06FC00EEDEC92F0010EAE
:100E60000101D96F2C0ED86F0DEC93F0010E01012A
:100E7000D96F2C0ED86F0DEC93F0010E0101D96FD4
:100E80002C0ED86F0DEC93F0010E0101D96F2C0ED2
:100E9000D86F0DEC93F0310E00018219D8A42DD03B
:100EA0007C51D8B407D00D0E7D19D8A403D07CC0D6
:100EB00042F119D07C51D8B409D00D0E7E19D8A4B6
:100EC00005D07CC042F17DC043F10DD07C51D8B437
:100ED0000AD00D0E7F19D8A406D07CC041F17DC088
:100EE00042F17EC043F1F1EC8EF0200E0101416F22
:100EF000200E426F200E436F2DD000017C51D8B4DC
:100F000007D00D0E7D19D8A403D07CC013F119D0E1
:100F10007C51D8B409D00D0E7E19D8A405D07CC060
:100F200013F17DC014F10DD07C51D8B40AD00D0E50
:100F30007F19D8A406D07CC012F17DC013F17EC009
:100F400014F159EC8DF0200E0101126F200E136F79
:100F5000200E146F00F0A0EC95F0B10E0101DF6FD0
:100F6000FE0EE06F800EEDEC92F0110E0101DF6FCE
:100F7000FE0EE06FC00EEDEC92F0A8EF80F0000ED8
:100F8000336E000E346E000E336E33500409336E30
:100F900033C027F0390EEFEC94F0030E286E000EEC
:100FA000276E1BEC92F0206E00F0000E346E7F0E68
:100FB000346401D06AD0920EF66EFD0EF76E000E0C
:100FC000F86E0800F5502E6E2F6A910EF66EFD0E2B
:100FD000F76E000EF86E0800F5502E26000E2F2238
:100FE000050E2E26000E2F223450306E316A2E5000
:100FF000305C3150800A326E2F50800A3258D8B09F
:1010000012D03450010DB60EF324D96E010EF42027
:10101000DA6E34500001C825276E000EC921286EF3
:101020001BEC92F0DF6E920EF66EFD0EF76E000E68
:10103000F86E0800F5502E6E2F6A910EF66EFD0EBA
:10104000F76E000EF86E0800F5502E26000E2F22C7
:10105000050E2E26000E2F223450306E316A2E508F
:10106000305C3150800A326E2F50800A3258D8A03E
:101070000AD034500001C825276E000EC921286E01
:101080001BEC92F01B6E342A92D7910EF66EFD0E79
:10109000F76E000EF86E0800F5502E6E2F6A010EE6
:1010A0002E26000E2F22B60E2E24D96E010E2F20D2
:1010B000DA6EDF500001B26F910EF66EFD0EF76E24
:1010C000000EF86E0800F5502E6E2F6A020E2E26C6
:1010D000000E2F22B60E2E24D96E010E2F20DA6EAE
:1010E000DF50B36F910EF66EFD0EF76E000EF86EC8
:1010F0000800F5502E6E2F6A030E2E26000E2F22AA
:10110000B60E2E24D96E010E2F20DA6EDF50B46F8A
:10111000910EF66EFD0EF76E000EF86E0800F5509B
:101120002E6E2F6A040E2E26000E2F22B60E2E24AF
:10113000D96E010E2F20DA6EDF50B56F910EF66E6C
:10114000FD0EF76E000EF86E0800F5502E6E2F6A39
:10115000050E2E26000E2F22B60E2E24D96E010E5D
:101160002F20DA6EDF50B66F910EF66EFD0EF76E21
:10117000000EF86E0800F5502E6E2F6A920EF66E75
:10118000FD0EF76E000EF86E0800F5502E26000ECC
:101190002F22030E2E26000E2F22B60E2E24D96EDD
:1011A000010E2F20DA6EDF501D6E910EF66EFD0ED1
:1011B000F76E000EF86E0800F5502E6E2F6A920E34
:1011C000F66EFD0EF76E000EF86E0800F5502E2636
:1011D000000E2F22040E2E26000E2F22B60E2E24D5
:1011E000D96E010E2F20DA6EDF501C6E000E336EAA
:1011F000000E336E33C027F0390EEFEC94F012007E
:10120000000E0101D96F000E00019E6F0A0E9E654F
:1012100001D022D09E51010D720EF324D96E000E22
:10122000F420DA6E9E51010D350EF324F66EFD0E9C
:10123000F420F76EF86A000EF822DE500900F51867
:10124000D8A403D00101D92B04D0000E0101D96F1D
:1012500003D000019E2BDAD70B0E0101D919D8A4B7
:1012600002D0010E1200000ED96F000E00019E6F19
:101270000A0E9E6501D022D09E51010D720EF324FC
:10128000D96E000EF420DA6E9E51010D280EF32463
:10129000F66EFD0EF420F76EF86A000EF822DE50AE
:1012A0000900F518D8A403D00101D92B04D0000EF1
:1012B0000101D96F03D000019E2BDAD70B0E01017B
:1012C000D919D8A404D0000ED96F020E1200000E56
:1012D000D96F000E00019E6F0A0E9E6501D022D0CC
:1012E0009E51010D720EF324D96E000EF420DA6EB9
:1012F0009E51010D1B0EF324F66EFD0EF420F76EC9
:10130000F86A000EF822DE500900F518D8A403D0C0
:101310000101D92B04D0000E0101D96F03D00001C7
:101320009E2BDAD70B0E0101D919D8A404D0000ED8
:10133000D96F030E1200000E00019E6F060E9E650F
:1013400001D022D09E51010D720EF324D96E000EF1
:10135000F420DA6E9E51010D610EF324F66EFD0E3F
:10136000F420F76EF86A000EF822DE500900F51836
:10137000D8A403D00101D92B04D0000E0101D96FEC
:1013800003D000019E2BDAD7070E0101D919D8A48A
:1013900004D0000ED96F040E1200000ED96F000E9B
:1013A00000019E6F0A0E9E6501D022D09E51010D54
:1013B000720EF324D96E000EF420DA6E9E51010DE8
:1013C0000E0EF324F66EFD0EF420F76EF86A000E92
:1013D000F822DE500900F518D8A403D00101D92B5A
:1013E00004D0000E0101D96F03D000019E2BDAD783
:1013F0000B0E0101D919D8A404D0000ED96F050E27
:101400001200000E12000101E16F1B0E0101E161EB
:1014100003D00B0EE161A2D00B0EE16F9FD0020E44
:10142000DB6F000EDA6F020EDC6FC8EC91F0C8D0F3
:10143000020E0101DB6F000EDA6F120EDC6FC8ECDA
:1014400091F0BED0020E0101DB6F000EDA6F220EAA
:10145000DC6FC8EC91F0B4D0020E0101DB6F000E1E
:10146000DA6F320EDC6FC8EC91F0AAD0020E0101E7
:10147000DB6F000EDA6F420EDC6FC8EC91F0A0D08B
:10148000020E0101DB6F000EDA6F520EDC6FC8EC4A
:1014900091F096D0020E0101DB6F000EDA6F620E42
:1014A000DC6FC8EC91F08CD0020E0101DB6F000EF6
:1014B000DA6F720EDC6FC8EC91F082D0020E01017F
:1014C000DB6F000EDA6F820EDC6FC8EC91F078D023
:1014D000020E0101DB6F000EDA6F920EDC6FC8ECBA
:1014E00091F06ED0020E0101DB6F000EDA6FA20EDA
:1014F000DC6FC8EC91F064D0020E0101DB6F000ECE
:10150000DA6FB20EDC6FC8EC91F05AD0020E010116
:10151000DB6F000EDA6FC20EDC6FC8EC91F050D0BA
:10152000020E0101DB6F000EDA6FD20EDC6FC8EC29
:1015300091F046D0020E0101DB6F000EDA6FE20E71
:10154000DC6FC8EC91F03CD0020E0101DB6F000EA5
:10155000DA6FF20EDC6FC8EC91F032D00101E1518C
:101560000B0AD8B45CD7070AD8B462D7010AD8B43A
:1015700069D7030AD8B470D7010AD8B477D71F0A3D
:10158000D8B47ED7010AD8B485D7030AD8B48CD78B
:10159000010AD8B493D7070AD8B49AD7010AD8B4A5
:1015A000A1D7030AD8B4A8D7010AD8B4AFD70F0A75
:1015B000D8B4B6D7010AD8B4BDD7030AD8B4C4D7B3
:1015C0002EEC94F01200000E0101E76F000EE66FA2
:1015D000910EF66EFD0EF76E000EF86E0800F5CF58
:1015E00060F0920EF66EFD0EF76E000EF86E0800BB
:1015F000F5CFE1F1910EF66EFD0EF76E000EF86E6E
:101600000800F550E1250001616F010E626F880E40
:10161000636FCAC064F0E6C065F0E5C066F0E7C07D
:1016200067F0E8C068F0C4C069F0C5C06AF0C6C021
:101630006BF0C7C06CF0000E0101E66F0D0E0001EB
:10164000AF6F020E0101E66501D018D00001AF5165
:10165000010D600EF324D96E000EF420DA6E010144
:10166000E651010DB70EF324E16E000EF420E26E98
:10167000DFCFE7FFE62B0001AF2BE3D7B70ED86F24
:10168000000ED96F030EDA6F8AEC92F0D8C193F096
:10169000D9C194F093C070F000019451716F000EA5
:1016A0000101E76F910EF66EFD0EF76E000EF86EFB
:1016B0000800F550E16FE26B920EF66EFD0EF76ECC
:1016C000000EF86E0800F550E127000EE223020E2E
:1016D000E127000EE223E751E36FE46BE151E35DA4
:1016E000E451800AE56FE251800AE559D8B020D074
:1016F000E751000197250101DA6F000E00019821E2
:101700000101DB6FE751010D600EF324D96E000E6D
:10171000F420DA6EDF50DC6FC8EC91F0000E0101AE
:10172000D96F0A0ED86F0CEC95F00101E72BBAD7F0
:1017300032EC95F027EC95F044EC92F01200FACFE1
:1017400037F0FBCF38F0E9CF39F0EACF3AF0E1CF0C
:101750003BF0E2CF3CF0D9CF3DF0DACF3EF0F3CF13
:101760003FF0F4CF40F0F6CF41F0F7CF42F0F8CFA2
:1017700043F0F5CF44F049C045F04AC046F04BC0B5
:1017800047F04CC048F0F2B8F2A220D0310EAFECD6
:1017900094F0236E23A618D0F29EBFEC87F0F28E51
:1017A000B20E256E000E266E030E276E2DEC93F002
:1017B00025C091F026C092F00001B651356EB551AA
:1017C000956F35C096F000F0F29237D09DBA9EAA80
:1017D00034D00350010D000EF324D96E020EF42014
:1017E000DA6EAECFDFFF240E02010019D8A40CD0B0
:1017F000050E0118D8B408D0032A0250035CD8A003
:1018000003D0000E0001A56F0A0E0118D8A408D05D
:10181000032A0250035CD8A003D0000E0001A56F7C
:10182000530E02010A19D8A407D04D0E0B19D8A4E3
:1018300003D0010E0001A46F9E9A48C04CF047C02F
:101840004BF046C04AF045C049F044C0F5FF43C0E4
:10185000F8FF42C0F7FF41C0F6FF40C0F4FF3FC0B1
:10186000F3FF3EC0DAFF3DC0D9FF3CC0E2FF3BC002
:10187000E1FF3AC0EAFF39C0E9FF38C0FBFF37C0DB
:10188000FAFF499211000101DC6F000E0101DD6FCA
:1018900051D0000EDD6FDD518009DD6FDD51DF0BB2
:1018A000DD6FDDC1DAF13A0E68EC94F0600E0101F3
:1018B000DA6F3F0E68EC94F01200000E0101DD6F4C
:1018C000DD514009DD6FDD517F0BDD6FDDC1DAF1E8
:1018D0003A0E68EC94F0000E0101DD6FDD5138091D
:1018E000DD6FDD51FB0BDD6FDDC1DAF13A0E68EC27
:1018F00094F01200000E0101DD6FDD51C009DD6FB3
:10190000DDC1DAF13A0E68EC94F0000E0101DD6FF2
:10191000DD513809DD6FDD51FB0BDD6FDDC1DAF123
:101920003A0E68EC94F0600E0101DA6F3F0E68EC3D
:1019300094F012000101DC51010AD8B4AAD7030ABD
:10194000D8B4BBD7010AD8A41200D4D70101010131
:1019500001010101302C302C302C30494420202052
:101960002020204C69676874202D2D3E3E204F4674
:10197000462E2049442000000020697320696E2013
:10198000456D657267656E63790D4944202020209E
:1019900020204C69676874202D2D3E3E204F4E005C
:1019A000494420000020697320696E20456D6572EE
:1019B00067656E63790D4944200020697320696E64
:1019C00020456D657267656E63790D41542B434DFB
:1019D00047533D2239343237383532303235220DD3
:1019E000307830302C307830302C307830302C302B
:1019F000783030415444393432373835323032352A
:101A00003B0D000E0101D96F020ED86F0DEC93F063
:101A1000CB0E0101DE6F000EDF6F0A0EE06F36ECB9
:101A200091F0000E0101D96F020ED86F0DEC93F00A
:101A30007F0E0101DE6F010EDF6F150EE06F36ECD9
:101A400091F0000E0101D96F020ED86F0DEC93F0EA
:101A5000930E0101DE6FFD0EDF6F250EE06F36EC99
:101A600091F0000E0101D96F020ED86F0DEC93F0CA
:101A7000940E0101DE6F010EDF6F130EE06F36EC86
:101A800091F0000E0101D96F020ED86F0DEC93F0AA
:101A9000E30E0101DE6F000EDF6F030EE06F36EC28
:101AA00091F0000E0101D96F020ED86F0DEC93F08A
:101AB0001200000E0101D96F020ED86F0DEC93F0E9
:101AC000CB0E0101DE6F000EDF6F0A0EE06F36EC09
:101AD00091F0000E0101D96F020ED86F0DEC93F05A
:101AE0007F0E0101DE6F010EDF6F150EE06F36EC29
:101AF00091F0000E0101D96F020ED86F0DEC93F03A
:101B00000F0E0101DE6F010EDF6F180EE06F36EC75
:101B100091F0000E0101D96F020ED86F0DEC93F019
:101B2000B80E0101DE6FFD0EDF6F200EE06F36ECA8
:101B300091F0000E0101D96F020ED86F0DEC93F0F9
:101B4000E30E0101DE6F000EDF6F030EE06F36EC77
:101B500091F0000E0101D96F020ED86F0DEC93F0D9
:101B60001200A0EC95F09D0E0101DF6FFF0EE06FFB
:101B7000C00EEDEC92F0010E0001A56F000E036E99
:101B800005EC94F0050E026ED80E0101DE6FFD0E1D
:101B9000DF6F0C0EE06F9DEC91F00001A551D8A411
:101BA000FCD7010E0101D96F2C0ED86F0DEC93F00C
:101BB000000E0101D96F010ED86F0DEC93F005EC0A
:101BC00094F0AE0E0101DF6FFF0EE06FC00EEDEC82
:101BD00092F0010E0101D96F2C0ED86F0DEC93F02D
:101BE000010E0101D96F2C0ED86F0DEC93F0010E90
:101BF0000101D96F2C0ED86F0DEC93F0010E01018D
:101C0000D96F2C0ED86F0DEC93F0A0EC95F012006C
:101C1000000E0101DC6F000EDB6F000ED96F000EAD
:101C2000DA6F00017C51D8B40BD00D0E7D19D8A409
:101C300007D07C51D00F0101DC6FDCC1DAF13AD062
:101C400000017C51D8B414D00D0E7E19D8A410D048
:101C50007C51D00F0101DC6F00017D51D00F0101DB
:101C6000DB6FDC510A0DF3CFDCF1DC51DB2521D039
:101C700000017C51D8B41ED00D0E7F19D8A41AD003
:101C80007C51D00F0101DC6F00017D51D00F0101AB
:101C9000DB6F00017E51D00F0101D96FDB510A0DBE
:101CA000F3CFD8F1DC51640DF350D825DC6FDC5153
:101CB000D925DA6F0101DA511200980E0101DA6FAD
:101CC000180E68EC94F0950E0101DA6F2E0E68EC98
:101CD00094F0020E0101DB6F010EDA6F010EDC6F72
:101CE000C8EC91F03DEC95F0020E0101DB6F060EA1
:101CF000DA6F900EDC6FC8EC91F0020E0101DB6F21
:101D0000070EDA6F800EDC6FC8EC91F0020E010155
:101D1000DB6F080EDA6F100EDC6FC8EC91F0020E6C
:101D20000101DA6F110E68EC94F0020E0101DB6F15
:101D3000200EDA6F210EDC6FC8EC91F0020E01016B
:101D4000DB6F2F0EDA6F0F0EDC6FC8EC91F0120014
:101D50000101DC6F000E0101DD6F34D0000EDD6F7C
:101D6000000EDD6FDDC1DAF10D0E68EC94F01200AB
:101D7000000E0101DD6F000EDD6FDD510809DD6F22
:101D8000DDC1DAF10D0E68EC94F01200000E0101D5
:101D9000DD6F000EDD6FDD510409DD6FDDC1DAF1AD
:101DA0000D0E68EC94F01200000E0101DD6F000EC4
:101DB000DD6FDD510209DD6FDDC1DAF10D0E68EC7A
:101DC00094F012000101DC51010AD8B4C7D7030A0C
:101DD000D8B4CED7010AD8B4D9D7070AD8A41200EC
:101DE000E3D7000E0101D96F020ED86F0DEC93F00E
:101DF000CB0E0101DE6F000EDF6F0A0EE06F36ECD6
:101E000091F0000E0101D96F020ED86F0DEC93F026
:101E10007F0E0101DE6F010EDF6F150EE06F36ECF5
:101E200091F0000E0101D96F020ED86F0DEC93F006
:101E30003E0E0101DE6F010EDF6F160EE06F36EC15
:101E400091F0000E0101D96F020ED86F0DEC93F0E6
:101E5000E30E0101DE6F000EDF6F030EE06F36EC64
:101E600091F0000E0101D96F020ED86F0DEC93F0C6
:101E70001200000E0101D96F020ED86F0DEC93F025
:101E8000CB0E0101DE6F000EDF6F0A0EE06F36EC45
:101E900091F0000E0101D96F020ED86F0DEC93F096
:101EA0007F0E0101DE6F010EDF6F150EE06F36EC65
:101EB00091F0000E0101D96F020ED86F0DEC93F076
:101EC000270E0101DE6F010EDF6F170EE06F36EC9B
:101ED00091F0000E0101D96F020ED86F0DEC93F056
:101EE000E30E0101DE6F000EDF6F030EE06F36ECD4
:101EF00091F0000E0101D96F020ED86F0DEC93F036
:101F00001200000E0101D96F020ED86F0DEC93F094
:101F1000CB0E0101DE6F000EDF6F0A0EE06F36ECB4
:101F200091F0000E0101D96F020ED86F0DEC93F005
:101F30007F0E0101DE6F010EDF6F150EE06F36ECD4
:101F400091F0000E0101D96F020ED86F0DEC93F0E5
:101F5000540E0101DE6F010EDF6F160EE06F36ECDE
:101F600091F0000E0101D96F020ED86F0DEC93F0C5
:101F7000E30E0101DE6F000EDF6F030EE06F36EC43
:101F800091F0000E0101D96F020ED86F0DEC93F0A5
:101F90001200000E0101D96F020ED86F0DEC93F004
:101FA000CB0E0101DE6F000EDF6F0A0EE06F36EC24
:101FB00091F0000E0101D96F020ED86F0DEC93F075
:101FC0007F0E0101DE6F010EDF6F150EE06F36EC44
:101FD00091F0000E0101D96F020ED86F0DEC93F055
:101FE0006A0E0101DE6F010EDF6F150EE06F36EC39
:101FF00091F0000E0101D96F020ED86F0DEC93F035
:10200000E30E0101DE6F000EDF6F030EE06F36ECB2
:1020100091F0000E0101D96F020ED86F0DEC93F014
:102020001200000E0101DD6FDBAF06D0DA6DDB1FA1
:10203000D8B0DB2B010EDD6FD9AF06D0D86DD91F1C
:10204000D8B0D92B010EDD1B000EDF6F000EDE6F46
:10205000DA51DB11D8B41CD0010EDC6F04D0D8905B
:10206000DA37DB37DC2BDBAFFAD7D890DE37DF3758
:10207000DA51D85DDB51D959D8A005D0DA51D85FF3
:10208000DB51D95BDE81D890DB33DA33DC2FEDD73F
:10209000DD51D8B404D0DE6DDF1FD8B0DF2BDEC138
:1020A000D8F1DFC1D9F112004C0EF66E190EF76EA1
:1020B000010EF86E01EE00F010EEB6F00900F5CF5B
:1020C000EEFFE550E150FAE17E0EF66E270EF76E58
:1020D000010EF86E00EEBAF010EE2FF00900F5CF09
:1020E000EEFFE550E150FAE102EE00F0640EEE6A18
:1020F000E806FDE101EEB6F0220EEE6AE806FDE12B
:1021000000EE60F05A0EEE6AE806FDE100EE01F026
:10211000240EEE6AE806FDE149904992000100EFC5
:1021200080F0000E0101DD6FD9AF06D0D86DD91F48
:10213000D8B0D92B010EDD6FDBAF04D0DA6DDB1F19
:10214000D8B0DB2BDA51DB11D8B418D0010EDC6F1C
:1021500004D0D890DA37DB37DC2BDBAFFAD7DA5193
:10216000D85DDB51D959D8A004D0DA51D85FDB5102
:10217000D95BD890DB33DA33DC2FF1D7DD51D8B41B
:1021800004D0D86DD91FD8B0D92BD8C1D8F1D9C1B6
:10219000D9F112000101DC6F000E0101DD6F26D0C4
:1021A000000EDD6F000EDD6FDDC1DAF1000E68ECB0
:1021B00094F01200000E0101DD6F000EDD6FDD51A5
:1021C0000209DD6FDDC1DAF1000E68EC94F0120057
:1021D000000E0101DD6F000EDD6FDD510109DD6FC5
:1021E000DDC1DAF1000E68EC94F012000101DC515F
:1021F000010AD8B4D5D7030AD8B4DCD7010AD8A4C9
:102200001200E6D705EC94F0010E0001A56F000E58
:10221000036E050E026EE40E0101DE6FFD0EDF6F30
:10222000030EE06F9DEC91F00001A551D8A4FCD7FE
:1022300005EC94F0010E0001A56F000E036E050E73
:10224000026ECB0E0101DE6F000EDF6F0A0EE06F33
:1022500036EC91F00001A551D8A4FCD700F005ECB4
:1022600094F0B1EC8DF0A0EC95F01200000E01019D
:10227000E46F000EE36F000EE46F27D0E451010D10
:10228000DEC1E1F1DFC1E2F1F350E127F450E223D6
:10229000E1C1F6FFE2C1F7FF000EF86E0F0EF76422
:1022A00003D00800F55005D0F6CFE9FFF7CFEAFFDD
:1022B000EF50AD6E9EA8FED7000E0101D96F320E11
:1022C000D86F0DEC93F00101E42BE051E45DD8B040
:1022D0001200D4D7140EAF6EAC8400F000F000F002
:1022E000AC9800F000F000F0AC9C00F000F000F0C2
:1022F000AB8E00F000F000F0AB8800F000F000F0D2
:10230000AC8A00F000F000F09D9800F000F000F0C2
:102310009D8A00F000F000F0F28E00F000F000F076
:10232000F28C00F000F000F0948E00F000F000F06D
:10233000949C00F000F000F01200000E0101E46F28
:10234000000EE36F000EE46F1ED0E451010DDEC1FC
:10235000E1F1DFC1E2F1F350E127F450E223E1C102
:10236000F6FFE2C1F7FF000EF86E0800F5CFADFFF3
:102370009EA8FED7000E0101D96F320ED86F0DEC6A
:1023800093F00101E42BE051E45DD8B01200DDD7F9
:10239000000E0101DF6F000EE06F8290DAC1DDF107
:1023A000DBC1DEF1D890DE33DD33D890DE33DD33B0
:1023B000D890DE33DD33DD517F0B8009DF6FDA39F2
:1023C000E846E00BE00B1009E06FDF5163EC95F09D
:1023D0000101E05163EC95F00101DC5163EC95F0F3
:1023E00082801200380ED0EC94F0000E0101D96FFB
:1023F0000A0ED86F0DEC93F00E0ED0EC94F0000E98
:102400000101D96F0A0ED86F0DEC93F0010ED0ECDC
:1024100094F0000E0101D96F0A0ED86F0DEC93F005
:10242000800ED0EC94F0000E0101D96F0A0ED86F27
:102430000DEC93F01200000E2B6E000E2C6E000EB1
:102440002D6E829027C029F028C02AF0D8902A3219
:102450002932D8902A322932D8902A32293229506A
:102460007F0B80092C6E2738E846E00BE00B2D6EC1
:102470002C507EEC95F02D507EEC95F086EC95F08E
:102480002B6E82802B501200000E0001B16FB151F3
:102490000109B16FB1C0DAF11B0E68EC94F0000EC7
:1024A0000001B16F310E1AEC94F0E806D8A4FAD707
:1024B000310E1AEC94F00001B16F00F0000E000133
:1024C000B16F240E1AEC94F00001B16F00F012000D
:1024D000000E8D6E000E8C6E0F0E896E100E8E6EBD
:1024E000000E8A6E000E8F6E030E8B6E000E966EBF
:1024F000E00E976EC00E926E1F0E986E9368FC0EE3
:10250000946E9568200E0F01256F0C0E246F0F0E30
:10251000236F12008D0E0101DD6F0D0EDC6F000EBA
:10252000DF6F000EDE6F0AD0D8C1D9FFD9C1DAFF44
:10253000DF50DB6FDB51DC1BD84BD92BDA07DA29F4
:10254000D8A4F2D7DCC1DEF1DDC1DFF1DEC1D8F104
:10255000DFC1D9F112000101E26F1F0E0101E26536
:1025600002D01F0EE26FE25100081F0FE26FE2C1BE
:10257000E1F11F0EE117D890E137D890E137D890FC
:10258000E135F80BE26F020EDB6F030EDA6FE2C18A
:10259000DCF1C8EC91F012000101DC6F000E0101CA
:1025A000DD6F12D0000EDD6FDD518009DD6FDDC102
:1025B000DAF13E0E68EC94F01200400E0101DA6F81
:1025C0003E0E68EC94F012000101DC51010AD8B40F
:1025D000E9D7030AD8A41200F0D70101E16F010185
:1025E000E151D0EC94F00DD0DFC1F6FFE0C1F7FF70
:1025F000000EF86E0800F550C0EC94F00101DF4BBE
:10260000E02BDFC1F6FFE0C1F7FF000EF86E080017
:10261000F5500009D8B41200E7D7000E0101DB6FB6
:10262000000EDA6F11D0000EDD6F000EDC6FDDBF23
:1026300006D0F50EDC5D010EDD59D8B003D0DC4BC1
:10264000DD2BF5D7DA4BDB2BD851DA5DD951DB59CD
:10265000D8A0E9D700F000F012008D0E2A6E0D0E02
:10266000296E000E2C6E000E2B6E0AD025C0D9FFED
:1026700026C0DAFFDF50286E2850291A254A262A5C
:1026800027062728D8A4F2D729C02BF02AC02CF07F
:102690002BC025F02CC026F01200000E0101DC6FCB
:1026A000000EDC6FDC510809DC6FDCC1DAF1000ED2
:1026B00068EC94F0000E0101DC6FDC51DF0BDC6F85
:1026C000DCC1DAF1110E68EC94F0FF0E0101DA6F53
:1026D000100E68EC94F01200000E0101DB6FD8C1FF
:1026E00062FFDAC161FF7F9E7F9C7F84000EF2BE95
:1026F000010EDB6FF29E550E7E6EAA0E7E6E7F82FD
:102700007FB2FED70101DBB102D0F29E01D0F28E82
:102710007F941200000E0101D96F000ED86F000ED9
:10272000D96F000ED86FD9510FE1060ED85DD8B021
:102730001200B20ED825D96E000ED921DA6E000E25
:10274000DF6ED84BD92BEFD71200000E0101DE6FE0
:10275000000EDE6F070EDE6501D01200DE51010DA6
:10276000F350DC25D96EF450DD21DA6EDF50DA6FDC
:10277000DE51050F68EC94F00101DE2BEBD74865C4
:102780006C6C6F0D4154480D03030101000323419C
:10279000542B434D47463D310D0202020202020214
:0D27A000024154434C430D1A0D0303020285
:1027AE00DCC1D9FFDDC1DAFFDF500101DA6F030EA4
:1027BE0068EC94F0010120EE01F0DC51D926DD51D8
:1027CE00DA22DF50DA6F040E68EC94F01200DCC1EE
:1027DE00D9FFDDC1DAFFDF500101DA6F010E68ECBF
:1027EE0094F0010120EE01F0DC51D926DD51DA2200
:1027FE00DF50DA6F020E68EC94F01200000E010149
:10280E00D86F000ED86F630ED86501D01200D85164
:10281E00010D000EF324D96E020EF420DA6EFF0EB7
:10282E00DF6ED82BF0D70101DB6F000E0101DA6FDE
:10283E008290DB51DB257E0BDB6FDB5163EC95F079
:10284E0051EC95F00101DA6F8280DA511200040E1C
:10285E000101DA6F360E68EC94F0000E0101DA6FAA
:10286E00360E68EC94F0000E0101D96F140ED86F7D
:10287E000CEC95F01200F29424C0D6FF0001994B97
:10288E009A2B9A5104E10A0E995DD8A012008CEC95
:10289E0094F0000E00019A6F000E996F12005DEC1D
:1028AE008EF0010E43EC8CF0020ECCEC92F08EEC1E
:1028BE0095F00F0E03EC8AF05AEC95F02EEC94F096
:1028CE0012000101DB6F82900101DB51DB257F0BD2
:1028DE000109DB6FDB5163EC95F00101DA5163EC1A
:1028EE0095F082801200C690C692C694C696949AAF
:1028FE009496C68AC78EC698C78C000E0101D96FF2
:10290E000A0ED86FE0EC94F012000001855186118A
:10291E008711D8B4120001D812000500FA6E855145
:10292E00FD6E8651FE6E8751FF6EFA501200829236
:10293E00000E0101D96F0A0ED86F0CEC95F0828251
:10294E00000E0101D96F0A0ED86F0CEC95F0120033
:10295E00276E000E286E8290275027247E0B276E3E
:10296E0027507EEC95F086EC95F0286E82802850EC
:10297E0012000101DE6FDEC184FF858200F08586C4
:10298E00000E0101D96F050ED86F0DEC93F08596F0
:10299E0012000101DE6FDEC184FF859200F0858694
:1029AE00000E0101D96F050ED86F0DEC93F08596D0
:1029BE001200000E0101DB6F000EDA6F02D0DA4B4F
:1029CE00DB2BD851DA5DD951DB59D8B01200F7D7CD
:1029DE00286E8290285028247F0B0109286E2850DB
:1029EE007EEC95F027507EEC95F082801200859853
:1029FE00600E0101DA6F0D0E68EC94F0800E01018D
:102A0E00DA6F220E68EC94F01200000E0101DB6FFB
:102A1E00000EDA6FD84BD92B100ED85D270ED95970
:102A2E00D8B01200F7D7F292F19C000E0101D86FC8
:102A3E00000ED96F000EDA6F95EC95F0F288120049
:102A4E00000E0101DC6F000EDC6FDCC1DAF11B0E33
:102A5E0068EC94F01200000E0101DC6F000EDC6FCA
:102A6E00DCC1DAF11B0E68EC94F01200020E0101CB
:102A7E00DB6F020EDA6F800EDC6FC8EC91F0120085
:102A8E00600ED36E000E646E000E9B6E000E0F0174
:102A9E002A6F1200C968C7A0FED7C9CFD8F19E967B
:102AAE000101D85112008588000E0101D96F0A0E5E
:102ABE00D86F0CEC95F012000101D96FD9C1C9FF86
:102ACE00C7A0FED7C9CFD8F11200A4EC95F068ECE0
:102ADE0092F047EC95F01AEC95F01200D8C162FF17
:102AEE007F9C7F9E7F8000F000F061501200266E6A
:102AFE0026C0C9FFC7A0FED7C9CF25F01200C968EE
:102B0E00C7A0FED7C9CF25F09E9625501200F70E0E
:102B1E000101DA6F320E68EC94F01200D8C188F021
:102B2E00D9C189F0DAC18AF012000C0ED0EC94F003
:102B3E001200010ED0EC94F01200D08EF19412001F
:022B4E00120073
:020000040020DA
:08000000FFFFFFFFFFFFFFFF00
:020000040030CA
:0E00000015137F7C018991FFFFC0FFE0FF40D8
:00000001FF
