:0400000062EF00F0BB
:100008004F82FACF39F0FBCF3AF0E9CF3BF0EACF95
:100018003CF0E1CF3DF0E2CF3EF0D9CF3FF0DACF70
:1000280040F0F3CF41F0F4CF42F0F6CF43F0F7CFF2
:1000380044F0F8CF45F0F5CF46F04FC047F050C038
:1000480048F051C049F052C04AF0F2BAF2A40BD0BD
:100058000D2A140E0D6404D093EC0AF0000E0D6EF8
:10006800A0EC0DF005D0F2B8F2A202D08EEC0EF0A2
:100078004AC052F049C051F048C050F047C04FF054
:1000880046C0F5FF45C0F8FF44C0F7FF43C0F6FF80
:1000980042C0F4FF41C0F3FF40C0DAFF3FC0D9FFC0
:1000A8003EC0E2FF3DC0E1FF3CC0EAFF3BC0E9FFC4
:1000B8003AC0FBFF39C0FAFF4F921100B0EF0BF0C6
:10100000000B05000001C66F1B0E0001C66103D076
:101010000B0EC661A2D00B0EC66F9FD0020EC06F22
:10102000000EBF6F020EC16FE0EC0BF0C8D0020ED5
:101030000001C06F000EBF6F120EC16FE0EC0BF02D
:10104000BED0020E0001C06F000EBF6F220EC16F36
:10105000E0EC0BF0B4D0020E0001C06F000EBF6FC9
:10106000320EC16FE0EC0BF0AAD0020E0001C06F8F
:10107000000EBF6F420EC16FE0EC0BF0A0D0020E6D
:101080000001C06F000EBF6F520EC16FE0EC0BF09D
:1010900096D0020E0001C06F000EBF6F620EC16FCE
:1010A000E0EC0BF08CD0020E0001C06F000EBF6FA1
:1010B000720EC16FE0EC0BF082D0020E0001C06F27
:1010C000000EBF6F820EC16FE0EC0BF078D0020E05
:1010D0000001C06F000EBF6F920EC16FE0EC0BF00D
:1010E0006ED0020E0001C06F000EBF6FA20EC16F66
:1010F000E0EC0BF064D0020E0001C06F000EBF6F79
:10110000B20EC16FE0EC0BF05AD0020E0001C06FBE
:10111000000EBF6FC20EC16FE0EC0BF050D0020E9C
:101120000001C06F000EBF6FD20EC16FE0EC0BF07C
:1011300046D0020E0001C06F000EBF6FE20EC16FFD
:10114000E0EC0BF03CD0020E0001C06F000EBF6F50
:10115000F20EC16FE0EC0BF032D00001C6510B0A69
:10116000D8B45CD7070AD8B462D7010AD8B469D713
:10117000030AD8B470D7010AD8B477D71F0AD8B4F5
:101180007ED7010AD8B485D7030AD8B48CD7010A10
:10119000D8B493D7070AD8B49AD7010AD8B4A1D73C
:1011A000030AD8B4A8D7010AD8B4AFD70F0AD8B465
:1011B000B6D7010AD8B4BDD7030AD8B4C4D742EC15
:1011C0000DF01200000E0001CC6F000ECB6F010E6F
:1011D000F66E100EF76E000EF86E0800F5CF75F083
:1011E000020EF66E100EF76E000EF86E0800F5CFC8
:1011F000C6F0010EF66E100EF76E000EF86E0800C7
:10120000F550C625766F010E776F880E786F4DC04A
:1012100079F0BAC07AF0B9C07BF0BBC07CF0BCC03A
:101220007DF0ADC07EF0AEC07FF0AFC080F0B0C04A
:1012300081F0000ECB6F0D0E266E020ECB6501D035
:1012400015D02650010D750EF324D96E000EF42032
:10125000DA6ECB51010DA20EF324E16E000EF420E4
:10126000E26EDFCFE7FFCB2B262AE7D7A20EBD6FBA
:10127000000EBE6F030EBF6F2CEC0CF0BDC09CF0D7
:10128000BEC09DF09CC085F000019D51866F000E90
:10129000CC6F010EF66E100EF76E000EF86E0800A1
:1012A000F550C66FC76B020EF66E100EF76E000E8D
:1012B000F86E0800F550C627000EC723020EC62799
:1012C000000EC723CC51C86FC96BC651C85DC95148
:1012D000800ACA6FC751800ACA59D8B01CD0CC51F5
:1012E000A025BF6F000EA121C06FCC51010D750E5E
:1012F000F324D96E000EF420DA6EDF50C16FE0ECFB
:101300000BF0000E0001BE6F0A0EBD6F04EC0EF074
:101310000001CC2BBED729EC0EF01EEC0EF08FECAA
:101320000CF0120034EC0EF0000E0001BE6F640EE3
:10133000BD6F04EC0EF0000E0001BE6F640EBD6FB9
:1013400004EC0EF0000E0001BE6F640EBD6F04ECE5
:101350000EF0000E0001BE6F640EBD6F04EC0EF0C7
:1013600034EC0EF08EEC0DF0000E0001BE6F0A0E94
:10137000BD6F04EC0EF0D6EC0DF042EC0DF0F6EC87
:101380000DF0B10E0001C16F000EC26FCDEC0CF07C
:10139000BB0E0001C16F000EC26F00EC0DF0B90E64
:1013A0000001C16F000EC26F17EC0DF06AEC0DF07A
:1013B000AEEC0CF01F0E4DEC0CF0010E2FEC0BF010
:1013C000010E78EC0BF05CEC0EF0010E366E010EA7
:1013D000356E000E0001BE6F0A0EBD6F04EC0EF0FC
:1013E000010E1D6EF28EF28CF28C80860804D8A459
:1013F0000BD080902A0E0001826F010E836F010EC8
:10140000846FE2EC08F0F2D70704D8A40BD08090E8
:101410002A0E0001826F020E836F010E846FE2ECD0
:1014200008F0E4D70604D8A40BD080902A0E00015F
:10143000826F030E836F010E846FE2EC08F0D6D743
:101440000504D8A40BD080902A0E0001826F040EF0
:10145000836F010E846FE2EC08F0C8D78080C6D796
:101460000001C16F000E0001C26F51D0000EC26FAB
:10147000C2518009C26FC251DF0BC26FC2C0BFF040
:101480003A0E7CEC0DF0600E0001BF6F3F0E7CEC5D
:101490000DF01200000E0001C26FC2514009C26F70
:1014A000C2517F0BC26FC2C0BFF03A0E7CEC0DF090
:1014B000000E0001C26FC2513809C26FC251FB0B4E
:1014C000C26FC2C0BFF03A0E7CEC0DF01200000EED
:1014D0000001C26FC251C009C26FC2C0BFF03A0E54
:1014E0007CEC0DF0000E0001C26FC2513809C26FD2
:1014F000C251FB0BC26FC2C0BFF03A0E7CEC0DF0C4
:10150000600E0001BF6F3F0E7CEC0DF01200000179
:10151000C151010AD8B4AAD7030AD8B4BBD7010A6B
:10152000D8A41200D4D7000E386E83CF38F038A07C
:1015300002D00C2A08D0020E0818D8B404D0000E2D
:101540000C6E000E086E38A202D00B2A08D0020ED4
:101550000718D8B404D0000E0B6E000E076E38A426
:1015600002D00A2A08D0020E0618D8B404D0000E01
:101570000A6E000E066E38A602D0092A08D0020EA6
:101580000518D8B404D0000E096E000E056E0A0EC0
:101590000C6404D0010E086E000E0C6E0A0E0B6473
:1015A00004D0010E076E000E0B6E0A0E0A6404D002
:1015B000010E066E000E0A6E0A0E09641200010E7C
:1015C000056E000E096E1200980E0001BF6F180E16
:1015D0007CEC0DF0950E0001BF6F2E0E7CEC0DF033
:1015E000020E0001C06F010EBF6F010EC16FE0EC73
:1015F0000BF03FEC0EF0020E0001C06F060EBF6F45
:10160000900EC16FE0EC0BF0020E0001C06F070EF0
:10161000BF6F800EC16FE0EC0BF0020E0001C06FD7
:10162000080EBF6F100EC16FE0EC0BF0020E000150
:10163000BF6F110E7CEC0DF0020E0001C06F200E8A
:10164000BF6F210EC16FE0EC0BF0020E0001C06F06
:101650002F0EBF6F0F0EC16FE0EC0BF012000001F8
:10166000C16F000E0001C26F34D0000EC26F000EB9
:10167000C26FC2C0BFF00D0E7CEC0DF01200000E68
:101680000001C26F000EC26FC2510809C26FC2C012
:10169000BFF00D0E7CEC0DF01200000E0001C26FC9
:1016A000000EC26FC2510409C26FC2C0BFF00D0E5E
:1016B0007CEC0DF01200000E0001C26F000EC26F34
:1016C000C2510209C26FC2C0BFF00D0E7CEC0DF01A
:1016D00012000001C151010AD8B4C7D7030AD8B417
:1016E000CED7010AD8B4D9D7070AD8A41200E3D7B5
:1016F0000001C16F000E0001C26F26D0000EC26F44
:10170000000EC26FC2C0BFF0000E7CEC0DF01200E4
:10171000000E0001C26F000EC26FC2510209C26FFB
:10172000C2C0BFF0000E7CEC0DF01200000E0001F4
:10173000C26F000EC26FC2510109C26FC2C0BFF0BA
:10174000000E7CEC0DF012000001C151010AD8B46A
:10175000D5D7030AD8B4DCD7010AD8A41200E6D73B
:10176000240EF66E1C0EF76E000EF86E00EEA5F05D
:1017700010EE18F00900F5CFEEFFE550E150FAE168
:10178000240EF66E1D0EF76E000EF86E0900F5CFF2
:101790004BF00900F5CF4CF00900F5CF4DF000EE0D
:1017A00060F0450EEE6AE806FDE100EE01F0370E4E
:1017B000EE6AE806FDE14F904F92000192EF09F0CA
:1017C000000E0001C46F000EC56F8290BFC0C2F052
:1017D000C0C0C3F0D890C333C233D890C333C23330
:1017E000D890C333C233C2517F0B8009C46FBF3955
:1017F000E846E00BE00B1009C56FC45165EC0EF034
:101800000001C55165EC0EF00001C15165EC0EF010
:1018100082801200000E8D6E000E8C6E0F0E896E8F
:10182000100E8E6E000E8A6E000E8F6E030E8B6E83
:10183000000E966EE00E976EC00E926E1F0E986EA2
:101840009368FC0E946E9568200E0F01256F0C0EA8
:10185000246F0F0E236F12008D0E0001C26F0D0E4C
:10186000C16F000EC46F000EC36F0AD0BDC0D9FF98
:10187000BEC0DAFFDF50C06FC051C11BBD4BBE2BD5
:10188000BF07BF29D8A4F2D7C1C0C3F0C2C0C4F0FB
:10189000C3C0BDF0C4C0BEF012000001C76F1F0E70
:1018A0000001C76502D01F0EC76FC75100081F0F88
:1018B000C76FC7C0C6F01F0EC617D890C637D890DE
:1018C000C637D890C635F80BC76F020EC06F030E2F
:1018D000BF6FC7C0C1F0E0EC0BF012000001C16F98
:1018E000000E0001C26F12D0000EC26FC2518009FB
:1018F000C26FC2C0BFF03E0E7CEC0DF01200400E75
:101900000001BF6F3E0E7CEC0DF012000001C151D2
:10191000010AD8B4E9D7030AD8A41200F0D7000E00
:10192000336E33500109336E33C0BFF01B0E7CECB5
:101930000DF0000E336E310E2EEC0DF0E806D8A43B
:10194000FAD7310E2EEC0DF0336E00F0000E336E30
:10195000240E2EEC0DF0336E00F01200000E00018C
:10196000C16F000EC16FC1510809C16FC1C0BFF086
:10197000000E7CEC0DF0000E0001C16FC151DF0BB9
:10198000C16FC1C0BFF0110E7CEC0DF0FF0E000165
:10199000BF6F100E7CEC0DF01200000E0001C36F43
:1019A000000EC36F070EC36501D01200C351010DB5
:1019B000F350C125D96EF450C221DA6EDF50BF6FEB
:1019C000C351050F7CEC0DF00001C32BEBD7F09059
:1019D000F18A000E0001BD6F000EBE6F000EBF6FDA
:1019E0007CEC0EF0F086F292F19C2A0E0001BD6FA5
:1019F0001D0EBE6F000EBF6F83EC0EF0F28812005A
:101A0000C1C0D9FFC2C0DAFFDF500001BF6F030EB3
:101A10007CEC0DF0000120EE01F0C151D926C2513D
:101A2000DA22DF50BF6F040E7CEC0DF01200C1C053
:101A3000D9FFC2C0DAFFDF500001BF6F010E7CEC9E
:101A40000DF0000120EE01F0C151D926C251DA2279
:101A5000DF50BF6F020E7CEC0DF012000001C06F72
:101A6000000E0001BF6F8290C051C0257E0BC06F79
:101A7000C05165EC0EF053EC0EF00001BF6F828098
:101A8000BF511200040E0001BF6F360E7CEC0DF04A
:101A9000000E0001BF6F360E7CEC0DF0000E000151
:101AA000BE6F140EBD6F04EC0EF01200000ED76E68
:101AB000020ED66E020E4E6EF294F28A280E0001CD
:101AC000BD6F1D0EBE6F000EBF6F75EC0EF0D70E12
:101AD000D56E1200E4EC0AF0010E30EC0AF0020EB2
:101AE0006EEC0CF06EEC0EF00F0E02EC08F05CECFD
:101AF0000EF042EC0DF012000001C06F8290000168
:101B0000C051C0257F0B0109C06FC05165EC0EF0BC
:101B10000001BF5165EC0EF082801200C690C692A3
:101B2000C694C696949A9496C68AC78EC698C78C51
:101B3000000E0001BE6F0A0EBD6FE7EC0DF0120043
:101B4000F2944EC0D6FF014A022A025004E1980ED8
:101B5000015CD8A01200B2EC0DF0000E026E000E77
:101B6000016E12000001CD51CE11CF11D8B4120078
:101B700001D812000500FA6ECD51FD6ECE51FE6EF9
:101B8000CF51FF6EFA5012000001D051D111D21185
:101B9000D8B4120001D812000500FA6ED051FD6EC3
:101BA000D151FE6ED251FF6EFA5012008292000E99
:101BB0000001BE6F0A0EBD6F04EC0EF08282000EB3
:101BC0000001BE6F0A0EBD6F04EC0EF01200000E95
:101BD0000001C06F000EBF6F02D0BF4BC02BBD51C4
:101BE000BF5DBE51C059D8B01200F7D78598600EBE
:101BF0000001BF6F0D0E7CEC0DF0800E0001BF6F79
:101C0000220E7CEC0DF01200000E0001C06F000EE1
:101C1000BF6FBD4BBE2B100EBD5D270EBE59D8B099
:101C20001200F7D7010101010101010103030101C4
:101C3000020202020202020203030202000E00017B
:101C4000C16F000EC16FC1C0BFF01B0E7CEC0DF068
:101C50001200000E0001C16F000EC16FC1C0BFF0C5
:101C60001B0E7CEC0DF012008AEC0EF00AEC0CF06E
:101C700049EC0EF0E7EC0CF056EC0DF01200020E01
:101C80000001C06F020EBF6F800EC16FE0EC0BF061
:101C90001200600ED36E000E646E000E9B6E000E7E
:101CA0000F012A6F1200C968C7A0FED7C9CFBDF0C7
:101CB0009E960001BD5112008588000E0001BE6F86
:101CC0000A0EBD6F04EC0EF012000001BE6FBEC024
:101CD000C9FFC7A0FED7C9CFBDF01200F70E0001A3
:101CE000BF6F320E7CEC0DF01200BDC0CDF0BEC057
:101CF000CEF0BFC0CFF01200BDC0D3F0BEC0D4F054
:101D0000BFC0D5F01200BDC0D0F0BEC0D1F0BFC082
:101D1000D2F01200D08EF09CF1941200F292C4EC3A
:071D20000DF0120000032387
:041D28001200120093
:020000040020DA
:08000000FFFFFFFFFFFFFFFF00
:020000040030CA
:0E00000015137F7C018991FFFFC0FFE0FF40D8
:00000001FF
