:0400000092EF00F08B
:060008004A8271EF10F0C6
:100018004A80D8CFA8F0E8CFA9F0E0CFAAF0FACF6D
:10002800ABF0FBCFACF0E9CFADF0EACFAEF0E1CF6B
:10003800AFF0E2CFB0F0D9CFB1F0DACFB2F0F3CF72
:10004800B3F0F4CFB4F0F6CFB5F0F7CFB6F0F8CF01
:10005800B7F0F5CFB8F04AC0B9F04BC0BAF04CC011
:10006800BBF04DC0BCF0F2BAF2A42BD0032A0001B9
:100078007D4B7E2B7B4B7C2B880E7B5D130E7C5936
:10008800D8A006D0010E926F000E7C6F000E7B6F19
:100098001E0E036404D0F6EC14F0000E036E00018B
:1000A8009805D8A40BD0022A8088C80E026406D00E
:1000B800000E026E000E986F809800F049EC15F063
:1000C80001D000F0BCC04DF0BBC04CF0BAC04BF042
:1000D800B9C04AF0B8C0F5FFB7C0F8FFB6C0F7FF1F
:1000E800B5C0F6FFB4C0F4FFB3C0F3FFB2C0DAFF87
:1000F800B1C0D9FFB0C0E2FFAFC0E1FFAEC0EAFFB8
:10010800ADC0E9FFACC0FBFFABC0FAFFAAC0E0FF7F
:10011800A9C0E8FFA8C0D8FF4A901000CFEF12F09E
:1010000000B37149335340401C4633533A0B05003B
:10101000000E0001BE6F640EBD6F3EEC16F0000EB8
:101020000001BE6F640EBD6F3EEC16F0000E0001B5
:10103000BE6F640EBD6F3EEC16F0000E0001BE6F79
:10104000640EBD6F3EEC16F04CEC16F0BAEC15F0E9
:10105000000E0001BE6F0A0EBD6F3EEC16F0F0EC04
:1010600015F021EC15F030EC16F05A0E0001C16FAE
:10107000010EC26F94EC14F0E90E0001C16F000E76
:10108000C26FC8EC14F0E70E0001C16F000EC26F12
:10109000DFEC14F096EC15F021EC14F01F0E9EEC32
:1010A00013F0010E4EEC12F0010E97EC12F0A4ECCE
:1010B00016F0010E00019E6F010E9D6F000EBE6FB7
:1010C0000A0EBD6F3EEC16F0010E00019A6FF28E13
:1010D000F28CF28C83CF99F0000EBE6F050EBD6FBF
:1010E000B6EC16F000018F6F000EBE6F020EBD6FE2
:1010F000B6EC16F000018E6F99518E19D8A414D059
:101100008F05D8A402D0010E0DD0020E8F19D8A4DD
:1011100002D0020E07D0030E8F19D8A402D0030EFE
:1011200001D0000E906F0DD0000EBE6F050EBD6F8A
:10113000FF0EBF6F40EC14F0000E00018E6F000E2A
:101140008F6F00019A05D8A42CD08090000E9A6F62
:1011500083CF99F0000EBE6F020EBD6F99C0BFF035
:1011600040EC14F0000E0001BE6F020EBD6F99C07E
:10117000BFF040EC14F0230E0101226F99C023F15F
:10118000000E0001BE6F140EBD6F3EEC16F0000E97
:101190000001BE6F140EBD6F3EEC16F052EC0EF067
:1011A000808000018751831903E188518419D8A4F4
:1011B000CFD15EEC14F0000E0001BE6F020EBD6FC9
:1011C000B6EC16F00001996F230E6019D8A440D038
:1011D0004F0E6119D8A41BD099516219D8A417D009
:1011E0008094000EBE6F640EBD6F3EEC16F0000ED4
:1011F0000001BE6F640EBD6F3EEC16F0000E0001E4
:10120000BE6F640EBD6F3EEC16F080841FD0450E9D
:1012100000016119D8A41AD099516219D8A416D026
:101220008096000EBE6F640EBD6F3EEC16F0000E91
:101230000001BE6F640EBD6F3EEC16F0000E0001A3
:10124000BE6F640EBD6F3EEC16F0808683EC15F029
:10125000240E00016019D8A47BD14D0E6119D8A4C9
:101260002CD0310E6219D8A40AD0010E906F000E56
:10127000BE6F050EBD6F90C0BFF040EC14F0320E93
:1012800000016219D8A40AD0020E906F000EBE6F42
:10129000050EBD6F90C0BFF040EC14F0330E00019E
:1012A0006219D8A40AD0030E906F000EBE6F050E0F
:1012B000BD6F90C0BFF040EC14F04C0E00016119FE
:1012C000D8A444D199516219D8A440D18080809A81
:1012D000030EBE6FE80EBD6F3EEC16F0030E00016C
:1012E000BE6FE80EBD6F3EEC16F0000E0001BE6F43
:1012F000640EBD6F3EEC16F0030E0001BE6FE80EEB
:10130000BD6F3EEC16F0030E0001BE6FE80EBD6F20
:101310003EEC16F0030E0001BE6FE80EBD6F3EEC12
:1013200016F08090808A000E0001926F000E7C6F94
:10133000000E7B6F9205D8A4FDD7060E79EC14F051
:10134000BDC079F0BEC07AF079C0C5F07AC0C6F0F1
:101350005DEC15F0C5C0C8F0C6C0C9F0C7C0CAF082
:101360000A0EF66E100EF76E000EF86E0900F5CF3D
:10137000CBF00900F5CFCCF00A00F5CFCDF082EC30
:101380000FF0C8C06DF0C9C06EF0CAC06FF0070E94
:10139000F66E100EF76E000EF86E0900F5CFCBF06A
:1013A0000900F5CFCCF00A00F5CFCDF06DC0C8F044
:1013B0006EC0C9F06FC0CAF082EC0FF0C8C031F146
:1013C000C9C032F1CAC033F1040EF66E100EF76ECA
:1013D000000EF86E0900F5CFDDF00900F5CFDEF064
:1013E0000A00F5CFDFF06DC0D7F06EC0D8F06FC047
:1013F000D9F070EC15F0D7C0DAF0D8C0DBF0D9C066
:10140000DCF081EC0CF0DAC034F1DBC035F1DCC08B
:1014100036F1FDEC0FF031C16AF032C16BF033C12F
:101420006CF0000E0001DD6FC80EDE6F420EDF6F44
:10143000000ECB6FC80ECC6F420ECD6F010EF66E54
:10144000100EF76E000EF86E0900F5CF34F10900AA
:10145000F5CF35F10A00F5CF36F16AC031F16BC036
:1014600032F16CC033F1FDEC0FF031C1C8F032C184
:10147000C9F033C1CAF082EC0FF0C8C0D7F0C9C0C0
:10148000D8F0CAC0D9F070EC15F0D7C0DAF0D8C0E7
:10149000DBF0D9C0DCF081EC0CF0DAC04FF1DBC03E
:1014A00050F1DCC051F1000E0001CB6F7A0ECC6F11
:1014B000440ECD6F4FC1C8F050C1C9F051C1CAF040
:1014C00082EC0FF0C8C040F1C9C041F1CAC042F17E
:1014D00006EC0FF040C127F141C128F142C129F1CA
:1014E00043C12AF1FF0E010127250001666FFF0E9F
:1014F000010128210001676FFF0E01012921000170
:10150000686FFF0E01012A210001696F66C0BDF0FE
:1015100067C0BEF068C0BFF069C0C0F0E80EC16F20
:10152000030EC26F000EC36F000EC46FE1EC10F02B
:10153000BDC066F0BEC067F0BFC068F0C0C069F053
:101540008080809A8092010E00018D6F83EC15F0EF
:1015500000019305D8A41CD0000E936F010E986F64
:10156000000EBE6F020EBD6FB6EC16F00001996F53
:10157000240E0101226F99C023F1430E246F52EC17
:101580000EF0000E0001BE6F140EBD6F3EEC16F0A3
:1015900000019005D8A406D08090808A000E906F3C
:1015A000000E916F020E9019D8A406D08080809A08
:1015B000000E906F000E916F030E9019D8A40AD000
:1015C00099B104D08090808A000E01D0010E916FF5
:1015D000000E906F9105D8B485A606D08090808AC1
:1015E000000E7E6F000E7D6F9105D8B485B60CD0CD
:1015F000E90E7D5D030E7E59D8A006D08080809ACA
:10160000000E7E6F000E7D6F8D05D8A49AD5000E5A
:101610008D6F69BF23D069516811671104E1050E10
:10162000665DD8A01BD069BF08D0695168116711E9
:1016300015E15B0E665DD8B011D0240E0101226F5A
:1016400099C023F1310E246F52EC0EF0000E000110
:10165000BE6F640EBD6F3EEC16F010D0240E01017B
:10166000226F99C023F1300E246F52EC0EF0000E61
:101670000001BE6F640EBD6F3EEC16F0808261D536
:10168000000E346E000E356E000E346E34500409B8
:10169000346E34C028F0390E21EC16F0030E296E9A
:1016A000000E286E30EC13F0246E00F0000E356E44
:1016B0007F0E356401D06AD00E0EF66E100EF76EF6
:1016C000000EF86E0800F5502F6E306A0D0EF66EA3
:1016D000100EF76E000EF86E0800F5502F26000E63
:1016E0003022050E2F26000E30223550316E326A20
:1016F0002F50315C3250800A336E3050800A33589C
:10170000D8B012D03550010D000EF324D96E010E61
:10171000F420DA6E35500001E425286E000EE52134
:10172000296E30EC13F0DF6E0E0EF66E100EF76EB3
:10173000000EF86E0800F5502F6E306A0D0EF66E32
:10174000100EF76E000EF86E0800F5502F26000EF2
:101750003022050E2F26000E30223550316E326AAF
:101760002F50315C3250800A336E3050800A33582B
:10177000D8A00AD035500001E425286E000EE521DE
:10178000296E30EC13F01F6E352A92D70D0EF66ECF
:10179000100EF76E000EF86E0800F5502F6E306ACE
:1017A000010E2F26000E3022000E2F24D96E010EBE
:1017B0003020DA6EDF500001A06F0D0EF66E100EB5
:1017C000F76E000EF86E0800F5502F6E306A020EAC
:1017D0002F26000E3022000E2F24D96E010E30204D
:1017E000DA6EDF50A16F0D0EF66E100EF76E000E62
:1017F000F86E0800F5502F6E306A030E2F26000E8B
:101800003022000E2F24D96E010E3020DA6EDF5008
:10181000A26F0D0EF66E100EF76E000EF86E080039
:10182000F5502F6E306A040E2F26000E3022000E67
:101830002F24D96E010E3020DA6EDF50A36F0D0E0B
:10184000F66E100EF76E000EF86E0800F5502F6E53
:10185000306A050E2F26000E3022000E2F24D96E7E
:10186000010E3020DA6EDF50A46F0D0EF66E100EF2
:10187000F76E000EF86E0800F5502F6E306A0E0EEF
:10188000F66E100EF76E000EF86E0800F5502F265B
:10189000000E3022030E2F26000E3022000E2F24C1
:1018A000D96E010E3020DA6EDF50216E0D0EF66E0D
:1018B000100EF76E000EF86E0800F5502F6E306AAD
:1018C0000E0EF66E100EF76E000EF86E0800F55054
:1018D0002F26000E3022040E2F26000E3022000E7E
:1018E0002F24D96E010E3020DA6EDF50206E000EEC
:1018F000346E000E346E34C028F0390E21EC16F030
:101900001200DCC02BF101012C6B2D6B0001DB35CB
:1019100001012B3701E32C812B51306FDFC02BF1FC
:101920002C6B2D6B0001DE3501012B3701E32C817F
:101930002B512F6F3051D8B40BD02F51305DD8B010
:101940000ED0305100082F252B6F180E2B6507D0B5
:10195000DDC0DAF0DEC0DBF0DFC0DCF012002F51BA
:10196000D8B40BD030512F5DD8B00ED02F51000815
:1019700030252B6F180E2B6507D0DAC0DAF0DBC0EC
:10198000DBF0DCC0DCF01200060E2E6F0001DCAFD5
:1019900002D001012E8F0001DFAF02D001012E8D98
:1019A0000001DB8FFF0EDA17FF0EDB17000EDC17CE
:1019B000DE8FFF0EDD17FF0EDE17000EDF170101B1
:1019C0002F51305DD8B01FD00001D890DD37DE3701
:1019D000DF3701012F0730512F19D8B40FD02E0750
:1019E0002EC12BF1070E2B17D8B408D0EDD700016C
:1019F000D890DC33DB33DA330101302B2F5130192F
:101A0000D8B423D0F4D730512F5DD8B01ED0000108
:101A1000D890DA37DB37DC370101300730512F1926
:101A2000D8B40FD02E072EC12BF1070E2B17D8B428
:101A300008D0EDD70001D890DF33DE33DD3301016C
:101A40002F2B2F513019D8A4F5D72EAF0DD0FF0E64
:101A50000001DA1BFF0EDB1BFF0EDC1B010EDA2779
:101A6000000EDB23000EDC2301012EAD0DD0FF0E96
:101A70000001DD1BFF0EDE1BFF0EDF1B010EDD274D
:101A8000000EDE23000EDF23000E01012E6F000189
:101A9000DA51DD27DB51DE23DC51DF23DFAF0FD04E
:101AA000FF0EDD1BFF0EDE1BFF0EDF1B010EDD2711
:101AB000000EDE23000EDF23010E01012E6FDDC0BC
:101AC000BDF0DEC0BEF0DFC0BFF030C1C0F02EC13F
:101AD000C1F0ABEC11F0BDC0DAF0BEC0DBF0BFC0AE
:101AE000DCF012000001C66F1B0E0001C66103D0BE
:101AF0000B0EC661A2D00B0EC66F9FD0020EC06F38
:101B0000000EBF6F020EC16F06EC13F0C8D0020EBC
:101B10000001C06F000EBF6F120EC16F06EC13F014
:101B2000BED0020E0001C06F000EBF6F220EC16F4B
:101B300006EC13F0B4D0020E0001C06F000EBF6FB0
:101B4000320EC16F06EC13F0AAD0020E0001C06F76
:101B5000000EBF6F420EC16F06EC13F0A0D0020E54
:101B60000001C06F000EBF6F520EC16F06EC13F084
:101B700096D0020E0001C06F000EBF6F620EC16FE3
:101B800006EC13F08CD0020E0001C06F000EBF6F88
:101B9000720EC16F06EC13F082D0020E0001C06F0E
:101BA000000EBF6F820EC16F06EC13F078D0020EEC
:101BB0000001C06F000EBF6F920EC16F06EC13F0F4
:101BC0006ED0020E0001C06F000EBF6FA20EC16F7B
:101BD00006EC13F064D0020E0001C06F000EBF6F60
:101BE000B20EC16F06EC13F05AD0020E0001C06FA6
:101BF000000EBF6FC20EC16F06EC13F050D0020E84
:101C00000001C06F000EBF6FD20EC16F06EC13F063
:101C100046D0020E0001C06F000EBF6FE20EC16F12
:101C200006EC13F03CD0020E0001C06F000EBF6F37
:101C3000F20EC16F06EC13F032D00001C6510B0A50
:101C4000D8B45CD7070AD8B462D7010AD8B469D728
:101C5000030AD8B470D7010AD8B477D71F0AD8B40A
:101C60007ED7010AD8B485D7030AD8B48CD7010A25
:101C7000D8B493D7070AD8B49AD7010AD8B4A1D751
:101C8000030AD8B4A8D7010AD8B4AFD70F0AD8B47A
:101C9000B6D7010AD8B4BDD7030AD8B4C4D721EC4B
:101CA00015F01200000E0001CC6F000ECB6F0D0E70
:101CB000F66E100EF76E000EF86E0800F5CF15F1F7
:101CC0000E0EF66E100EF76E000EF86E0800F5CFD1
:101CD000C6F00D0EF66E100EF76E000EF86E0800D0
:101CE000F550C6250101166F010E176F880E186F8B
:101CF000E6C019F1E8C01AF1E7C01BF1E9C01CF118
:101D0000EAC01DF1E0C01EF1E1C01FF1E2C020F108
:101D1000E3C021F1000E0001CB6F0D0E9B6F020E90
:101D2000CB6501D015D09B51010D150EF324D96E52
:101D3000010EF420DA6ECB51010DA50EF324E16EF5
:101D4000000EF420E26EDFCFE7FFCB2B9B2BE7D713
:101D5000A50EBD6F000EBE6F030EBF6F7DEC13F0BE
:101D6000BDC085F0BEC086F085C025F1000186515A
:101D70000101266F000E0001CC6F0D0EF66E100EE5
:101D8000F76E000EF86E0800F550C66FC76B0E0EAA
:101D9000F66E100EF76E000EF86E0800F550C627AE
:101DA000000EC723020EC627000EC723CC51C86FF2
:101DB000C96BC651C85DC951800ACA6FC751800A34
:101DC000CA59D8B01CD0CC518925BF6F000E8A21CA
:101DD000C06FCC51010D150EF324D96E010EF42005
:101DE000DA6EDF50C16F06EC13F0000E0001BE6F1B
:101DF0000A0EBD6F3EEC16F00001CC2BBED771EC85
:101E000016F066EC16F059EC13F0120042C144F1E2
:101E10000101456B466B4135443701E3458144512F
:101E20004E6F4E51D8A409D0000E406F000E416F86
:101E3000000E426F000E436F1200170E446F40C138
:101E400045F141C146F142C147F14429486F04D0F0
:101E5000D890473346334533482FFAD701014551CF
:101E6000496F418FFF0E4017FF0E4117000E4217BA
:101E700040514A6F41514B6F42514C6F4D6B8E0E2A
:101E80004E5F4EAF16D04E51800A8F0FD8B009D09A
:101E9000000E406F000E416F000E426F000E436F48
:101EA0001200D8904D334C334B334A334E3FF9D761
:101EB00015D0170E4E650FD0000E406F000E416F0B
:101EC000000E426F000E436F1200D8904A374B3716
:101ED0004C374D374E074E51D8A4F7D74951D8B497
:101EE00008D04D1F4C1F4B1F4A6D000E4B234C2337
:101EF0004D234AC140F14BC141F14CC142F14DC1AA
:101F000043F11200CAC0CEF00001CF6BD06BC935CF
:101F1000CE3701E3CF81CE51D16FD151D8A407D0B4
:101F2000000EC86F000EC96F000ECA6F1200CDC040
:101F3000CEF0CF6BD06BCC35CE3701E3CF81CE5115
:101F4000D66FD651D8A407D0000EC86F000EC96F47
:101F5000000ECA6F1200D6517B0FD127CAC0D6F02F
:101F6000CD51D61B800ED617C98FCC8FFF0ECB1745
:101F7000FF0ECC17000ECD17000ED26F000ED36FE0
:101F8000000ED46F070ED56FC8A106D0CB51D22753
:101F9000CC51D323CD51D423D890CA33C933C833BD
:101FA000D890CB37CC37CD37D52FEED7090ED56F9C
:101FB000C8A106D0CB51D227CC51D323CD51D423A5
:101FC000D890CA33C933C833D890D433D333D2333B
:101FD000D52FEED7D2C0BDF0D3C0BEF0D4C0BFF075
:101FE000D1C0C0F0D6C0C1F0ABEC11F0BDC0C8F09C
:101FF000BEC0C9F0BFC0CAF0120033C137F1010141
:10200000386B396B3235373701E3388137513E6FE2
:102010003E51D8A407D0000E316F000E326F000E73
:10202000336F120036C137F1386B396B35353737BE
:1020300001E3388137513F6F3F51D8A407D0000EDC
:10204000316F000E326F000E336F1200000E3B6FC7
:10205000000E3C6F000E3D6F3F51890F3E5F33C154
:102060003FF136513F1B800E3F17328FFF0E311765
:10207000FF0E3217000E3317358FFF0E3417FF0E89
:102080003517000E3617180E3A6FD8903B373C378D
:102090003D373451315D3551325936513359D8A01D
:1020A00007D03451315F3551325B3651335B3B8160
:1020B000D8903137323733373A2FE7D73BC1BDF0AD
:1020C0003CC1BEF03DC1BFF03EC1C0F03FC1C1F058
:1020D000ABEC11F0BDC031F1BEC032F1BFC033F185
:1020E0001200FACF38F0FBCF39F0E9CF3AF0EACF5F
:1020F0003BF0E1CF3CF0E2CF3DF0D9CF3EF0DACF7C
:102100003FF0F3CF40F0F4CF41F0F6CF42F0F7CFFD
:1021100043F0F8CF44F0F5CF45F04AC046F04BC04D
:1021200047F04CC048F04DC049F0F2B8F2A222D0BE
:10213000310E01EC16F0256E25A619D0F29E40EC6A
:102140000BF0F28EA00E266E000E276E030E286E88
:1021500001EC14F026C083F027C084F00001A451E4
:10216000366EA351876F36C088F0AEEC14F0F2ECF7
:1021700016F001D000F049C04DF048C04CF047C007
:102180004BF046C04AF045C0F5FF44C0F8FF43C0DD
:10219000F7FF42C0F6FF41C0F4FF40C0F3FF3FC06D
:1021A000DAFF3EC0D9FF3DC0E2FF3CC0E1FF3BC0CB
:1021B000EAFF3AC0E9FF39C0FBFF38C0FAFF4A9294
:1021C0001100000E0001C66FC4AF0AD0C41FC31FA8
:1021D000C21FC16D000EC223C323C423010EC66FEC
:1021E000C0AF0AD0C01FBF1FBE1FBD6D000EBE23F3
:1021F000BF23C023010EC61B000EC76F000EC86FA1
:10220000000EC96F000ECA6FC151C211C311C411B3
:10221000D8B42AD0010EC56F06D0D890C137C237C6
:10222000C337C437C52BC4AFF8D7D890C737C83722
:10223000C937CA37C151BD5DC251BE59C351BF591B
:10224000C451C059D8A009D0C151BD5FC251BE5BB5
:10225000C351BF5BC451C05BC781D890C433C33383
:10226000C233C133C52FE1D7C651D8B408D0CA1F75
:10227000C91FC81FC76D000EC823C923CA23C7C002
:10228000BDF0C8C0BEF0C9C0BFF0CAC0C0F01200E7
:102290000001C16F000E0001C26F51D0000EC26F6D
:1022A000C2518009C26FC251DF0BC26FC2C0BFF002
:1022B0003A0EA8EC15F0600E0001BF6F3F0EA8ECBF
:1022C00015F01200000E0001C26FC2514009C26F2A
:1022D000C2517F0BC26FC2C0BFF03A0EA8EC15F01E
:1022E000000E0001C26FC2513809C26FC251FB0B10
:1022F000C26FC2C0BFF03A0EA8EC15F01200000E7B
:102300000001C26FC251C009C26FC2C0BFF03A0E15
:10231000A8EC15F0000E0001C26FC2513809C26F5F
:10232000C251FB0BC26FC2C0BFF03A0EA8EC15F051
:10233000600E0001BF6F3F0EA8EC15F01200000107
:10234000C151010AD8B4AAD7030AD8B4BBD7010A2D
:10235000D8A41200D4D70001C051D8B405D0BD51C3
:10236000BE11BF11D8A40CD0000EBD6F000EBE6F01
:10237000000EBF6F1200C02BD890BF33BE33BD33E9
:10238000000EBD15C26F000EBE15C36FFE0EBF1549
:10239000C46FC251C311C411D8B40CD0ECD7C02B38
:1023A000010EBD27000EBE23000EBF23D890BF3301
:1023B000BE33BD33000EBD15C26F000EBE15C36F18
:1023C000FF0EBF15C46FC251C311C411D8B406D0DB
:1023D000E6D7C007D890BD37BE37BF37BEBF03D0E2
:1023E000020EC061F6D7C0A1BE9FD890C033C051C5
:1023F000BF13C151D8A4BF8FBDC0BDF0BEC0BEF0D9
:10240000BFC0BFF01200980E0001BF6F180EA8ECFD
:1024100015F0950E0001BF6F2E0EA8EC15F0020E00
:102420000001C06F010EBF6F010EC16F06EC13F00B
:1024300087EC16F0020E0001C06F060EBF6F900E03
:10244000C16F06EC13F0020E0001C06F070EBF6FE4
:10245000800EC16F06EC13F0020E0001C06F080E73
:10246000BF6F100EC16F06EC13F0020E0001BF6FBC
:10247000110EA8EC15F0020E0001C06F200EBF6F08
:10248000210EC16F06EC13F0020E0001C06F2F0E7B
:10249000BF6F0F0EC16F06EC13F012000001C16F89
:1024A000000E0001C26F34D0000EC26F000EC26F6A
:1024B000C2C0BFF00D0EA8EC15F01200000E000116
:1024C000C26F000EC26FC2510809C26FC2C0BFF016
:1024D0000D0EA8EC15F01200000E0001C26F000EE8
:1024E000C26FC2510409C26FC2C0BFF00D0EA8EC8A
:1024F00015F01200000E0001C26F000EC26FC25133
:102500000209C26FC2C0BFF00D0EA8EC15F0120098
:102510000001C151010AD8B4C7D7030AD8B4CED735
:10252000010AD8B4D9D7070AD8A41200E3D700010A
:10253000C16F000E0001C26F26D0000EC26F000EE8
:10254000C26FC2C0BFF0000EA8EC15F01200000E62
:102550000001C26F000EC26FC2510209C26FC2C039
:10256000BFF0000EA8EC15F01200000E0001C26FC3
:10257000000EC26FC2510109C26FC2C0BFF0000E8F
:10258000A8EC15F012000001C151010AD8B4D5D74A
:10259000030AD8B4DCD7010AD8A41200E6D77E0E0D
:1025A000F66E2D0EF76E000EF86E01EE52F010EE84
:1025B00010F00900F5CFEEFFE550E150FAE1D80E3A
:1025C000F66E2D0EF76E000EF86E00EEE0F010EED7
:1025D0000BF00900F5CFEEFFE550E150FAE101EE16
:1025E00000F02B0EEE6AE806FDE100EE60F0480E0A
:1025F000EE6AE806FDE100EE01F0250EEE6AE8065F
:10260000FDE14A904A92000108EF08F0000E000137
:10261000C46F000EC56F8290BFC0C2F0C0C0C3F0CF
:10262000D890C333C233D890C333C233D890C333A6
:10263000C233C2517F0B8009C46FBF39E846E00B3B
:10264000E00B1009C56FC451ADEC16F00001C55187
:10265000ADEC16F00001C151ADEC16F08280120015
:10266000000E2C6E000E2D6E000E2E6E829028C075
:102670002AF029C02BF0D8902B322A32D8902B3256
:102680002A32D8902B322A322A507F0B80092D6EA5
:102690002838E846E00BE00B2E6E2D50C7EC16F004
:1026A0002E50C7EC16F0CFEC16F02C6E82802C501A
:1026B0001200000E00019C6F9C5101099C6F9CC090
:1026C000BFF01B0EA8EC15F0000E00019C6F310E40
:1026D0000DEC15F0E806D8A4FAD7310E0DEC15F084
:1026E00000019C6F00F0000E00019C6F240E0DECA9
:1026F00015F000019C6F00F012008D0E0001C26FFA
:102700000D0EC16F000EC46F000EC36F0AD0BDC0A6
:10271000D9FFBEC0DAFFDF50C06FC051C11BBD4B37
:10272000BE2BBF07BF29D8A4F2D7C1C0C3F0C2C017
:10273000C4F0C3C0BDF0C4C0BEF012000001C76F3A
:102740001F0E0001C76502D01F0EC76FC7510008DA
:102750001F0FC76FC7C0C6F01F0EC617D890C63769
:10276000D890C637D890C635F80BC76F020EC06F29
:10277000030EBF6FC7C0C1F006EC13F012000001DA
:10278000C16F000E0001C26F12D0000EC26FC251A5
:102790008009C26FC2C0BFF03E0EA8EC15F0120057
:1027A000400E0001BF6F3E0EA8EC15F012000001B4
:1027B000C151010AD8B4E9D7030AD8A41200F0D74E
:1027C000000E8D6E000E8C6E0F0E896E0A0E8E6ED0
:1027D000000E8A6E000E8F6E030E8B6E9668FA0ED8
:1027E000976EC00E926E1F0E986E9368FC0E946EDC
:1027F0009568600E0F01256F0E0E246F0F0E236F6C
:1028000012008D0E2B6E0D0E2A6E000E2D6E000E18
:102810002C6E0AD026C0D9FF27C0DAFFDF50296E00
:1028200029502A1A264A272A28062828D8A4F2D767
:102830002AC02CF02BC02DF02CC026F02DC027F084
:102840001200000E0001C16F000EC16FC1510809D6
:10285000C16FC1C0BFF0000EA8EC15F0000E000162
:10286000C16FC151DF0BC16FC1C0BFF0110EA8EC29
:1028700015F0FF0E0001BF6F100EA8EC15F012004E
:10288000000E0001C06FBDC062FFBFC061FF7F9E30
:102890007F9C7F84000EF2BE010EC06FF29E550E2B
:1028A0007E6EAA0E7E6E7F827FB2FED70001C0B11F
:1028B00002D0F29E01D0F28E7F941200000E000131
:1028C000BE6F000EBD6F000EBE6F000EBD6FBE511D
:1028D0000FE1060EBD5DD8B01200A00EBD25D96E69
:1028E000000EBE21DA6E000EDF6EBD4BBE2BEFD7A1
:1028F00012000001C16FC1C0BFF00001BF47BF4758
:10290000C250BF19830BBF19C26EC280C282C2B24D
:10291000FED7C4500001C06FBF6BC350BF25BD6F51
:10292000000EC021BE6F1200000E0001C36F000E2A
:10293000C36F070EC36501D01200C351010DF350E0
:10294000C125D96EF450C221DA6EDF50BF6FC3517A
:10295000050FA8EC15F00001C32BEBD7000E266E77
:10296000050E266401D012002650010DA00EF3249E
:10297000D96E000EF420DA6E2650010D600EF3249D
:10298000E16E000EF420E26EDFCFE7FF262AE8D7E3
:10299000C1C0D9FFC2C0DAFFDF500001BF6F030E14
:1029A000A8EC15F0000120EE01F0C151D926C2516A
:1029B000DA22DF50BF6F040EA8EC15F01200C1C080
:1029C000D9FFC2C0DAFFDF500001BF6F010EA8ECD3
:1029D00015F0000120EE01F0C151D926C251DA22D2
:1029E000DF50BF6F020EA8EC15F0120084CF04F088
:1029F00004A406D0000E016E000E0001936F05D0F6
:102A0000020E00019319D8A4012A0A0E01641200D3
:102A1000010E936F000E016E12000001C06F000ED8
:102A20000001BF6F8290C051C0257E0BC06FC051A6
:102A3000ADEC16F09BEC16F00001BF6F8280BF5129
:102A40001200040E0001BF6F360EA8EC15F0000E48
:102A50000001BF6F360EA8EC15F0000E0001BE6F2E
:102A6000140EBD6F3EEC16F01200000ED76EF60E7F
:102A7000D66EF60E00019F6FF294F28AF20EBD6FD1
:102A80002D0EBE6F000EBF6FDEEC16F0D70ED56EAA
:102A90001200F2949FC0D6FF00018B4B8C2B8C51FF
:102AA00004E1020E8B5DD8A01200CCEC15F0000EF4
:102AB00000018C6F000E8B6F1200C5C0BDF0C6C048
:102AC000BEF00001BF6B8E0EC06F000EC16FABEC8D
:102AD00011F0BDC0C5F0BEC0C6F0BFC0C7F0120047
:102AE0000001D751D811D911D8B406D0000ED71B88
:102AF000000ED81B800ED91BD7C0D7F0D8C0D8F095
:102B0000D9C0D9F01200000E0001BD6F050EBD65E1
:102B100001D01200BD51010D600EF324D96E000EDC
:102B2000F420DA6E000EDF6EBD2BF0D703EC12F04E
:102B3000010E48EC11F0020EBFEC13F0D7EC16F0CA
:102B40000F0E72EC0DF0A4EC16F021EC15F0120053
:102B50000001C06F82900001C051C0257F0B0109A8
:102B6000C06FC051ADEC16F00001BF51ADEC16F0D6
:102B700082801200C690C692C694C696949A949685
:102B8000C68AC78EC698C78C000E0001BE6F0A0E9B
:102B9000BD6F12EC16F01200000173517411751123
:102BA000D8B4120001D812000500FA6E7351FD6E00
:102BB0007451FE6E7551FF6EFA501200000176518D
:102BC00077117811D8B4120001D812000500FA6EFE
:102BD0007651FD6E7751FE6E7851FF6EFA501200FD
:102BE0008292000E0001BE6F0A0EBD6F3EEC16F021
:102BF0008282000E0001BE6F0A0EBD6F3EEC16F021
:102C00001200286E000E296E8290285028247E0B18
:102C1000286E2850C7EC16F0CFEC16F0296E828093
:102C200029501200000E0001C06F000EBF6F02D0CD
:102C3000BF4BC02BBD51BF5DBE51C059D8B01200B3
:102C4000F7D7296E8290295029247F0B0109296E1C
:102C50002950C7EC16F02850C7EC16F082801200FD
:102C60008594600E0001BF6F0D0EA8EC15F0800E6C
:102C70000001BF6F220EA8EC15F01200000E00013B
:102C8000C06F000EBF6FBD4BBE2B100EBD5D270E7B
:102C9000BE59D8B01200F7D7F6EC16F0E0EC13F0FE
:102CA00091EC16F059EC16F07CEC16F035EC15F0C2
:102CB0001200F292F19CF40E0001BD6F2D0EBE6F5A
:102CC000000EBF6FE5EC16F0F2881200000E000156
:102CD000C16F000EC16FC1C0BFF01B0EA8EC15F094
:102CE0001200000E0001C16F000EC16FC1C0BFF025
:102CF0001B0EA8EC15F01200190EC26E000EC16E6C
:102D0000A50EC06E000EC46E000EC36E1200020E41
:102D10000001C06F020EBF6F800EC16F06EC13F092
:102D20001200600ED36E000E646E000E9B6E000EDD
:102D30000F012A6F1200C968C7A0FED7C9CFBDF026
:102D40009E960001BD5112008584000E0001BE6FE9
:102D50000A0EBD6F3EEC16F012000001BE6FBEC041
:102D6000C9FFC7A0FED7C9CFBDF01200BDC062FF2A
:102D70007F9C7F9E7F8000F000F061501200010177
:102D80000101010101010202020202020202276E98
:102D900027C0C9FFC7A0FED7C9CF26F01200C96857
:102DA000C7A0FED7C9CF26F09E9626501200F70E78
:102DB0000001BF6F320EA8EC15F01200BDC073F019
:102DC000BEC074F0BFC075F01200BDC076F0BEC0CA
:102DD00077F0BFC078F01200030301010003230362
:032DE000030202E9
:102DE400F292DEEC15F01200D08EF1941200120073
:022DF4001200CB
:020000040020DA
:08000000FFFFFFFFFFFFFFFF00
:020000040030CA
:0E00000015037F7C018991FFFFC0FFE0FF40E8
:00000001FF
