:10000000B8EF05F00000000000EF00F00000000075
:0A0010000000000000000000F3D71C
:0C001C00000000000000000000001200C6
:10002800240E0C6EB50E0D6E0D2EFED70C2EFCD7C1
:06003800000000001200B0
:0A003E00530E0D6E0D2EFED71200BA
:080048000AAF029F000E120036
:100050000B850BAF33EF00F0010E036F026B016BEA
:0A006000006B0A370233FF0E120096
:10006A000B830BAF3FEF00F0036902690169006976
:08007A000A370233FF0E1200E9
:100082005BBE02D08A9601D08A865BBC02D08A947B
:1000920001D08A845BBA02D08A9201D08A825BB88C
:1000A20002D08A9001D08A802CB002D08A8801D0F6
:1000B2008A988A8AB2DF8A9A5BB602D08A9601D07F
:1000C2008A865BB402D08A9401D08A845BB202D061
:1000D2008A9201D08A825BB002D08A9001D08A8053
:1000E2002CB002D08A8801D08A988A8A96DF8A9AAE
:0C00F2002CA002D098DF01D0A1DF12008A
:0E00FE00026B016B006B086B036B000E1200AF
:10010C000CB1C8EF00F00CA36EEF01F00E6B000EFB
:10011C000265DFEF00F0F00E0215D8A4AAEF00F094
:10012C00023B01390F0B02270139F00B016F00392B
:10013C000F0B01270039F00B006F08390F0B00274C
:10014C000839F00B086F0E85D89002BFC3EF00F092
:10015C0008370037013702370E2B02BFC3EF00F010
:10016C0008370037013702370E2B02BFC3EF00F000
:10017C0008370037013702370E2B0E51036564EF39
:10018C0001F0035F0BBD08AF69EF01F0D880800E62
:10019C0008650031000E002301230223D8A069EF6B
:1001AC0001F0023301330033034B6EEF01F069EFC2
:1001BC0001F001C002F000C001F008C000F0086BB3
:1001CC00000E0E87026516EF01F0F00E0215D8A492
:1001DC00FEEF00F0023B01390F0B02270139F00B47
:1001EC00016F00390F0B01270039F00B006F0E85E2
:1001FC00D89002BFC3EF00F00037013702370E2B47
:10020C0002BFC3EF00F00037013702370E2B02BFDD
:10021C00C3EF00F00037013702370E2BC3EF00F0AD
:10022C0001C002F000C001F0006B000E0E970E89A9
:10023C00026543EF01F0F00E0215D8A42EEF01F089
:10024C00023B01390F0B02270139F00B016F0E85B0
:10025C00D89002BFC3EF00F0013702370E2B02BF5C
:10026C00C3EF00F0013702370E2B02BFC3EF00F0D3
:10027C00013702370E2BC3EF00F001C002F0016B07
:10028C00000E0E87026573EF01F0F00E0215D8A474
:10029C0052EF01F0023B0E85D89002BFC3EF00F085
:1002AC0002370E2B02BFC3EF00F002370E2B02BF3A
:1002BC00C3EF00F002370E2BC3EF00F0010E0C6FF2
:1002CC00C1DE76EF01F0020E0C6FB8DE76EF01F0B6
:1002DC00040E0C6FC4DE76EF01F0080E0C6F09DF14
:0202EC001200FE
:1002EE000B6B0A6B096B086B0E6B033508370451E9
:1002FE00085F0551D8A0053D095F0651D8A0063DFF
:10030E000A5F0751D8A0073D0B5FE86BD8A0010E1E
:10031E000E5F0337070E0C6F0335083709370A37A0
:10032E000B370E37045103A112D0085F0551D8A028
:10033E00053D095F0651D8A0063D0A5F0751D8A0BA
:10034E00073D0B5FE86BD8A0010E0E5F11D008279A
:10035E000551D8B0053D09270651D8B0063D0A27EC
:10036E000751D8B0073D0B27E86BD8B0010E0E270A
:10037E0003370C2FD1D70235083709370A370B3719
:10038E000E37045103A112D0085F0551D8A0053DC8
:10039E00095F0651D8A0063D0A5F0751D8A0073D58
:1003AE000B5FE86BD8A0010E0E5F11D00827055128
:1003BE00D8B0053D09270651D8B0063D0A2707518A
:1003CE00D8B0073D0B27E86BD8B0010E0E270237C9
:1003DE00070E0C6F0235083709370A370B370E3701
:1003EE00045102A112D0085F0551D8A0053D095F46
:1003FE000651D8A0063D0A5F0751D8A0073D0B5FF6
:10040E00E86BD8A0010E0E5F11D008270551D8B0A9
:10041E00053D09270651D8B0063D0A270751D8B029
:10042E00073D0B27E86BD8B0010E0E2702370C2FB5
:10043E00D1D70135083709370A370B370E37045134
:10044E0002A112D0085F0551D8A0053D095F0651E3
:10045E00D8A0063D0A5F0751D8A0073D0B5FE86B99
:10046E00D8A0010E0E5F11D008270551D8B0053D5A
:10047E0009270651D8B0063D0A270751D8B0073DC7
:10048E000B27E86BD8B0010E0E270137070E0C6F45
:10049E000135083709370A370B370E37045101A1DA
:1004AE0012D0085F0551D8A0053D095F0651D8A0AE
:1004BE00063D0A5F0751D8A0073D0B5FE86BD8A039
:1004CE00010E0E5F11D008270551D8B0053D092742
:1004DE000651D8B0063D0A270751D8B0073D0B2765
:1004EE00E86BD8B0010E0E2701370C2FD1D700358F
:1004FE00083709370A370B370E37045101A112D0CE
:10050E00085F0551D8A0053D095F0651D8A0063DEC
:10051E000A5F0751D8A0073D0B5FE86BD8A0010E0C
:10052E000E5F11D008270551D8B0053D0927065199
:10053E00D8B0063D0A270751D8B0073D0B27E86B08
:10054E00D8B0010E0E270037070E0C6F0035083796
:10055E0009370A370B370E37045100A112D0085F46
:10056E000551D8A0053D095F0651D8A0063D0A5F8A
:10057E000751D8A0073D0B5FE86BD8A0010E0E5FA8
:10058E0011D008270551D8B0053D09270651D8B01E
:10059E00063D0A270751D8B0073D0B27E86BD8B0A8
:1005AE00010E0E2700370C2FD1D700B10ED00451FB
:1005BE0008270551D8B0053D09270651D8B0063D8C
:0C05CE000A270751D8B0073D0B27120088
:1005DA000B810BAFF9EF02F0026B0AAFFF0E026F4D
:0C05EA00016F006F0A370233FF0E120091
:0805F6000B6B0B87FF0E1200D6
:0C05FE002C905AC05BF03EDD2C801200F7
:0E060A00ACB202D00000FCD75AC0ADFF120007
:100618000B6B0C6B0A6B086B0351D8B494EF03F0A7
:10062800028F9E0E035F03BF1FEF03F0D8B41FEFC6
:1006380003F084EF03F0036D080E035DD8A051EFBB
:1006480003F0036F083700C008F001C000F002C0D3
:1006580001F0026B080E035DD8A051EF03F0036FA1
:10066800083700C008F001C000F0016B080E035DF8
:10067800D8A051EF03F0036F083700C008F0006BF3
:10068800080E035DD8A051EF03F0036F0837086B1D
:100698000351D8A4D8905DEF03F00351D8B45DEFAF
:1006A80003F0D8900233013300330833032F55EF9A
:1006B80003F00BBD08A16EEF03F0D8A06EEF03F0B6
:1006C800082BD8B4002BD8B4012BD8B4022B02BF06
:1006D80098EF03F00AAF94EF03F0021F011F001F09
:1006E800081F082BD8B4002BD8B4012BD8B4022B80
:1006F80094EF03F0026B016B006B086B94EF03F04F
:100708000B810BAF9DEF03F0026B0AAF9DEF03F077
:10071800026F016F006F086F0A3702339DEF03F015
:10072800000E0C6B9EEF03F0010E0C6F52DF9EEF74
:1007380003F0FF0E0251036F0151026F0051016F68
:060748000851006F1200D1
:10074E00939A939893909392939493968A9A8A9865
:10075E008A968A948A928A9060DC5FDC5EDC8A825A
:10076E008A808A8A54DC8A9A58DC8A8A50DC8A9A71
:10077E0054DC8A8A4CDC8A9A50DC8A908A8A47DC5E
:10078E008A9A4BDC8A8A43DC8A9A8A928A868A8A79
:10079E003EDC8A9A42DC8A968A808A8A38DC8A9A79
:1007AE008A908A8A34DC8A9A38DC8A8A30DC8A9A81
:1007BE008A808A8A2CDC8A9A30DC8A908A8A27DCA4
:1007CE008A9A8A868A848A828A808A8A20DC8A9A8F
:0607DE0024DC2C80120057
:1007E4000FD0800E506E19D0C00E506E16D0940EDD
:1007F400506E13D0D40E506E10D0800E506E0DD0AB
:100804005050010AEEE05050020AEEE05050030A44
:10081400EEE05050040AEEE0F0D75104006E505060
:10082400002600C050F000C05BF029DC2C90546A14
:1008340054505224E96E000E5320EA6EEE520BE03F
:1008440054505224E96E000E5320EA6EEECF5AF053
:0A085400D4DE542AEDD72C801200E8
:10085E000450000A12E10550000A0FE10650000A8A
:10086E000CE10750000A09E1FF0E006EFF0E016E4B
:10087E007F0E026EFF0E036EA7D0086B096B075139
:10088E00D8B4DAEF04F00351D8B4DEEF04F002511D
:10089E0006190A6F028F068F0E6B02C008F001C098
:1008AE000CF000C00DF004510D5F0551D8A0053DB0
:1008BE000C5F0651D8A0063D085F086B0C6B0D6BE4
:1008CE00D8A071EF04F0D89002330133003308330F
:1008DE00010E0E6F0751035FD8A07EEF04F07E0E5F
:1008EE000E250327D8B0E3EF04F084EF04F07E0E5C
:1008FE000E250327D8A0E8EF04F0180E0B6F0D3766
:10090E000C3708370037013702370E370451005FB6
:10091E000551D8A0053D015F0651D8A0063D025FE6
:10092E0006350E130EA19FEF04F00D81AAEF04F011
:10093E00045100270551D8B0053D01270651D8B006
:10094E00062902270D910B2F86EF04F0D0EF04F04D
:10095E00D8900037013702370E370451005F05512A
:10096E00D8A0053D015F0651D8A0063D025F0635B1
:10097E000E11010B0D27D8B00C2BD8B4082BD8A410
:10098E00D0EF04F008330C330D33032BD8B4E3EF60
:10099E0004F00AAF089F0851026F0C51016F0D5100
:1009AE00006FEBEF04F0010E1FDEEBEF04F0020E12
:1009BE007FEC00F0EBEF04F0040E35EC00F0EBEF03
:0A09CE0004F0080E28EC00F01200FF
:1009D8000A0E2D6E060E2E6E5A0E2F6E000E306EFB
:1009E800FF0E316EFF0E326E000E336E000E346E47
:1009F800FF0E396EFF0E3A6E000E3B6E000E3C6E17
:100A0800FF0E356EFF0E366E000E376E000E386E16
:100A1800AC8A900EAB6E948E949C9EAA03D0AECFF7
:060A280000F0FBD71200F4
:100A2E000900F5CFE6FF0007FBE10107F9E112002F
:100A3E00566A576A000E575C02E10A0E565C0BE2CC
:100A4E0056505424E16E57505520E26E200EE66E3D
:100A5E00564A572AEFD756505424E16E5750552018
:100A6E00E26EE66A010E565E000E575A5650542438
:100A7E00586E57505520596E0A0E046E000E056EB4
:100A8E00066E076E50C000F051C001F052C002F069
:100A9E0053C003F025DC08C000F009C001F00AC005
:100AAE0002F00BC003F0300E002658C0E1FF59C013
:100ABE00E2FF00C0E6FF0A0E046E000E056E066E23
:100ACE00076E50C000F051C001F052C002F053C08A
:100ADE0003F006DC00C050F001C051F002C052F02D
:100AEE0003C053F0000E046E031808E10450021800
:100AFE0005E10450011802E10050000A01E105D0A1
:0C0B0E00010E565E000E575AB1D71200BF
:100B1A00536A50C0E9FF51C0EAFFEECF52F052507B
:100B2A00000A0DE052C05AF06BDD532A535050248C
:100B3A00E96E000E5120EA6EEECF52F0F0D71200A5
:100B4A000051086F0151006F0251016F0351026F8A
:100B5A00036B0B6B0C6B9E0E036F0A6B020E0C6F12
:060B6A0086EC00F0120011
:100B70007BEC06F00F01386B396B3A6BC26A0F0ED3
:100B8000C16E796A786A936A816A896A8B6AC00ED3
:100B9000926E936A010E946E030E0B6E8A0E0C6EAB
:100BA000550E0D6E0D2EFED70C2EFCD70B2EFAD740
:100BB00000000000CCDD010E5B6E41EC00F00C0E7D
:100BC0005B6E41EC00F0010E506E010E516E150E81
:100BD000526E000E536E06DE810EAF6EAC84FCDEEC
:100BE000820E0C6EDD0E0D6E0D2EFED70C2EFCD778
:100BF00000000000260E506E000E516E8EDF0D0EAE
:100C00005A6E03DD0A0E5A6E00DD860ED56E850E15
:100C1000CD6ECC6A0B0ED76EE50ED66EF2943D6AA1
:100C20003E6A3F6A406ACE6ACF6A9E90F2B40CD0A8
:100C30009EA009D09E90000E3D26000E3E22010E81
:100C40003F22000E4022F2D7CFCF42F0416A436AE2
:100C5000446A000E436E446ECE504126000E42227E
:100C6000000E436E446E41503D24006E42503E20C3
:100C7000016E43503F20026E44504020036E00C07E
:100C80003DF001C03EF002C03FF003C040F05DDF28
:100C9000000E046E000E056E700E066E810E076E5D
:100CA000DEDDBADC00C050F001C051F002C052F0ED
:100CB00003C053F0450E546E000E556EC0DE010E9B
:100CC000506E040E516E450E526E000E536E8ADD4C
:0E0CD000450E506E000E516E20DF9CD7FFD7F0
:100CF60010EE15F0170E006E010E016EDE0EF66E8A
:0E0D06000C0EF76E000EF86E17EC05F01200E2
:100CDE0046523A202020202020202020204C2F6D0C
:010CEE000005
:060CEF00537461727400F1
:020000040030CA
:0D000100231F3CFFBF81FF0FC00FE00F4029
:00000001FF
