:0400000062EF00F0BB
:100008004F82FACF3AF0FBCF3BF0E9CF3CF0EACF92
:100018003DF0E1CF3EF0E2CF3FF0D9CF40F0DACF6C
:1000280041F0F3CF42F0F4CF43F0F6CF44F0F7CFEE
:1000380045F0F8CF46F0F5CF47F04FC048F050C034
:1000480049F051C04AF052C04BF0F2BAF2A40BD0BA
:100058000E2A140E0E6404D0B1EC0AF0000E0E6ED7
:100068006CEC0EF005D0F2B8F2A202D072EC0EF0F1
:100078004BC052F04AC051F049C050F048C04FF050
:1000880047C0F5FF46C0F8FF45C0F7FF44C0F6FF7C
:1000980043C0F4FF42C0F3FF41C0DAFF40C0D9FFBC
:1000A8003FC0E2FF3EC0E1FF3DC0EAFF3CC0E9FFC0
:1000B8003BC0FBFF3AC0FAFF4F921100CEEF0BF0A6
:10100000000B05000001C66F1B0E0001C66103D076
:101010000B0EC661A2D00B0EC66F9FD0020EC06F22
:10102000000EBF6F020EC16FFEEC0BF0C8D0020EB7
:101030000001C06F000EBF6F120EC16FFEEC0BF00F
:10104000BED0020E0001C06F000EBF6F220EC16F36
:10105000FEEC0BF0B4D0020E0001C06F000EBF6FAB
:10106000320EC16FFEEC0BF0AAD0020E0001C06F71
:10107000000EBF6F420EC16FFEEC0BF0A0D0020E4F
:101080000001C06F000EBF6F520EC16FFEEC0BF07F
:1010900096D0020E0001C06F000EBF6F620EC16FCE
:1010A000FEEC0BF08CD0020E0001C06F000EBF6F83
:1010B000720EC16FFEEC0BF082D0020E0001C06F09
:1010C000000EBF6F820EC16FFEEC0BF078D0020EE7
:1010D0000001C06F000EBF6F920EC16FFEEC0BF0EF
:1010E0006ED0020E0001C06F000EBF6FA20EC16F66
:1010F000FEEC0BF064D0020E0001C06F000EBF6F5B
:10110000B20EC16FFEEC0BF05AD0020E0001C06FA0
:10111000000EBF6FC20EC16FFEEC0BF050D0020E7E
:101120000001C06F000EBF6FD20EC16FFEEC0BF05E
:1011300046D0020E0001C06F000EBF6FE20EC16FFD
:10114000FEEC0BF03CD0020E0001C06F000EBF6F32
:10115000F20EC16FFEEC0BF032D00001C6510B0A4B
:10116000D8B45CD7070AD8B462D7010AD8B469D713
:10117000030AD8B470D7010AD8B477D71F0AD8B4F5
:101180007ED7010AD8B485D7030AD8B48CD7010A10
:10119000D8B493D7070AD8B49AD7010AD8B4A1D73C
:1011A000030AD8B4A8D7010AD8B4AFD70F0AD8B465
:1011B000B6D7010AD8B4BDD7030AD8B4C4D746EC11
:1011C0000DF0120055EC0EF0000E0001BE6F640E23
:1011D000BD6FF6EC0DF0000E0001BE6F640EBD6F2A
:1011E000F6EC0DF0000E0001BE6F640EBD6FF6EC64
:1011F0000DF0000E0001BE6F640EBD6FF6EC0DF039
:1012000055EC0EF092EC0DF0000E0001BE6F0A0ED0
:10121000BD6FF6EC0DF0C8EC0DF046EC0DF0E8EC0F
:101220000DF0B10E0001C16F000EC26FEAEC0CF0C0
:10123000BB0E0001C16F000EC26F04EC0DF0B90EC1
:101240000001C16F000EC26F1BEC0DF06EEC0DF0D3
:10125000CBEC0CF01F0E49EC0CF0010E4DEC0BF03A
:10126000010E96EC0BF043EC0EF0010E376E010E02
:10127000366E000E0001BE6F0A0EBD6FF6EC0DF06B
:10128000010E1E6EF28EF28CF28C80860904D8A4B8
:101290000BD080902A0E0001826F010E836F010E29
:1012A000846F9EEC09F029D00804D8A40BD080905C
:1012B0002A0E0001826F020E836F010E846F9EEC76
:1012C00009F01BD00704D8A40BD080902A0E00018F
:1012D000826F030E836F010E846F9EEC09F00DD0B8
:1012E0000604D8A40DD080902A0E0001826F040E4F
:1012F000836F010E846F9EEC09F0010E036E02D025
:10130000808000F00950D8A4C1D70850D8A4BED717
:101310000750D8A4BBD70650D8A4B8D70304D8A484
:10132000B5D780902A0E0001826F000E836F010EE8
:10133000846F9EEC09F0000E036EA8D7000E00012A
:10134000CC6F000ECB6F010EF66E100EF76E000E16
:10135000F86E0800F5CF75F0020EF66E100EF76EFF
:10136000000EF86E0800F5CFC6F0010EF66E100EF6
:10137000F76E000EF86E0800F550C625766F010E68
:10138000776F880E786F4EC079F0BAC07AF0B9C026
:101390007BF0BBC07CF0BCC07DF0ADC07EF0AEC0C9
:1013A0007FF0AFC080F0B0C081F0000ECB6F0D0EAB
:1013B000276E020ECB6501D015D02750010D750E9A
:1013C000F324D96E000EF420DA6ECB51010DA20E7B
:1013D000F324E16E000EF420E26EDFCFE7FFCB2BAB
:1013E000272AE7D7A20EBD6F000EBE6F030EBF6F98
:1013F00028EC0CF0BDC001F0BEC002F001C085F0C9
:1014000002500001866F000ECC6F010EF66E100EBA
:10141000F76E000EF86E0800F550C66FC76B020E2F
:10142000F66E100EF76E000EF86E0800F550C62727
:10143000000EC723020EC627000EC723CC51C86F6B
:10144000C96BC651C85DC951800ACA6FC751800AAD
:10145000CA59D8B01CD0CC51A025BF6F000EA12115
:10146000C06FCC51010D750EF324D96E000EF4201F
:10147000DA6EDF50C16FFEEC0BF0000E0001BE6FA4
:101480000A0EBD6FF6EC0DF00001CC2BBED71BECA5
:101490000EF010EC0EF0ACEC0CF012000001C16F7D
:1014A000000E0001C26F51D0000EC26FC251800900
:1014B000C26FC251DF0BC26FC2C0BFF03A0E80ECE8
:1014C0000DF0600E0001BF6F3F0E80EC0DF01200BA
:1014D000000E0001C26FC2514009C26FC2517F0BA2
:1014E000C26FC2C0BFF03A0E80EC0DF0000E0001DA
:1014F000C26FC2513809C26FC251FB0BC26FC2C06A
:10150000BFF03A0E80EC0DF01200000E0001C26F29
:10151000C251C009C26FC2C0BFF03A0E80EC0DF0DC
:10152000000E0001C26FC2513809C26FC251FB0BDD
:10153000C26FC2C0BFF03A0E80EC0DF0600E000129
:10154000BF6F3F0E80EC0DF012000001C151010A87
:10155000D8B4AAD7030AD8B4BBD7010AD8A41200BA
:10156000D4D7000E396E83CF39F039A002D00D2ABE
:1015700008D0020E0918D8B404D0000E0D6E000E6B
:10158000096E39A202D00C2A08D0020E0818D8B46D
:1015900004D0000E0C6E000E086E39A402D00B2A87
:1015A00008D0020E0718D8B404D0000E0B6E000E3F
:1015B000076E39A602D00A2A08D0020E0618D8B43F
:1015C00004D0000E0A6E000E066E0A0E0D6404D0E2
:1015D000010E096E000E0D6E0A0E0C6404D0010E91
:1015E000086E000E0C6E0A0E0B6404D0010E076E1E
:1015F000000E0B6E0A0E0A641200010E066E000E3B
:101600000A6E1200980E0001BF6F180E80EC0DF0EC
:10161000950E0001BF6F2E0E80EC0DF0020E000142
:10162000C06F010EBF6F010EC16FFEEC0BF026EC18
:101630000EF0020E0001C06F060EBF6F900EC16F5C
:10164000FEEC0BF0020E0001C06F070EBF6F800EA4
:10165000C16FFEEC0BF0020E0001C06F080EBF6FF1
:10166000100EC16FFEEC0BF0020E0001BF6F110EE9
:1016700080EC0DF0020E0001C06F200EBF6F210E36
:10168000C16FFEEC0BF0020E0001C06F2F0EBF6F9A
:101690000F0EC16FFEEC0BF012000001C16F000EC7
:1016A0000001C26F34D0000EC26F000EC26FC2C004
:1016B000BFF00D0E80EC0DF01200000E0001C26FA5
:1016C000000EC26FC2510809C26FC2C0BFF00D0E3A
:1016D00080EC0DF01200000E0001C26F000EC26F10
:1016E000C2510409C26FC2C0BFF00D0E80EC0DF0F4
:1016F0001200000E0001C26F000EC26FC25102093B
:10170000C26FC2C0BFF00D0E80EC0DF012000001E0
:10171000C151010AD8B4C7D7030AD8B4CED7010A39
:10172000D8B4D9D7070AD8A41200E3D70001C16FF3
:10173000000E0001C26F26D0000EC26F000EC26FF5
:10174000C2C0BFF0000E80EC0DF01200000E0001D0
:10175000C26F000EC26FC2510209C26FC2C0BFF099
:10176000000E80EC0DF01200000E0001C26F000EA2
:10177000C26FC2510109C26FC2C0BFF0000E80EC3F
:101780000DF012000001C151010AD8B4D5D7030AE7
:10179000D8B4DCD7010AD8A41200E6D7080EF66E3A
:1017A0001C0EF76E000EF86E00EEA5F010EE18F0AD
:1017B0000900F5CFEEFFE550E150FAE1F20EF66ECA
:1017C0001C0EF76E000EF86E0900F5CF4CF0090004
:1017D000F5CF4DF00900F5CF4EF000EE60F0450E6C
:1017E000EE6AE806FDE100EE01F0380EEE6AE8066A
:1017F000FDE14F904F920001E2EF08F0000E000172
:10180000C46F000EC56F8290BFC0C2F0C0C0C3F0ED
:10181000D890C333C233D890C333C233D890C333C4
:10182000C233C2517F0B8009C46FBF39E846E00B59
:10183000E00B1009C56FC4514CEC0EF00001C5510E
:101840004CEC0EF00001C1514CEC0EF08280120005
:101850008D0E0001C26F0D0EC16F000EC46F000E21
:10186000C36F0AD0BDC0D9FFBEC0DAFFDF50C06F62
:10187000C051C11BBD4BBE2BBF07BF29D8A4F2D797
:10188000C1C0C3F0C2C0C4F0C3C0BDF0C4C0BEF08C
:1018900012000001C76F1F0E0001C76502D01F0EA6
:1018A000C76FC75100081F0FC76FC7C0C6F01F0E14
:1018B000C617D890C637D890C637D890C635F80B1B
:1018C000C76F020EC06F030EBF6FC7C0C1F0FEEC42
:1018D0000BF012000001C16F000E0001C26F12D0A8
:1018E000000EC26FC2518009C26FC2C0BFF03E0E6F
:1018F00080EC0DF01200400E0001BF6F3E0E80EC38
:101900000DF012000001C151010AD8B4E9D7030A51
:10191000D8A41200F0D7000E8D6E000E8C6E0F0E44
:10192000896E0A0E8E6E000E8A6E000E8F6E030E8A
:101930008B6E9668FA0E976EC00E926E1F0E986EA2
:101940009368FC0E946E9568600E0F01256F0E0E65
:10195000246F0F0E236F1200000E346E34500109F5
:10196000346E34C0BFF01B0E80EC0DF0000E346EF0
:10197000310E32EC0DF0E806D8A4FAD7310E32EC75
:101980000DF0346E00F0000E346E240E32EC0DF0CB
:10199000346E00F01200000E0001C16F000EC16F26
:1019A000C1510809C16FC1C0BFF0000E80EC0DF03D
:1019B000000E0001C16FC151DF0BC16FC1C0BFF08C
:1019C000110E80EC0DF0FF0E0001BF6F100E80ECC9
:1019D0000DF01200000E0001C36F000EC36F070E62
:1019E000C36501D01200C351010DF350C125D96E5A
:1019F000F450C221DA6EDF50BF6FC351050F80EC87
:101A00000DF00001C32BEBD7C1C0D9FFC2C0DAFF74
:101A1000DF500001BF6F030E80EC0DF0000120EEDF
:101A200001F0C151D926C251DA22DF50BF6F040E36
:101A300080EC0DF01200C1C0D9FFC2C0DAFFDF5048
:101A40000001BF6F010E80EC0DF0000120EE01F0EF
:101A5000C151D926C251DA22DF50BF6F020E80EC8D
:101A60000DF012000001C06F000E0001BF6F8290E8
:101A7000C051C0257E0BC06FC0514CEC0EF03AEC4B
:101A80000EF00001BF6F8280BF511200040E0001F2
:101A9000BF6F360E80EC0DF0000E0001BF6F360EEA
:101AA00080EC0DF0000E0001BE6F140EBD6FF6EC61
:101AB0000DF01200000ED76EEC0ED66EEC0E00018B
:101AC000D06FF294F28AF60EBD6F1C0EBE6F000E40
:101AD000BF6F65EC0EF0D70ED56E120002EC0BF066
:101AE000010E4EEC0AF0020E6AEC0CF05EEC0EF009
:101AF0000F0E02EC08F043EC0EF046EC0DF0120075
:101B00000001C06F82900001C051C0257F0B010908
:101B1000C06FC0514CEC0EF00001BF514CEC0EF008
:101B200082801200C690C692C694C696949A9496E5
:101B3000C68AC78EC698C78C000E0001BE6F0A0EFB
:101B4000BD6FD9EC0DF012000001CD51CE11CF11B7
:101B5000D8B4120001D812000500FA6ECD51FD6E06
:101B6000CE51FE6ECF51FF6EFA501200000195511A
:101B700096119711D8B4120001D812000500FA6E20
:101B80009551FD6E9651FE6E9751FF6EFA50120000
:101B90008292000E0001BE6F0A0EBD6FF6EC0DF0D2
:101BA0008282000E0001BE6F0A0EBD6FF6EC0DF0D2
:101BB0001200000E0001C06F000EBF6F02D0BF4BBD
:101BC000C02BBD51BF5DBE51C059D8B01200F7D770
:101BD0008594600E0001BF6F0D0E80EC0DF0800E3D
:101BE0000001BF6F220E80EC0DF01200000E00010C
:101BF000C06F000EBF6FBD4BBE2B100EBD5D270E1C
:101C0000BE59D8B01200F7D701010101010101014D
:101C100003030101020202020202020203030202A2
:101C2000000E0001C16F000EC16FC1C0BFF01B0EDE
:101C300080EC0DF01200000E0001C16F000EC16FAC
:101C4000C1C0BFF01B0E80EC0DF01200020E0001AF
:101C5000C06F020EBF6F800EC16FFEEC0BF0120062
:101C6000600ED36E000E646E000E9B6E000E0F01B0
:101C70002A6F1200C968C7A0FED7C9CFBDF09E96D3
:101C80000001BD5112008584000E0001BE6F0A0ED6
:101C9000BD6FF6EC0DF012000001BE6FBEC0C9FFB3
:101CA000C7A0FED7C9CFBDF0120076EC0EF08BECCA
:101CB0000CF030EC0EF05AEC0DF01200F70E0001B3
:101CC000BF6F320E80EC0DF01200BDC0CDF0BEC073
:101CD000CEF0BFC0CFF01200F294D0C0D6FFA4EC7B
:101CE0000DF01200F292B6EC0DF01200D08EF184DD
:051CF0001200000323B7
:041CF60012001200C6
:020000040020DA
:08000000FFFFFFFFFFFFFFFF00
:020000040030CA
:0E00000015037F7C018991FFFFC0FFE0FF40E8
:00000001FF
