:040000008DEF00F090
:060008004F82D6EF0BF061
:100018004F80D8CFCBF0E8CFCCF0E0CFCDF0FACFFF
:10002800CEF0FBCFCFF0E9CFD0F0EACFD1F0E1CFDF
:10003800D2F0E2CFD3F0D9CFD4F0DACFD5F0F3CFE6
:10004800D6F0F4CFD7F0F6CFD8F0F7CFD9F0F8CF75
:10005800DAF0F5CFDBF04FC0DCF050C0DDF051C076
:10006800DEF052C0DFF0F2BAF2A427D0032A000172
:100078009D5199191AE19E519A19D8A416D0400E8B
:100088007219D8A412D08096000E726F400E6D6F50
:100098008FC06EF0000EBC6F320EBB6FE1EC10F03B
:1000A80026EC0BF0808600F000F0020E036403D00B
:1000B800010E0001A86F94EC11F0DFC052F0DEC011
:1000C80051F0DDC050F0DCC04FF0DBC0F5FFDAC006
:1000D800F8FFD9C0F7FFD8C0F6FFD7C0F4FFD6C0E5
:1000E800F3FFD5C0DAFFD4C0D9FFD3C0E2FFD2C036
:1000F800E1FFD1C0EAFFD0C0E9FFCFC0FBFFCEC00F
:10010800FAFFCDC0E0FFCCC0E8FFCBC0D8FF4F90CE
:060118001000CFEF0DF016
:1010000000B37149335340401C4633533A0B05003B
:10101000000E386E000E396E000E386E385004091E
:10102000386E38C02CF0390EB6EC10F0030E2D6E71
:10103000000E2C6E53EC0EF0286E00F0000E396E90
:101040007F0E396401D06AD00E0EF66E100EF76E68
:10105000000EF86E0800F550336E346A0D0EF66E11
:10106000100EF76E000EF86E0800F5503326000ED5
:101070003422050E3326000E34223950356E366A7E
:101080003350355C3650800A376E3450800A3758FA
:10109000D8B012D03950010D000EF324D96E010ED4
:1010A000F420DA6E39500001EC252C6E000EED2193
:1010B0002D6E53EC0EF0DF6E0E0EF66E100EF76E08
:1010C000000EF86E0800F550336E346A0D0EF66EA1
:1010D000100EF76E000EF86E0800F5503326000E65
:1010E0003422050E3326000E34223950356E366A0E
:1010F0003350355C3650800A376E3450800A37588A
:10110000D8A00AD039500001EC252C6E000EED213C
:101110002D6E53EC0EF0226E392A92D70D0EF66E1C
:10112000100EF76E000EF86E0800F550336E346A3C
:10113000010E3326000E3422000E3324D96E010E28
:101140003420DA6EDF500001B36F0D0EF66E100E14
:10115000F76E000EF86E0800F550336E346A020E1A
:101160003326000E3422000E3324D96E010E3420B3
:10117000DA6EDF50B46F0D0EF66E100EF76E000EC5
:10118000F86E0800F550336E346A030E3326000EF5
:101190003422000E3324D96E010E3420DA6EDF5073
:1011A000B56F0D0EF66E100EF76E000EF86E08009D
:1011B000F550336E346A040E3326000E3422000ECE
:1011C0003324D96E010E3420DA6EDF50B66F0D0E67
:1011D000F66E100EF76E000EF86E0800F550336EC6
:1011E000346A050E3326000E3422000E3324D96EE5
:1011F000010E3420DA6EDF50B76F0D0EF66E100E52
:10120000F76E000EF86E0800F550336E346A0E0E5D
:10121000F66E100EF76E000EF86E0800F5503326CD
:10122000000E3422030E3326000E3422000E332427
:10123000D96E010E3420DA6EDF50246E0D0EF66E7C
:10124000100EF76E000EF86E0800F550336E346A1B
:101250000E0EF66E100EF76E000EF86E0800F550CA
:101260003326000E3422040E3326000E3422000EE4
:101270003324D96E010E3420DA6EDF50236E000E57
:10128000386E000E386E38C02CF0390EB6EC10F007
:101290001200000E01012A6F640E296FD3EC10F0CA
:1012A000000E01012A6F640E296FD3EC10F0000EBE
:1012B00001012A6F640E296FD3EC10F0000E0101BA
:1012C0002A6F640E296FD3EC10F0FCEC10F0000EC6
:1012D00001012A6F0A0E296FD3EC10F03DEC10F0DB
:1012E000000E01012A6F0A0E296FD3EC10F085EC75
:1012F00010F0F1EC0FF0C5EC10F0EE0E01012D6FC7
:10130000000E2E6F7AEC0FF0F80E01012D6F000E1B
:101310002E6FAEEC0FF0F60E01012D6F000E2E6F4A
:10132000C5EC0FF019EC10F021EC0FF01F0E9EEC45
:101330000EF0010E4EEC0DF0010E97EC0DF04BECA3
:1013400011F0010E0001B16F010EB06F000E01012E
:101350002A6F0A0E296FD3EC10F0010E0001AE6F58
:10136000F28EF28CF28C00019D51991916E19E517A
:101370009A19D8A412D02A0E7219D8A40ED07405C6
:10138000D8A40BD05FEC0FF073C0AFF0000E0001DB
:10139000726F010EA26F809201D08082A205D8A444
:1013A00068D0000EA26FAF51A7EC0CF0000E010147
:1013B0002A6F640E296FD3EC10F0000E01012A6F22
:1013C000640E296FD3EC10F0000E01012A6F640E39
:1013D000296FD3EC10F0000E01012A6F640E296F03
:1013E000D3EC10F0000E01012A6F640E296FD3ECCC
:1013F00010F0000E01012A6F640E296FD3EC10F07B
:10140000000E01012A6F640E296FD3EC10F0000E5C
:1014100001012A6F640E296FD3EC10F0000E010158
:101420002A6F640E296FD3EC10F0000E01012A6FB1
:10143000640E296FD3EC10F0000E01012A6F640EC8
:10144000296FD3EC10F0000E01012A6F640E296F92
:10145000D3EC10F0000E01012A6F640E296FD3EC5B
:1014600010F0000E01012A6F640E296FD3EC10F00A
:101470007AD785968598859A859C859E8390839258
:10148000839483968398839A839C6DD70101326FEE
:101490001B0E0101326103D00B0E3261A2D00B0E84
:1014A000326F9FD0020E2C6F000E2B6F020E2D6F2D
:1014B000FFEC0DF0C8D0020E01012C6F000E2B6F57
:1014C000120E2D6FFFEC0DF0BED0020E01012C6F3D
:1014D000000E2B6F220E2D6FFFEC0DF0B4D0020E1C
:1014E00001012C6F000E2B6F320E2D6FFFEC0DF0F3
:1014F000AAD0020E01012C6F000E2B6F420E2D6F31
:10150000FFEC0DF0A0D0020E01012C6F000E2B6F2E
:10151000520E2D6FFFEC0DF096D0020E01012C6FD4
:10152000000E2B6F620E2D6FFFEC0DF08CD0020EB3
:1015300001012C6F000E2B6F720E2D6FFFEC0DF062
:1015400082D0020E01012C6F000E2B6F820E2D6FC8
:10155000FFEC0DF078D0020E01012C6F000E2B6F06
:10156000920E2D6FFFEC0DF06ED0020E01012C6F6C
:10157000000E2B6FA20E2D6FFFEC0DF064D0020E4B
:1015800001012C6F000E2B6FB20E2D6FFFEC0DF0D2
:101590005AD0020E01012C6F000E2B6FC20E2D6F60
:1015A000FFEC0DF050D0020E01012C6F000E2B6FDE
:1015B000D20E2D6FFFEC0DF046D0020E01012C6F04
:1015C000000E2B6FE20E2D6FFFEC0DF03CD0020EE3
:1015D00001012C6F000E2B6FF20E2D6FFFEC0DF042
:1015E00032D0010132510B0AD8B45CD7070AD8B403
:1015F00062D7010AD8B469D7030AD8B470D7010AF0
:10160000D8B477D71F0AD8B47ED7010AD8B485D703
:10161000030AD8B48CD7010AD8B493D7070AD8B430
:101620009AD7010AD8B4A1D7030AD8B4A8D7010A17
:10163000D8B4AFD70F0AD8B4B6D7010AD8B4BDD73B
:10164000030AD8B4C4D7F1EC0FF01200000E000169
:10165000CA6F000EC96F0D0EF66E100EF76E000EFB
:10166000F86E0800F5CF60F00E0EF66E100EF76EF5
:10167000000EF86E0800F5CFC4F00D0EF66E100ED9
:10168000F76E000EF86E0800F550C425616F010E6C
:10169000626F880E636F4EC064F0F7C065F0F6C0ED
:1016A00066F0F8C067F0F9C068F0E8C069F0E9C01A
:1016B0006AF0EAC06BF0EBC06CF0000EC96F0D0E63
:1016C0001B6E020EC96501D015D01B50010D600EB6
:1016D000F324D96E000EF420DA6EC951010DB80E54
:1016E000F324E16E000EF420E26EDFCFE7FFC92B9A
:1016F0001B2AE7D7B80EBB6F000EBC6F030EBD6F81
:10170000E0EC0EF0BBC09BF0BCC09CF09BC070F046
:1017100000019C51716F000ECA6F0D0EF66E100E17
:10172000F76E000EF86E0800F550C46FC56B0E0E14
:10173000F66E100EF76E000EF86E0800F550C42716
:10174000000EC523020EC427000EC523CA51C66F62
:10175000C76BC451C65DC751800AC86FC551800AA6
:10176000C859D8B01CD0CA519F25BD6F000EA0210A
:10177000BE6FCA51010D600EF324D96E000EF42025
:10178000DA6EDF50BF6F29EC0EF0000E0001BC6F67
:101790000A0EBB6FE1EC10F00001CA2BBED72CEC97
:1017A00011F021EC11F040EC0FF01200FACF3CF0F8
:1017B000FBCF3DF0E9CF3EF0EACF3FF0E1CF40F084
:1017C000E2CF41F0D9CF42F0DACF43F0F3CF44F08B
:1017D000F4CF45F0F6CF46F0F7CF47F0F8CF48F01A
:1017E000F5CF49F04FC04AF050C04BF051C04CF01B
:1017F00052C04DF0F2B8F2A221D0310E96EC10F0AA
:10180000296E29A619D0F29E08EC08F0F28EB30ECC
:101810002A6E000E2B6E030E2C6E01EC0FF02AC008
:1018200099F02BC09AF00001B7513A6EB6519D6FF6
:101830003AC09EF094EC0FF09AEC11F04DC052F0CB
:101840004CC051F04BC050F04AC04FF049C0F5FFBA
:1018500048C0F8FF47C0F7FF46C0F6FF45C0F4FF99
:1018600044C0F3FF43C0DAFF42C0D9FF41C0E2FFEA
:1018700040C0E1FF3FC0EAFF3EC0E9FF3DC0FBFFC3
:101880003CC0FAFF4F92110001012D6F000E0101C3
:101890002E6F51D0000E2E6F2E5180092E6F2E51BB
:1018A000DF0B2E6F2EC12BF13A0E2BEC10F0600ED9
:1018B00001012B6F3F0E2BEC10F01200000E010106
:1018C0002E6F2E5140092E6F2E517F0B2E6F2EC181
:1018D0002BF13A0E2BEC10F0000E01012E6F2E5161
:1018E00038092E6F2E51FB0B2E6F2EC12BF13A0EA5
:1018F0002BEC10F01200000E01012E6F2E51C009CA
:101900002E6F2EC12BF13A0E2BEC10F0000E0101C0
:101910002E6F2E5138092E6F2E51FB0B2E6F2EC1BC
:101920002BF13A0E2BEC10F0600E01012B6F3F0EE5
:101930002BEC10F0120001012D51010AD8B4AAD7E6
:10194000030AD8B4BBD7010AD8A41200D4D7010126
:10195000296F3ED085968598859A859C859E839033
:101960008392839483968398839A839C000E0001CC
:101970008F6F120085868380010E00018F6F120029
:1019800085868382020E00018F6F12008586838414
:10199000040E00018F6F120085868386080E0001F9
:1019A0008F6F12008586838812008586838A1200D5
:1019B0008586838C120085968598859A859C859E60
:1019C00083908392839483968398839A839C120056
:1019D00001012951000AD8B4BDD7010AD8B4CAD729
:1019E000030AD8B4CDD7010AD8B4D0D7070AD8B4DF
:1019F000D3D7010AD8B4D6D7030AD8B4D6D7010AA8
:101A0000D8B4D6D7D8D7980E01012B6F180E2BEC6F
:101A100010F0950E01012B6F2E0E2BEC10F0020E24
:101A200001012C6F010E2B6F010E2D6FFFEC0DF0DD
:101A300037EC11F0020E01012C6F060E2B6F900E89
:101A40002D6FFFEC0DF0020E01012C6F070E2B6FB6
:101A5000800E2D6FFFEC0DF0020E01012C6F080EB1
:101A60002B6F100E2D6FFFEC0DF0020E01012B6F8E
:101A7000110E2BEC10F0020E01012C6F200E2B6FBB
:101A8000210E2D6FFFEC0DF0020E01012C6F2F0EB9
:101A90002B6F0F0E2D6FFFEC0DF0120001012D6F5B
:101AA000000E01012E6F34D0000E2E6F000E2E6F2F
:101AB0002EC12BF10D0E2BEC10F01200000E0101C7
:101AC0002E6F000E2E6F2E5108092E6F2EC12BF196
:101AD0000D0E2BEC10F01200000E01012E6F000E07
:101AE0002E6F2E5104092E6F2EC12BF10D0E2BECF3
:101AF00010F01200000E01012E6F000E2E6F2E51FD
:101B000002092E6F2EC12BF10D0E2BEC10F01200DE
:101B100001012D51010AD8B4C7D7030AD8B4CED7D2
:101B2000010AD8B4D9D7070AD8A41200E3D7010113
:101B30002D6F000E01012E6F26D0000E2E6F000EAD
:101B40002E6F2EC12BF1000E2BEC10F01200000EA8
:101B500001012E6F000E2E6F2E5102092E6F2EC125
:101B60002BF1000E2BEC10F01200000E01012E6F75
:101B7000000E2E6F2E5101092E6F2EC12BF1000E7B
:101B80002BEC10F0120001012D51010AD8B4D5D769
:101B9000030AD8B4DCD7010AD8A41200E6D7DE0EB7
:101BA000F66E210EF76E000EF86E00EEE0F010EE0D
:101BB0001AF00900F5CFEEFFE550E150FAE1460ECC
:101BC000F66E230EF76E000EF86E0900F5CF4EF09C
:101BD00001EE00F0290EEE6AE806FDE100EE60F08D
:101BE0005B0EEE6AE806FDE100EE01F0290EEE6AFA
:101BF000E806FDE14F904F92000149EF09F0000E19
:101C00000101306F000E316F82902BC12EF12CC17B
:101C10002FF1D8902F332E33D8902F332E33D890E6
:101C20002F332E332E517F0B8009306F2B39E8462E
:101C3000E00BE00B1009316F305154EC11F0010151
:101C4000315154EC11F001012D5154EC11F082800E
:101C50001200000E0001C26F000EC36F8290BDC063
:101C6000C0F0BEC0C1F0D890C133C033D890C133EA
:101C7000C033D890C133C033C0517F0B8009C26FCD
:101C8000BD39E846E00BE00B1009C36FC25166ECAA
:101C900011F00001C35166EC11F00001BF5166EC78
:101CA00011F082801200000E306E000E316E000EB8
:101CB000326E82902CC02EF02DC02FF0D8902F3293
:101CC0002E32D8902F322E32D8902F322E322E50E4
:101CD0007F0B8009316E2C38E846E00BE00B326E4A
:101CE00031506FEC11F032506FEC11F077EC11F0D5
:101CF000306E828030501200040E8D6E000E8C6E9D
:101D00000F0E896E000E8E6E010E8A6E000E8F6EA3
:101D1000030E8B6E9668020E976EC00E926E1F0EAB
:101D2000986E9368FC0E946E800E956E000E0F01F7
:101D3000256F000E246F0F0E236F12000101336F09
:101D40001F0E0101336502D01F0E336F335100089F
:101D50001F0F336F33C132F11F0E3217D890323755
:101D6000D8903237D8903235F80B336F020E2C6F83
:101D7000030E2B6F33C12DF1FFEC0DF012000101AA
:101D80002D6F000E01012E6F12D0000E2E6F2E51FE
:101D900080092E6F2EC12BF13E0E2BEC10F012009D
:101DA000400E01012B6F3E0E2BEC10F012000101D2
:101DB0002D51010AD8B4E9D7030AD8A41200F0D7EC
:101DC0008D0E0001C06F0D0EBF6F000EC26F000EB2
:101DD000C16F0AD0BBC0D9FFBCC0DAFFDF50BE6FF5
:101DE000BE51BF1BBB4BBC2BBD07BD29D8A4F2D72E
:101DF000BFC0C1F0C0C0C2F0C1C0BBF0C2C0BCF027
:101E000012008D0E2F6E0D0E2E6E000E316E000E16
:101E1000306E0AD02AC0D9FF2BC0DAFFDF502D6EFA
:101E20002D502E1A2A4A2B2A2C062C28D8A4F2D759
:101E30002EC030F02FC031F030C02AF031C02BF06E
:101E40001200000E01012D6F000E2D6F2D5108099B
:101E50002D6F2DC12BF1000E2BEC10F0000E0101A7
:101E60002D6F2D51DF0B2D6F2DC12BF1110E2BEC92
:101E700010F0FF0E01012B6F100E2BEC10F0120072
:101E8000000E276E27500109276E27C0BDF01B0EDC
:101E90004FEC10F0000E276E310E05EC10F0E80646
:101EA000D8A4FAD7310E05EC10F0276E00F0000E22
:101EB000276E240E05EC10F0276E00F01200000EC5
:101EC00001012A6F000E296F000E2A6F000E296F84
:101ED0002A510FE1060E295DD8B01200B30E292554
:101EE000D96E000E2A21DA6E000EDF6E294B2A2BE6
:101EF000EFD71200000E01012F6F000E2F6F070E9B
:101F00002F6501D012002F51010DF3502D25D96EF0
:101F1000F4502E21DA6EDF502B6F2F51050F2BEC72
:101F200010F001012F2BEBD7000E2A6E050E2A644C
:101F300001D012002A50010DB30EF324D96E000E09
:101F4000F420DA6E2A50010D720EF324E16E000EB9
:101F5000F420E26EDFCFE7FF2A2AE8D72DC1D9FFB0
:101F60002EC1DAFFDF5001012B6F030E2BEC10F0B6
:101F7000010120EE01F02D51D9262E51DA22DF5039
:101F80002B6F040E2BEC10F012002DC1D9FF2EC1C7
:101F9000DAFFDF5001012B6F010E2BEC10F0010175
:101FA00020EE01F02D51D9262E51DA22DF502B6F71
:101FB000020E2BEC10F01200000ED76EF80ED66E4B
:101FC000F80E0001B26FF294F28A420E0101296FFD
:101FD000230E2A6F000E2B6F86EC11F0D70ED56EF4
:101FE0001200040E01012B6F360E2BEC10F0000EC8
:101FF00001012B6F360E2BEC10F0000E01012A6F41
:10200000140E296FD3EC10F012000001BE6F000E09
:102010000001BD6F8290BE51BE257E0BBE6FBE51CA
:1020200066EC11F05DEC11F00001BD6F8280BD51D6
:10203000120003EC0DF0010E44EC0CF0020EBFECAC
:102040000EF07FEC11F00F0E46EC0AF04BEC11F0A5
:10205000F1EC0FF0120001012C6F829001012C5164
:102060002C257F0B01092C6F2C5154EC11F0010130
:102070002B5154EC11F082801200C690C692C69487
:10208000C696949A9496C68AC78EC698C78C000E38
:1020900001012A6F0A0E296FA7EC10F0120000014F
:1020A000BE6F82900001BE51BE257F0B0109BE6F3D
:1020B000BE5166EC11F00001BD5166EC11F082805A
:1020C000120000018C518D118E11D8B4120001D86C
:1020D00012000500FA6E8C51FD6E8D51FE6E8E5110
:1020E000FF6EFA501200000189518A118B11D8B489
:1020F000120001D812000500FA6E8951FD6E8A5156
:10210000FE6E8B51FF6EFA5012008292000E01019A
:102110002A6F0A0E296FD3EC10F08282000E0101A3
:102120002A6F0A0E296FD3EC10F012002C6E000EED
:102130002D6E82902C502C247E0B2C6E2C506FEC2C
:1021400011F077EC11F02D6E82802D501200000EF0
:1021500001012C6F000E2B6F02D02B4B2C2B295121
:102160002B5D2A512C59D8B01200F7D72D6E8290D2
:102170002D502D247F0B01092D6E2D506FEC11F089
:102180002C506FEC11F0828012008594600E0101DA
:102190002B6F0D0E2BEC10F0800E01012B6F220E19
:1021A0002BEC10F01200000E01012C6F000E2B6FB3
:1021B000294B2A2B100E295D270E2A59D8B0120060
:1021C000F7D7000E0001BE6F000EBD6FBB4BBC2BDE
:1021D000100EBB5D270EBC59D8B01200F7D7010115
:1021E00001010101010103030101000302020202D6
:1021F00002020202030302029EEC11F07CEC0EF0DC
:1022000041EC11F009EC11F0DCEC0FF016EC11F0E0
:102210001200F292F19C440E0101296F230E2A6FE5
:10222000000E2B6F8DEC11F0F2881200190EC26EA9
:10223000000EC16EA50EC06E000EC46E000EC36E01
:102240001200000E0001BF6F000EBF6FBFC0BDF0D7
:102250001B0E4FEC10F01200000E0001BF6F000EBD
:10226000BF6FBFC0BDF01B0E4FEC10F01200020E8E
:1022700001012C6F020E2B6F800E2D6FFFEC0DF005
:102280001200600ED36E000E646E000E9B6E000E88
:102290000F012A6F12008584000E01012A6F0A0EB9
:1022A000296FD3EC10F0120001012A6F2AC1C9FF77
:1022B000C7A0FED7C9CF29F11200C968C7A0FED7B1
:1022C000C9CFBBF09E960001BB5112000001BC6F4C
:1022D000BCC0C9FFC7A0FED7C9CFBBF012002B6E90
:1022E0002BC0C9FFC7A0FED7C9CF2AF01200C9680A
:1022F000C7A0FED7C9CF2AF09E962A501200F70E2B
:1023000001012B6F320E2BEC10F0120029C18CF062
:102310002AC18DF02BC18EF0120029C189F02AC18B
:102320008AF02BC18BF01200F294B2C0D6FF61ECA0
:1023300010F01200F29273EC10F01200D08EF194B3
:07234000120012001200233D
:020000040020DA
:08000000FFFFFFFFFFFFFFFF00
:020000040030CA
:0E00000015187F7C018991FFFFC0FFE0FF40D3
:00000001FF
