:0400000070EF00F0AD
:06000800498289EF0BF0B4
:100018004980D8CFD0F0E8CFD1F0E0CFD2F0FACFF6
:10002800D3F0FBCFD4F0E9CFD5F0EACFD6F0E1CFCB
:10003800D7F0E2CFD8F0D9CFD9F0DACFDAF0F3CFD2
:10004800DBF0F4CFDCF0F6CFDDF0F7CFDEF0F8CF61
:10005800DFF0F5CFE0F049C0E1F04AC0E2F04BC074
:10006800E3F04CC0E4F0F2BAF2A40AD0052A140E68
:10007800056404D05AEC0CF0000E056ECFEC10F0BD
:10008800E4C04CF0E3C04BF0E2C04AF0E1C049F0F4
:10009800E0C0F5FFDFC0F8FFDEC0F7FFDDC0F6FF08
:1000A800DCC0F4FFDBC0F3FFDAC0DAFFD9C0D9FF48
:1000B800D8C0E2FFD7C0E1FFD6C0EAFFD5C0E9FF4C
:1000C800D4C0FBFFD3C0FAFFD2C0E0FFD1C0E8FF25
:0C00D800D0C0D8FF49901000EBEF0DF0F5
:10100000000B0500000E336E000E346E000E336EC2
:1010100033500409336E33C027F0390E14EC10F04E
:10102000030E286E000E276E9EEC0DF0236E00F06E
:10103000000E346E7F0E346401D06AD0020EF66E5C
:10104000100EF76E000EF86E0800F5502E6E2F6A27
:10105000010EF66E100EF76E000EF86E0800F550D9
:101060002E26000E2F22050E2E26000E2F22345083
:10107000306E316A2E50305C3150800A326E2F5003
:10108000800A3258D8B012D03450010D600EF324CB
:10109000D96E000EF420DA6E34500001C025276EA0
:1010A000000EC121286E9EEC0DF0DF6E020EF66E72
:1010B000100EF76E000EF86E0800F5502E6E2F6AB7
:1010C000010EF66E100EF76E000EF86E0800F55069
:1010D0002E26000E2F22050E2E26000E2F22345013
:1010E000306E316A2E50305C3150800A326E2F5093
:1010F000800A3258D8A00AD034500001C025276E8B
:10110000000EC121286E9EEC0DF01E6E342A92D77F
:10111000010EF66E100EF76E000EF86E0800F55018
:101120002E6E2F6A010E2E26000E2F22600E2E2408
:10113000D96E000E2F20DA6EDF500001AC6F010E69
:10114000F66E100EF76E000EF86E0800F5502E6E5B
:101150002F6A020E2E26000E2F22600E2E24D96E2C
:10116000000E2F20DA6EDF50AD6F010EF66E100EFE
:10117000F76E000EF86E0800F5502E6E2F6A030E03
:101180002E26000E2F22600E2E24D96E000E2F2048
:10119000DA6EDF50AE6F010EF66E100EF76E000EB7
:1011A000F86E0800F5502E6E2F6A040E2E26000EE3
:1011B0002F22600E2E24D96E000E2F20DA6EDF5003
:1011C000AF6F010EF66E100EF76E000EF86E08008F
:1011D000F5502E6E2F6A050E2E26000E2F22600E61
:1011E0002E24D96E000E2F20DA6EDF50B06F010E64
:1011F000F66E100EF76E000EF86E0800F5502E6EAB
:101200002F6A020EF66E100EF76E000EF86E0800D2
:10121000F5502E26000E2F22030E2E26000E2F2212
:10122000600E2E24D96E000E2F20DA6EDF50206E55
:10123000010EF66E100EF76E000EF86E0800F550F7
:101240002E6E2F6A020EF66E100EF76E000EF86EFE
:101250000800F5502E26000E2F22040E2E26000E1A
:101260002F22600E2E24D96E000E2F20DA6EDF5052
:101270001F6E000E336E000E336E33C027F0390E32
:1012800014EC10F012000101096F1B0E010109613D
:1012900003D00B0E0961A2D00B0E096F9FD0020E76
:1012A000036F000E026F020E046F74EC0DF0C8D0D5
:1012B000020E0101036F000E026F120E046F74EC38
:1012C0000DF0BED0020E0101036F000E026F220E60
:1012D000046F74EC0DF0B4D0020E0101036F000E28
:1012E000026F320E046F74EC0DF0AAD0020E0101F1
:1012F000036F000E026F420E046F74EC0DF0A0D06D
:10130000020E0101036F000E026F520E046F74ECA7
:101310000DF096D0020E0101036F000E026F620EF7
:10132000046F74EC0DF08CD0020E0101036F000EFF
:10133000026F720E046F74EC0DF082D0020E010188
:10134000036F000E026F820E046F74EC0DF078D004
:10135000020E0101036F000E026F920E046F74EC17
:101360000DF06ED0020E0101036F000E026FA20E8F
:10137000046F74EC0DF064D0020E0101036F000ED7
:10138000026FB20E046F74EC0DF05AD0020E010120
:10139000036F000E026FC20E046F74EC0DF050D09C
:1013A000020E0101036F000E026FD20E046F74EC87
:1013B0000DF046D0020E0101036F000E026FE20E27
:1013C000046F74EC0DF03CD0020E0101036F000EAF
:1013D000026FF20E046F74EC0DF032D0010109516E
:1013E0000B0AD8B45CD7070AD8B462D7010AD8B4BC
:1013F00069D7030AD8B470D7010AD8B477D71F0ABF
:10140000D8B47ED7010AD8B485D7030AD8B48CD70C
:10141000010AD8B493D7070AD8B49AD7010AD8B426
:10142000A1D7030AD8B4A8D7010AD8B4AFD70F0AF6
:10143000D8B4B6D7010AD8B4BDD7030AD8B4C4D734
:1014400075EC0FF01200000E01010F6F000E0E6F11
:10145000010EF66E100EF76E000EF86E0800F5CF56
:1014600075F0020EF66E100EF76E000EF86E0800A4
:10147000F5CF09F1010EF66E100EF76E000EF86E44
:101480000800F55009250001766F010E776F880E70
:10149000786FC2C079F0CCC07AF0CBC07BF0CDC001
:1014A0007CF0CEC07DF0BCC07EF0BDC07FF0BEC081
:1014B00080F0BFC081F0000E01010E6F0D0E000123
:1014C000A86F020E01010E6501D018D00001A851CD
:1014D000010D750EF324D96E000EF420DA6E0101B1
:1014E0000E51010DB10EF324E16E000EF420E26EF8
:1014F000DFCFE7FF0E2B0001A82BE3D7B10E006F63
:10150000000E016F030E026F0CEC0EF000C196F09E
:1015100001C197F096C085F000019751866F000ECB
:1015200001010F6F010EF66E100EF76E000EF86ED1
:101530000800F550096F0A6B020EF66E100EF76E7A
:10154000000EF86E0800F5500927000E0A23020E5F
:101550000927000E0A230F510B6F0C6B09510B5D0D
:101560000C51800A0D6F0A51800A0D59D8B020D055
:101570000F5100019A250101026F000E00019B210D
:101580000101036F0F51010D750EF324D96E000E8A
:10159000F420DA6EDF50046F74EC0DF0000E0101E0
:1015A000016F0A0E006F31EC10F001010F2BBAD75A
:1015B00065EC10F05AEC10F0C7EC0DF0120070EC76
:1015C00010F0000E0101016F640E006F31EC10F09D
:1015D000000E0101016F640E006F31EC10F0000E7F
:1015E0000101016F640E006F31EC10F0000E01017B
:1015F000016F640E006F31EC10F070EC10F0ADEC88
:101600000FF0000E0101016F0A0E006F31EC10F0B7
:10161000E3EC0FF075EC0FF023EC10F0C30E0101BA
:10162000046F000E056FEAEC0EF0CD0E0101046FA1
:10163000000E056F1EEC0FF0CB0E0101046F000EC3
:10164000056F35EC0FF089EC0FF0B0EC0EF01F0ECB
:101650002DEC0EF0010EF3EC0CF0010E3CEC0DF055
:1016600098EC10F0010E0001AB6F010EAA6F000E96
:101670000101016F0A0E006F31EC10F0010E000144
:10168000A76FF28EF28CF28C868800019851941923
:10169000FCE199519519D8A4F8D7CFEC0EF00001D0
:1016A000A005D8A40AD086882A0E826F010E836F07
:1016B000010E846F23EC0AF0E8D700019F05D8A43F
:1016C0000AD086882A0E826F020E836F010E846F05
:1016D00023EC0AF0DAD700019E05D8A40AD0868848
:1016E0002A0E826F030E836F010E846F23EC0AF0C3
:1016F000CCD700019D05D8A40AD086882A0E826F17
:10170000040E836F010E846F23EC0AF0BED7869817
:10171000BCD7FACF37F0FBCF38F0E9CF39F0EACFBA
:101720003AF0E1CF3BF0E2CF3CF0D9CF3DF0DACF59
:101730003EF0F3CF3FF0F4CF40F0F6CF41F0F7CFDB
:1017400042F0F8CF43F0F5CF44F049C045F04AC02D
:1017500046F04BC047F04CC048F0F2B8F2A221D09E
:10176000310EF4EC0FF0246E24A619D0F29E02EC98
:1017700008F0F28EAC0E256E000E266E030E276E5C
:1017800090EC0EF025C094F026C095F00001B05109
:10179000356EAF51986F35C099F004EC0FF0D5EC71
:1017A00010F048C04CF047C04BF046C04AF045C06E
:1017B00049F044C0F5FF43C0F8FF42C0F7FF41C005
:1017C000F6FF40C0F4FF3FC0F3FF3EC0DAFF3DC06C
:1017D000D9FF3CC0E2FF3BC0E1FF3AC0EAFF39C09D
:1017E000E9FF38C0FBFF37C0FAFF49921100010141
:1017F000046F000E0101056F51D0000E056F0551F9
:101800008009056F0551DF0B056F05C102F13A0E26
:101810009BEC0FF0600E0101026F3F0E9BEC0FF08E
:101820001200000E0101056F05514009056F0551B9
:101830007F0B056F05C102F13A0E9BEC0FF0000E15
:101840000101056F05513809056F0551FB0B056F47
:1018500005C102F13A0E9BEC0FF01200000E0101DF
:10186000056F0551C009056F05C102F13A0E9BECE9
:101870000FF0000E0101056F05513809056F055184
:10188000FB0B056F05C102F13A0E9BEC0FF0600EE9
:101890000101026F3F0E9BEC0FF012000101045199
:1018A000010AD8B4AAD7030AD8B4BBD7010AD8A46E
:1018B0001200D4D7000E0001CF6F80CFCFF0CFA1A0
:1018C00005D0000E046E000EA06F04D0020EA01909
:1018D000D8A4042ACFA305D0000E036E000E9F6F7C
:1018E00004D0020E9F19D8A4032ACFA505D0000E5C
:1018F000026E000E9E6F04D0020E9E19D8A4022A1A
:10190000CFA705D0000E016E000E9D6F04D0020E11
:101910009D19D8A4012A0A0E046404D0010EA06FF8
:10192000000E046E0A0E036404D0010E9F6F000EB9
:10193000036E0A0E026404D0010E9E6F000E026E4A
:101940000A0E01641200010E9D6F000E016E12005E
:10195000980E0101026F180E9BEC0FF0950E01011D
:10196000026F2E0E9BEC0FF0020E0101036F010EB1
:10197000026F010E046F74EC0DF07BEC10F0020EA0
:101980000101036F060E026F900E046F74EC0DF0F0
:10199000020E0101036F070E026F800E046F74ECDC
:1019A0000DF0020E0101036F080E026F100E046F9E
:1019B00074EC0DF0020E0101026F110E9BEC0FF0A2
:1019C000020E0101036F200E026F210E046F74ECF2
:1019D0000DF0020E0101036F2F0E026F0F0E046F48
:1019E00074EC0DF012000101046F000E0101056F8F
:1019F00034D0000E056F000E056F05C102F10D0E0B
:101A00009BEC0FF01200000E0101056F000E056F38
:101A100005510809056F05C102F10D0E9BEC0FF091
:101A20001200000E0101056F000E056F055104093B
:101A3000056F05C102F10D0E9BEC0FF01200000EB8
:101A40000101056F000E056F05510209056F05C103
:101A500002F10D0E9BEC0FF0120001010451010A7E
:101A6000D8B4C7D7030AD8B4CED7010AD8B4D9D7C7
:101A7000070AD8A41200E3D70101046F000E010188
:101A8000056F26D0000E056F000E056F05C102F12F
:101A9000000E9BEC0FF01200000E0101056F000E0E
:101AA000056F05510209056F05C102F1000E9BEC9F
:101AB0000FF01200000E0101056F000E056F0551B9
:101AC0000109056F05C102F1000E9BEC0FF0120039
:101AD00001010451010AD8B4D5D7030AD8B4DCD720
:101AE000010AD8A41200E6D7000E0101076F000E0C
:101AF000086F849402C105F103C106F1D890063342
:101B00000533D89006330533D89006330533055195
:101B10007F0B8009076F0239E846E00BE00B1009E4
:101B2000086F0751A1EC10F001010851A1EC10F071
:101B300001010451A1EC10F084841200000E2B6E00
:101B4000000E2C6E000E2D6E849427C029F028C044
:101B50002AF0D8902A322932D8902A322932D890C5
:101B60002A32293229507F0B80092C6E2738E8460B
:101B7000E00BE00B2D6E2C50AAEC10F02D50AAECCF
:101B800010F0B2EC10F02B6E84842B501200000E7B
:101B90000001A96FA9510109A96FA9C002F11B0E8B
:101BA0009BEC0FF0000E0001A96F310E61EC0FF0FD
:101BB000E806D8A4FAD7310E61EC0FF00001A96F46
:101BC00000F0000E0001A96F240E61EC0FF000017F
:101BD000A96F00F012007E0EF66E200EF76E000E5A
:101BE000F86E00EEB4F010EE1BF00900F5CFEEFF3A
:101BF000E550E150FAE100EE60F0540EEE6AE806BE
:101C0000FDE100EE01F0240EEE6AE806FDE14990E8
:101C100049920001DFEF0AF08D0E0101056F0D0EF4
:101C2000046F000E076F000E066F0AD000C1D9FFC7
:101C300001C1DAFFDF50036F0351041B004B012B7E
:101C400002070229D8A4F2D704C106F105C107F1A1
:101C500006C100F107C101F1120001010A6F1F0E58
:101C600001010A6502D01F0E0A6F0A5100081F0FFA
:101C70000A6F0AC109F11F0E0917D8900937D890C9
:101C80000937D8900935F80B0A6F020E036F030E5F
:101C9000026F0AC104F174EC0DF012000101046F2F
:101CA000000E0101056F12D0000E056F055180096D
:101CB000056F05C102F13E0E9BEC0FF01200400EC5
:101CC0000101026F3E0E9BEC0FF012000101045166
:101CD000010AD8B4E9D7030AD8A41200F0D7040E39
:101CE0008D6E000E8C6E0F0E896E000E8E6E000EC5
:101CF0008A6E080E8F6E400E8B6EFB0E966EFE0E79
:101D0000976E9268070E986E9368BF0E946E9568F2
:101D1000F00E0F01256F0F0E246F0C0E236F1200B3
:101D20008D0E2A6E0D0E296E000E2C6E000E2B6E7F
:101D30000AD025C0D9FF26C0DAFFDF50286E285010
:101D4000291A254A262A27062728D8A4F2D729C0E7
:101D50002BF02AC02CF02BC025F02CC026F012004E
:101D6000000E0101046F000E046F04510809046F96
:101D700004C102F1000E9BEC0FF0000E0101046F94
:101D80000451DF0B046F04C102F1110E9BEC0FF044
:101D9000FF0E0101026F100E9BEC0FF01200000EFF
:101DA0000101016F000E006F000E016F000E006F49
:101DB00001510FE1060E005DD8B01200AC0E0025F7
:101DC000D96E000E0121DA6E000EDF6E004B012B82
:101DD000EFD71200000E0101066F000E066F070E0E
:101DE000066501D012000651010DF3500425D96E8D
:101DF000F4500521DA6EDF50026F0651050F9BEC9F
:101E00000FF00101062BEBD7000E256E050E2564A1
:101E100001D012002550010DAC0EF324D96E000E36
:101E2000F420DA6E2550010D870EF324E16E000ECA
:101E3000F420E26EDFCFE7FF252AE8D704C1D9FFFF
:101E400005C1DAFFDF500101026F030E9BEC0FF0BA
:101E5000010120EE01F00451D9260551DA22DF50AC
:101E6000026F040E9BEC0FF0120004C1D9FF05C1F4
:101E7000DAFFDF500101026F010E9BEC0FF0010150
:101E800020EE01F00451D9260551DA22DF50026F0D
:101E9000020E9BEC0FF01200000ED76ED90ED66E1C
:101EA000D90E0001EB6FF294F28AB80E0101006FB7
:101EB000210E016F000E026FC1EC10F0D60ED56E30
:101EC00012000101036F000E0101026F849403519F
:101ED00003257E0B036F0351A1EC10F08FEC10F083
:101EE0000101026F848402511200040E0101026F8D
:101EF000360E9BEC0FF0000E0101026F360E9BECCC
:101F00000FF0000E0101016F140E006F31EC10F0A4
:101F10001200A8EC0CF0010EF7EC0BF0020E4EECE8
:101F20000EF0BAEC10F00F0E43EC09F098EC10F044
:101F300075EC0FF012000101036F8494010103514D
:101F400003257F0B0109036F0351A1EC10F0010180
:101F50000251A1EC10F084841200C690C692C6947F
:101F6000C696949A9496C68AC78EC698C78C000E59
:101F70000101016F0A0E006F05EC10F01200000164
:101F8000E551E611E711D8B4120001D8120005009E
:101F9000FA6EE551FD6EE651FE6EE751FF6EFA50A6
:101FA00012000001E851E911EA11D8B4120001D879
:101FB00012000500FA6EE851FD6EE951FE6EEA511D
:101FC000FF6EFA501200829C000E0101016F0A0E92
:101FD000006F31EC10F0828C000E0101016F0A0ECF
:101FE000006F31EC10F01200276E000E286E849402
:101FF000275027247E0B276E2750AAEC10F0B2EC56
:1020000010F0286E848428501200000E0101036F26
:10201000000E026F02D0024B032B0051025D0151F2
:102020000359D8B01200F7D7286E8494285028247A
:102030007F0B0109286E2850AAEC10F02750AAEC5B
:1020400010F0848412008696600E0101026F0D0E5E
:102050009BEC0FF0800E0101026F220E9BEC0FF043
:102060001200000E0101036F000E026F004B012BE6
:10207000100E005D270E0159D8B01200F7D70101EC
:102080000101010101010303010100032302020216
:0920900002020202020303020233
:10209A00F292F19CBA0E0101006F210E016F000E3F
:1020AA00026FC8EC10F0F2881200000E0101046FF2
:1020BA00000E046F04C102F11B0E9BEC0FF012001C
:1020CA00000E0101046F000E046F04C102F11B0E21
:1020DA009BEC0FF01200D9EC10F06FEC0EF085ECCF
:1020EA0010F04DEC10F04CEC0FF01200020E010152
:1020FA00036F020E026F800E046F74EC0DF0120073
:10210A00600ED36E000E646E000E9B6E000E0F0101
:10211A002A6F1200C968C7A0FED7C9CF00F19E96E0
:10212A000101005112008686000E0101016F0A0E9C
:10213A00006F31EC10F012000101016F01C1C9FFFB
:10214A00C7A0FED7C9CF00F11200266E26C0C9FF6C
:10215A00C7A0FED7C9CF25F01200C968C7A0FED70D
:10216A00C9CF25F09E9625501200F70E0101026F85
:10217A00320E9BEC0FF0120000C1E5F001C1E6F04F
:10218A0002C1E7F0120000C1E8F001C1E9F002C1A2
:10219A00EAF01200F294EBC0D6FFBFEC0FF0120087
:1021AA00F292D1EC0FF01200D08EF19412001200CC
:0221BA00120011
:020000040020DA
:08000000FFFFFFFFFFFFFFFF00
:020000040030CA
:0E00000015037F7C018991FFFFC0FFE0FF40E8
:00000001FF
