:040000007EEF00F09F
:06000800498296EF8EF024
:100018004980D8CFE9F0E8CFEAF0E0CFEBF0FACFAB
:10002800ECF0FBCFEDF0E9CFEEF0EACFEFF0E1CF67
:10003800F0F0E2CFF1F0D9CFF2F0DACFF3F0F3CF6E
:10004800F4F0F4CFF5F0F6CFF6F0F7CFF7F0F8CFFD
:10005800F8F0F5CFF9F049C0FAF04AC0FBF04BC010
:10006800FCF04CC0FDF0F2BAF2A418D0042AC70E76
:10007800046412D0000E046E80A602D0010E01D0D6
:10008800000EFF0A0001E86FE847E847E84780509C
:10009800E819F70BE819806EADEC97F0FDC04CF04D
:1000A800FCC04BF0FBC04AF0FAC049F0F9C0F5FFBC
:1000B800F8C0F8FFF7C0F7FFF6C0F6FFF5C0F4FF89
:1000C800F4C0F3FFF3C0DAFFF2C0D9FFF1C0E2FFDA
:1000D800F0C0E1FFEFC0EAFFEEC0E9FFEDC0FBFFB3
:1000E800ECC0FAFFEBC0E0FFEAC0E8FFE9C0D8FFC8
:0800F80049901000B9EF91F0EE
:10FCC600004C69676874206973204F46462E2420CD
:10FCD6004D5347362057545220535424204D5347F2
:10FCE600352050415220535424204D534733204150
:10FCF6004C5445524E24204D53473220414C4C2003
:10FD06004F4624204D53473120414C4C204F4E4CFA
:10FD160069676874206973204F4E41542B434D47E1
:10FD2600523D310D41542B434D45453D320D242066
:10FD36004D534734204C4441542B4350494E3F0DBC
:10FD460041542B4950523F0D41542B47534E0D41C0
:10FD56005445300D00415456310D4154490D0B05A3
:10FD66002020202D2D2D2D3E5041524B494E47200F
:10FD7600534C4F545320444953504C41593C2D2D1C
:10FD86002D2D202020506C65617365204368616EBF
:10FD9600676520796F7572204C69676874204D6FAE
:10FDA60064756C652E41542B434D47443D312C34CC
:10FDB6000D41540D2053656E642053746F72656453
:10FDC6002049442020202020004964204973204EE9
:10FDD6006F742053746F7265642E2E2E20002020BF
:10FDE600202020202020202020202020202020200D
:10FDF600200053656E64696E672E20202020202027
:10FE060020202020200053656E64696E672E2E2008
:10FE16002020202020202020200053656E64696E5B
:10FE2600672E2E2E20202020202020202000536503
:10FE36006E64696E672E2E2E2E2020202020202014
:10FE46002000506C7A20576169742E2E2E202020B7
:10FE560020202020200053656E64696E672E2E2EAA
:10FE66002E2E20202020202020004D5347204465A0
:10FE76006C657465642E2E2E20202020200057618C
:10FE86006974696E6720666F7220534D5320202077
:10FE960020004F6E65204E6577204D657373616750
:10FEA6006520202020004D73672031205265636550
:10FEB600697665642E2E2E2020004D736720322031
:10FEC60052656365697665642E2E2E2020004D737B
:10FED6006720332052656365697665642E2E2E2071
:10FEE60020004D736720342052656365697665642A
:10FEF6002E2E2E2020004D73672035205265636517
:10FF0600697665642E2E2E2020004D7367203620DC
:10FF160052656365697665642E2E2E202000526533
:10FF2600636569766564204C4544205354415455B5
:10FF3600530053656E642070726F706572206D7326
:10FF4600672020200057726F6E67204D736720521E
:10FF5600656365697665640053656E64696E672ED0
:10FF66002E2E2E2E202020200044656C6574696E8E
:10FF76006720534D53202020200020202057656CF9
:10FF8600436F6D6520546F20202000416C6C205318
:10FF96004D532064656C6574656420002D2D3E53B9
:10FFA6006D61727420436974793C2D2D0053746F12
:10FFB60072656420696E2044657669636500202059
:10FFC60049442020202020697320696E20002020CB
:10FFD60020456D657267656E637920200020204993
:10FFE6004420202020697320696E2000542E4C691D
:0AFFF6007472652020202020000016
:020000040001F9
:10000000010E0101F26FF40EF16F8BEC98F0010E0E
:100010000101F26FF40EF16F8BEC98F0010E01010B
:10002000F26FF40EF16F8BEC98F0010E0101F26F9C
:10003000F40EF16F8BEC98F0010E0101F26FF40EEB
:10004000F16F8BEC98F0EBEC98F0F28EF28CF28C76
:10005000000E0101F26F640EF16F8BEC98F05EEC14
:1000600095F0000E0101F26F0A0EF16F8BEC98F023
:100070001BEC99F01FEC99F0800E0101F86FFF0E58
:10008000F96F800E59EC96F0A20E0101F86FFF0E89
:10009000F96FC00E59EC96F0010E0101F26F2C0EB3
:1000A000F16F79EC96F0010E0101F26F2C0EF16FF9
:1000B00079EC96F0010E0101F26F2C0EF16F79ECE4
:1000C00096F0010E0101F26F2C0EF16F79EC96F0B3
:1000D000000E0101F26F0A0EF16F8BEC98F0F9EC53
:1000E00097F0000E0101F26F0A0EF16F8BEC98F0A1
:1000F000D6EC94F01DEC98F099EC97F07DEC98F02C
:10010000C70E0101F56F010EF66F11EC97F0E60EC8
:100110000101F56F000EF66F42EC97F0E40E01015D
:10012000F56F000EF66F59EC97F0D5EC97F0B9EC3F
:1001300096F01F0E17EC96F0010E51EC92F0010EA6
:1001400036EC94F0D9EC98F00A0E016E6EEC94F057
:10015000000E0001B06F0A0EB06501D018D0B0518A
:10016000010D200EF324F66EFD0EF420F76EF86AF2
:10017000000EF822B051010DE40EF324D96E010EE9
:10018000F420DA6E0800F5CFDFFFB02BE4D7840E41
:100190000101F86FFE0EF96F800E59EC96F0E40E37
:1001A0000101F86FFD0EF96FC00E59EC96F0010ECB
:1001B0000001A56F000E036E100E026E000E01010D
:1001C000F26F010EF16F79EC96F00001A405D8A44E
:1001D00021EF86F0000EA46F8090980E0101F86F59
:1001E000FE0EF96F800E59EC96F0000E0101F26FD1
:1001F000640EF16F79EC96F0000E0101F26F640E5F
:10020000F16F79EC96F0000E0101F26F640EF16F60
:1002100079EC96F00EC2ECF170EC97F0010E000153
:10022000A56F000E036E5A0E026E000E0101F26FF2
:10023000010EF16F79EC96F0E40E0101F76F010EFB
:10024000F86F0A0EF96FA2EC94F00001A551D8A442
:10025000FCD7000EB06F2BD0B051010D000EF3246F
:10026000D96E020EF420DA6E240EDE18D8A41DD04A
:10027000B0C09CF0000E9B6F14D09C51010D000E7D
:10028000F324D96E020EF420DA6E9B51010D720E2A
:10029000F324E16E000EF420E26EDFCFE7FF9C2B2B
:1002A0009B2B0E0E9B65E9D700F00001B02B02508E
:1002B000B05DD8A0D1D700F08080480E0101F86F62
:1002C000FE0EF96F800E59EC96F0E40E0101F86F06
:1002D000FD0EF96FC00E59EC96F0000E0101F26FA1
:1002E000640EF16F79EC96F0000E0101F26F640E6E
:1002F000F16F79EC96F0000E0101F26F640EF16F70
:1003000079EC96F0000E0101F26F640EF16F79EC5A
:1003100096F0000E0101F26F640EF16F79EC96F029
:10032000000E0101F26F640EF16F79EC96F00A0E87
:10033000016E010E0001A56F000E036E70EC97F0C8
:10034000050E026EAB0E0101F76FFD0EF86F0C0E7D
:10035000F96F09EC95F00001A551D8A4FCD7700EF7
:100360000101F86FFE0EF96F800E59EC96F0E40E65
:100370000101F86FFD0EF96FC00E59EC96F0000EFA
:100380000101F26F640EF16F79EC96F0000E01013D
:10039000F26F640EF16F79EC96F0000E0101F26FCE
:1003A000640EF16F79EC96F0000E0101F26F640EAD
:1003B000F16F79EC96F0000E0101F26F640EF16FAF
:1003C00079EC96F0000E0101F26F640EF16F79EC9A
:1003D00096F0B9EC8BF000019D6FD5D3AC0E010106
:1003E000F86FFE0EF96F800E59EC96F0E40E0101E5
:1003F000F86FFD0EF96FC00E59EC96F0000E01017A
:10040000F26F640EF16F79EC96F0000E0101F26F5D
:10041000640EF16F79EC96F0000E0101F26F640E3C
:10042000F16F79EC96F0000E0101F26F640EF16F3E
:1004300079EC96F0000E0101F26F640EF16F79EC29
:1004400096F0000E0101F26F640EF16F79EC96F0F8
:10045000000E0101F26F640EF16F79EC96F0000E60
:100460000101F26F640EF16F79EC96F0000E01015C
:10047000F26F640EF16F79EC96F0240E00016D6F4F
:100480004D0E6E6F310E2DD3C00E0101F86FFE0EB2
:10049000F96F800E59EC96F0000E0101F26F640EB8
:1004A000F16F79EC96F0000E0101F26F640EF16FBE
:1004B00079EC96F0000E0101F26F640EF16F79ECA9
:1004C00096F0000E0101F26F640EF16F79EC96F078
:1004D000000E0101F26F640EF16F79EC96F0000EE0
:1004E0000101F26F640EF16F79EC96F0000E0101DC
:1004F000F26F640EF16F79EC96F0000E0101F26F6D
:10050000640EF16F79EC96F0000E0101F26F640E4B
:10051000F16F79EC96F0240E00016D6F4D0E6E6F49
:10052000320EDFD2D40E0101F86FFE0EF96F800E8D
:1005300059EC96F0000E0101F26F640EF16F79EC48
:1005400096F0000E0101F26F640EF16F79EC96F0F7
:10055000000E0101F26F640EF16F79EC96F0000E5F
:100560000101F26F640EF16F79EC96F0000E01015B
:10057000F26F640EF16F79EC96F0000E0101F26FEC
:10058000640EF16F79EC96F0000E0101F26F640ECB
:10059000F16F79EC96F0000E0101F26F640EF16FCD
:1005A00079EC96F0000E0101F26F640EF16F79ECB8
:1005B00096F0240E00016D6F4D0E6E6F330E91D2CA
:1005C000E80E0101F86FFE0EF96F800E59EC96F0FF
:1005D000000E0101F26F640EF16F79EC96F0000EDF
:1005E0000101F26F640EF16F79EC96F0000E0101DB
:1005F000F26F640EF16F79EC96F0000E0101F26F6C
:10060000640EF16F79EC96F0000E0101F26F640E4A
:10061000F16F79EC96F0000E0101F26F640EF16F4C
:1006200079EC96F0000E0101F26F640EF16F79EC37
:1006300096F0000E0101F26F640EF16F79EC96F006
:10064000000E0101F26F640EF16F79EC96F064EC2C
:1006500091F002018D6F8D5100018B6F8C6B8BC0FF
:10066000F1F18CC0F2F1F4EC98F002018D6F8E6B19
:1006700000018B5102018D1905E100018C5102012D
:100680008E19D8A441D1240E00016D6F4C0E6E6FEF
:100690008BC06FF01FEC99F00A0E000181613DD014
:1006A0008151D8B43AD0300E812781C07EF11FEC41
:1006B00099F0E30E0101F86FFF0EF96F800E59EC0F
:1006C00096F0850E4FEC98F001017E513FEC98F0CA
:1006D000B30E0101F86FFF0EF96FC00E59EC96F0E2
:1006E000010E0101F26F2C0EF16F79EC96F0010E04
:1006F0000101F26F2C0EF16F79EC96F0010E010101
:10070000F26F2C0EF16F79EC96F0010E0101F26F91
:100710002C0EF16F79EC96F009D1090E000181657C
:1007200065D0640E816162D081C0F1F10101F26B8C
:10073000000EF46F0A0EF36FBAEC93F00101F15161
:100740000001A26F81C0F1F10101F26B000EF46FA4
:100750000A0EF36FFDEC93F00101F1510001A16F5E
:10076000A251300F0101686F0001A151300F01014A
:10077000696F1FEC99F0E30E0101F86FFF0EF96F3E
:10078000800E59EC96F0850E4FEC98F001016851FF
:100790003FEC98F0860E4FEC98F0010169513FEC68
:1007A00098F0B30E0101F86FFF0EF96FC00E59EC0F
:1007B00096F0010E0101F26F2C0EF16F79EC96F0BC
:1007C000010E0101F26F2C0EF16F79EC96F0010E23
:1007D0000101F26F2C0EF16F79EC96F0010E010120
:1007E000F26F2C0EF16F79EC96F0A0D0630E000141
:1007F00081659CD081C0F1F10101F26B000EF46FB4
:10080000640EF36FBAEC93F00101F1510001A06F97
:1008100081C0F1F10101F26B000EF46F640EF36F11
:10082000FDEC93F00101F15100019F6F9FC0F1F1C8
:100830000101F26B000EF46F0A0EF36FBAEC93F045
:100840000101F1510001A16F9FC0F1F10101F26BB3
:10085000000EF46F0A0EF36FFDEC93F00101F151FD
:100860000001A26FA051300F01013B6F0001A151A7
:10087000300F01013C6F0001A251300F01013D6FAB
:100880001FEC99F0C40E0101F86FFF0EF96F800E96
:1008900059EC96F0850E4FEC98F001013B513FEC7E
:1008A00098F0860E4FEC98F001013C513FEC98F027
:1008B000870E4FEC98F001013D513FEC98F0B30EDC
:1008C0000101F86FFF0EF96FC00E59EC96F0010EA2
:1008D0000101F26F2C0EF16F79EC96F0010E01011F
:1008E000F26F2C0EF16F79EC96F0010E0101F26FB0
:1008F0002C0EF16F79EC96F0010E0101F26F2C0EC7
:10090000F16F79EC96F012D01FEC99F0CF0E010147
:10091000F86FFD0EF96F800E59EC96F0BA0E0101DA
:10092000F86FFD0EF96FC00E59EC96F0000E010144
:10093000F26F640EF16F79EC96F0000E0101F26F28
:10094000640EF16F79EC96F0000E0101F26F640E07
:10095000F16F79EC96F0000E0101F26F640EF16F09
:1009600079EC96F0000E0101F26F640EF16F79ECF4
:1009700096F0000E0101F26F640EF16F79EC96F0C3
:10098000000E0101F26F640EF16F79EC96F0000E2B
:100990000101F26F640EF16F79EC96F0000E010127
:1009A000F26F640EF16F79EC96F004D1FC0E010148
:1009B000F86FFE0EF96F800E59EC96F0000E0101F3
:1009C000F26F640EF16F79EC96F0000E0101F26F98
:1009D000640EF16F79EC96F0000E0101F26F640E77
:1009E000F16F79EC96F0000E0101F26F640EF16F79
:1009F00079EC96F0000E0101F26F640EF16F79EC64
:100A000096F0000E0101F26F640EF16F79EC96F032
:100A1000000E0101F26F640EF16F79EC96F0000E9A
:100A20000101F26F640EF16F79EC96F0000E010196
:100A3000F26F640EF16F79EC96F0400E00016D6F6D
:100A4000430E6E6F4B0E4DD0100E0101F86FFF0E6E
:100A5000F96F800E59EC96F0000E0101F26F640EF2
:100A6000F16F79EC96F0000E0101F26F640EF16FF8
:100A700079EC96F0000E0101F26F640EF16F79ECE3
:100A800096F0000E0101F26F640EF16F79EC96F0B2
:100A9000000E0101F26F640EF16F79EC96F0000E1A
:100AA0000101F26F640EF16F79EC96F0000E010116
:100AB000F26F640EF16F79EC96F0000E0101F26FA7
:100AC000640EF16F79EC96F0000E0101F26F640E86
:100AD000F16F79EC96F0210E00016D6F570E6E6F7D
:100AE000530E6F6F67D04B0E0101F86FFF0EF96F59
:100AF000800E59EC96F0380E0101F86FFF0EF96F79
:100B0000C00E59EC96F0000E0101F26F640EF16F09
:100B100079EC96F0000E0101F26F640EF16F79EC42
:100B200096F0000E0101F26F640EF16F79EC96F011
:100B3000000E0101F26F640EF16F79EC96F0000E79
:100B40000101F26F640EF16F79EC96F0000E010175
:100B5000F26F640EF16F79EC96F0000E0101F26F06
:100B6000640EF16F79EC96F0000E0101F26F640EE5
:100B7000F16F79EC96F0000E0101F26F640EF16FE7
:100B800079EC96F017D000019D51000AD8B4ABD78C
:100B9000010AD8B423D4030AD8B476D4010AD8B44D
:100BA000C1D4070AD8B40CD5010AD8B4FFD6030AB9
:100BB000D8B44AD700019D51D8B443D08092D2EC2A
:100BC0008DF0000E0101F26F640EF16F79EC96F07A
:100BD000000E0101F26F640EF16F79EC96F0000ED9
:100BE0000101F26F640EF16F79EC96F0000E0101D5
:100BF000F26F640EF16F79EC96F0000E0101F26F66
:100C0000640EF16F79EC96F0000E0101F26F640E44
:100C1000F16F79EC96F0000E0101F26F640EF16F46
:100C200079EC96F0000E0101F26F640EF16F79EC31
:100C300096F0000E0101F26F640EF16F79EC96F000
:100C4000808200019551911903E196519219D8A41F
:100C500041D1210EB219D8A43DD1000E9F6F000ED4
:100C6000A26F000EA16F000EA06F000EB26FB3C096
:100C7000BAF0B4C0BBF00A0EBB6109D0300EBB277E
:100C8000200E0201836FBBC084F2200E77D0640E69
:100C90000001BB612AD0090EBB6527D0BBC0F1F1B2
:100CA0000101F26B000EF46F0A0EF36FBAEC93F0D1
:100CB0000101F1510001A26FBBC0F1F10101F26B22
:100CC000000EF46F0A0EF36FFDEC93F00101F15189
:100CD0000001A16F200E0201836F0001A251300FAD
:100CE0000201846F0001A15147D0630E0001BB6572
:100CF00046D0BBC0F1F10101F26B000EF46F640E3F
:100D0000F36FBAEC93F00101F1510001A06FBBC089
:100D1000F1F10101F26B000EF46F640EF36FFDEC64
:100D200093F00101F15100019F6F9FC0F1F10101AA
:100D3000F26B000EF46F0A0EF36FBAEC93F0010140
:100D4000F1510001A16F9FC0F1F10101F26B000EA2
:100D5000F46F0A0EF36FFDEC93F00101F151000105
:100D6000A26FA051300F0201836F0001A151300F1B
:100D70000201846F0001A251300F0201856F0A0E3B
:100D80000001BA613CD0300EBA27BAC017F105ECA9
:100D900090F01FEC99F0F20E0101F86FFF0EF96F61
:100DA000800E59EC96F08A0E4FEC98F00101175125
:100DB0003FEC98F05E0E0101F86FFF0EF96FC00E68
:100DC00059EC96F0010E0101F26F2C0EF16F79ECE7
:100DD00096F0010E0101F26F2C0EF16F79EC96F096
:100DE000010E0101F26F2C0EF16F79EC96F0010EFD
:100DF0000101F26F2C0EF16F79EC96F06AD0640E5F
:100E00000001BA6166D0090EBA6563D0BAC0F1F1CB
:100E10000101F26B000EF46F0A0EF36FBAEC93F05F
:100E20000101F1510001A26FBAC0F1F10101F26BB1
:100E3000000EF46F0A0EF36FFDEC93F00101F15117
:100E40000001A16FA251300F0101176F0001A151E4
:100E5000300F0101186F05EC90F01FEC99F0F20EC5
:100E60000101F86FFF0EF96F800E59EC96F08A0EB3
:100E70004FEC98F0010117513FEC98F08B0E4FECBE
:100E800098F0010118513FEC98F05E0E0101F86FE7
:100E9000FF0EF96FC00E59EC96F0010E0101F26FD2
:100EA0002C0EF16F79EC96F0010E0101F26F2C0E11
:100EB000F16F79EC96F0010E0101F26F2C0EF16FDB
:100EC00079EC96F0010E0101F26F2C0EF16F79ECC6
:100ED00096F000F000019551911903E19651921995
:100EE000D8A4D0D0400EB219D8A4CCD0B3C0BAF098
:100EF000000EB26FB305D8A402D0310E1AD0020E84
:100F00000001B319D8A402D0320E13D0040E000190
:100F1000B319D8A402D0340E0CD0080E0001B319B6
:100F2000D8A402D0380E05D00001B351D8A404D003
:100F3000300E0101A86F02D00101A869F6EC96F00D
:100F4000240E0101F86FFF0EF96F800E59EC96F038
:100F5000F80E0101F86FFD0EF96FC00E59EC96F016
:100F6000000E0101F26F0A0EF16F79EC96F05DEC64
:100F700090F0000E0101F26F640EF16F79EC96F0C3
:100F8000000E0101F26F640EF16F79EC96F0000E25
:100F90000101F26F640EF16F79EC96F00C0E010115
:100FA000F86FFE0EF96FC00E59EC96F0000E0101BD
:100FB000F26F640EF16F79EC96F0000E0101F26FA2
:100FC000640EF16F79EC96F0000E0101F26F640E81
:100FD000F16F79EC96F0200E0101F86FFE0EF96FBB
:100FE000C00E59EC96F0000E0101F26F640EF16F25
:100FF00079EC96F0000E0101F26F640EF16F79EC5E
:1010000096F0000E0101F26F640EF16F79EC96F02C
:10101000340E0101F86FFE0EF96FC00E59EC96F018
:10102000000E0101F26F640EF16F79EC96F0000E84
:101030000101F26F640EF16F79EC96F0000E010180
:10104000F26F640EF16F79EC96F05C0E0101F86FAF
:10105000FE0EF96FC00E59EC96F0000E0101F26F12
:10106000640EF16F79EC96F0000E0101F26F640EE0
:10107000F16F79EC96F0000E0101F26F640EF16FE2
:1010800079EC96F000019551911952E1965192191F
:10109000D8A44ED0230EB219D8A44AD0B3C081F040
:1010A000000EB26F81C0F1F10101F26BF4EC98F027
:1010B00000018119D8A412D08090230E6D6F450EC7
:1010C0006E6F81C06FF0010EA96F000E0101F26F0B
:1010D000320EF16F8BEC98F080801AD081C0F1F164
:1010E0000101F26B81C0F3F1D8EC96F08092230EEF
:1010F00000016D6F4F0E6E6F81C06FF0010EA86F13
:10110000000E0101F26F320EF16F8BEC98F08082CD
:101110000001A905D8A404D0000EA96FD2EC8DF06F
:101120000001A805D8A404D0000EA86FD2EC8DF061
:1011300000019551911903E196519219D8A4A8EF95
:1011400080F0240EB219D8A4A8EF80F0000EB26F80
:10115000B3C081F0B4C082F0F6EC96F0430E00010B
:101160008219D8A43CD10A0E81613FD08151D8B4F4
:101170003CD0300E812781C07EF172EC93F01FECE1
:1011800099F0E30E0101F86FFF0EF96F800E59EC34
:1011900096F0850E4FEC98F001017E513FEC98F0EF
:1011A000D40E0101F86FFF0EF96FC00E59EC96F0E6
:1011B000010E0101F26F2C0EF16F79EC96F0010E29
:1011C0000101F26F2C0EF16F79EC96F0010E010126
:1011D000F26F2C0EF16F79EC96F0010E0101F26FB7
:1011E0002C0EF16F79EC96F0FAD0090E00018165B2
:1011F00067D0640E816164D081C0F1F10101F26BAE
:10120000000EF46F0A0EF36FBAEC93F00101F15186
:101210000001A26F81C0F1F10101F26B000EF46FC9
:101220000A0EF36FFDEC93F00101F1510001A16F83
:10123000A251300F0101686F0001A151300F01016F
:10124000696F2AEC93F01FEC99F0E30E0101F86F3F
:10125000FF0EF96F800E59EC96F0850E4FEC98F06A
:10126000010168513FEC98F0860E4FEC98F00101B7
:1012700069513FEC98F0D40E0101F86FFF0EF96F41
:10128000C00E59EC96F0010E0101F26F2C0EF16FB9
:1012900079EC96F0010E0101F26F2C0EF16F79ECF2
:1012A00096F0010E0101F26F2C0EF16F79EC96F0C1
:1012B000010E0101F26F2C0EF16F79EC96F08FD0D8
:1012C000630E000181658BD081C0F1F10101F26BE9
:1012D000000EF46F640EF36FBAEC93F00101F1515C
:1012E0000001A06F81C0F1F10101F26B000EF46FFB
:1012F000640EF36FFDEC93F00101F15100019F6F5B
:101300009FC0F1F10101F26B000EF46F0A0EF36F52
:10131000BAEC93F00101F1510001A16F9FC0F1F10E
:101320000101F26B000EF46F0A0EF36FFDEC93F007
:101330000101F1510001A26FA051300F01013B6F7B
:101340000001A151300F01013C6F0001A251300F8B
:1013500001013D6FE2EC92F01FEC99F0C40E010127
:10136000F86FFF0EF96F800E59EC96F0850E4FEC7A
:1013700098F001013B513FEC98F0860E4FEC98F04D
:1013800001013C513FEC98F0870E4FEC98F00101C1
:101390003D513FEC98F0D40E0101F86FFF0EF96F4C
:1013A000C00E59EC96F0010E0101F26F2C0EF16F98
:1013B00079EC96F0010E0101F26F2C0EF16F79ECD1
:1013C00096F0010E0101F26F2C0EF16F79EC96F0A0
:1013D000010E0101F26F2C0EF16F79EC96F0310ED7
:1013E00000018219D8A43CD07C51D8B40CD00D0E89
:1013F0007D19D8A408D07CC053F19AEC92F011D09A
:10140000200E536F12D000017C51D8B411D00D0EB4
:101410007E19D8A40DD07CC053F17DC054F19AEC54
:1014200092F0200E0101526FEBD7200E546F4BD07B
:1014300000017C51D8B447D00D0E7F19D8A443D0F9
:101440007CC052F17DC053F17EC054F19AEC92F011
:10145000200E0101526F200E536F200E546F33D0B7
:1014600000017C51D8B409D00D0E7D19D8A405D047
:101470007CC024F1B5EC90F01FD000017C51D8B4B1
:101480000BD00D0E7E19D8A407D07CC024F17DC0EE
:1014900025F1B5EC90F010D000017C51D8B413D0F8
:1014A0000D0E7F19D8A40FD07CC023F17DC024F18C
:1014B0007EC025F1B5EC90F0200E0101236F200EC7
:1014C000246F200E256F00F01FEC99F0840E0101AF
:1014D000F86FFE0EF96F800E59EC96F0E40E0101E4
:1014E000F86FFD0EF96FC00E59EC96F0A8EF80F082
:1014F000000E336E000E346E000E336E335004094E
:10150000336E33C027F0390E6EEC98F0030E286E60
:10151000000E276E87EC95F0206E00F0000E346E02
:101520007F0E346401D06AD0650EF66EFD0EF76E44
:10153000000EF86E0800F5502E6E2F6A640EF66EDF
:10154000FD0EF76E000EF86E0800F5502E26000E08
:101550002F22050E2E26000E2F223450306E316AB7
:101560002E50305C3150800A326E2F50800A325833
:10157000D8B012D03450010DCF0EF324D96E010E25
:10158000F420DA6E34500001CF25276E000ED021F2
:10159000286E87EC95F0DF6E650EF66EFD0EF76E29
:1015A000000EF86E0800F5502E6E2F6A640EF66E6F
:1015B000FD0EF76E000EF86E0800F5502E26000E98
:1015C0002F22050E2E26000E2F223450306E316A47
:1015D0002E50305C3150800A326E2F50800A3258C3
:1015E000D8A00AD034500001CF25276E000ED0219C
:1015F000286E87EC95F01B6E342A92D7640EF66E37
:10160000FD0EF76E000EF86E0800F5502E6E2F6A74
:10161000010E2E26000E2F22CF0E2E24D96E010E83
:101620002F20DA6EDF500001B26F640EF66EFD0EF1
:10163000F76E000EF86E0800F5502E6E2F6A020E3F
:101640002E26000E2F22CF0E2E24D96E010E2F2013
:10165000DA6EDF50B36F640EF66EFD0EF76E000E9D
:10166000F86E0800F5502E6E2F6A030E2E26000E1F
:101670002F22CF0E2E24D96E010E2F20DA6EDF50CE
:10168000B46F640EF66EFD0EF76E000EF86E080075
:10169000F5502E6E2F6A040E2E26000E2F22CF0E2E
:1016A0002E24D96E010E2F20DA6EDF50B56F640E36
:1016B000F66EFD0EF76E000EF86E0800F5502E6EF9
:1016C0002F6A050E2E26000E2F22CF0E2E24D96E45
:1016D000010E2F20DA6EDF50B66F640EF66EFD0E2F
:1016E000F76E000EF86E0800F5502E6E2F6A650E2C
:1016F000F66EFD0EF76E000EF86E0800F5502E2601
:10170000000E2F22030E2E26000E2F22CF0E2E2487
:10171000D96E010E2F20DA6EDF501D6E640EF66E4C
:10172000FD0EF76E000EF86E0800F5502E6E2F6A53
:10173000650EF66EFD0EF76E000EF86E0800F550A1
:101740002E26000E2F22040E2E26000E2F22CF0E44
:101750002E24D96E010E2F20DA6EDF501C6E000E83
:10176000336E000E336E33C027F0390E6EEC98F0F6
:101770001200000E0101F26F000E00019E6F0A0EB2
:101780009E6501D022D09E51010D720EF324D96EB8
:10179000000EF420DA6E9E51010D080EF324F66E51
:1017A000FD0EF420F76EF86A000EF822DE500900F4
:1017B000F518D8A403D00101F22B04D0000E0101CA
:1017C000F26F03D000019E2BDAD70B0E0101F21944
:1017D000D8A402D0010E1200000EF26F000E00011C
:1017E0009E6F0A0E9E6501D022D09E51010D720E91
:1017F000F324D96E000EF420DA6E9E51010DFB0E1B
:10180000F324F66EFC0EF420F76EF86A000EF82250
:10181000DE500900F518D8A403D00101F22B04D042
:10182000000E0101F26F03D000019E2BDAD70B0EE0
:101830000101F219D8A404D0000EF26F020E1200BA
:10184000000EF26F000E00019E6F0A0E9E6501D021
:1018500022D09E51010D720EF324D96E000EF42099
:10186000DA6E9E51010DEE0EF324F66EFC0EF4209E
:10187000F76EF86A000EF822DE500900F518D8A4B9
:1018800003D00101F22B04D0000E0101F26F03D04E
:1018900000019E2BDAD70B0E0101F219D8A404D057
:1018A000000EF26F030E1200000EF26F000E000128
:1018B0009E6F060E9E6501D022D09E51010D720EC4
:1018C000F324D96E000EF420DA6E9E51010D340E11
:1018D000F324F66EFD0EF420F76EF86A000EF8227F
:1018E000DE500900F518D8A403D00101F22B04D072
:1018F000000E0101F26F03D000019E2BDAD7070E14
:101900000101F219D8A404D0000EF26F040E1200E7
:10191000000EF26F000E00019E6F0A0E9E6501D050
:1019200022D09E51010D720EF324D96E000EF420C8
:10193000DA6E9E51010DE10EF324F66EFC0EF420DA
:10194000F76EF86A000EF822DE500900F518D8A4E8
:1019500003D00101F22B04D0000E0101F26F03D07D
:1019600000019E2BDAD70B0E0101F219D8A404D086
:10197000000EF26F050E1200000EF26F000E000155
:101980009E6F0A0E9E6501D022D09E51010D720EEF
:10199000F324D96E000EF420DA6E9E51010DD40EA0
:1019A000F324F66EFC0EF420F76EF86A000EF822AF
:1019B000DE500900F518D8A403D00101F22B04D0A1
:1019C000000E0101F26F03D000019E2BDAD70B0E3F
:1019D0000101F219D8A404D0000EF26F060E120015
:1019E000000E12000101FA6F1B0E0101FA6103D013
:1019F0000B0EFA61A2D00B0EFA6F9FD0020EF46F9D
:101A0000000EF36F020EF56F34EC95F0C8D0020EA5
:101A10000101F46F000EF36F120EF56F34EC95F0C8
:101A2000BED0020E0101F46F000EF36F220EF56FAF
:101A300034EC95F0B4D0020E0101F46F000EF36F98
:101A4000320EF56F34EC95F0AAD0020E0101F46F5E
:101A5000000EF36F420EF56F34EC95F0A0D0020E3D
:101A60000101F46F000EF36F520EF56F34EC95F038
:101A700096D0020E0101F46F000EF36F620EF56F47
:101A800034EC95F08CD0020E0101F46F000EF36F70
:101A9000720EF56F34EC95F082D0020E0101F46FF6
:101AA000000EF36F820EF56F34EC95F078D0020ED5
:101AB0000101F46F000EF36F920EF56F34EC95F0A8
:101AC0006ED0020E0101F46F000EF36FA20EF56FDF
:101AD00034EC95F064D0020E0101F46F000EF36F48
:101AE000B20EF56F34EC95F05AD0020E0101F46F8E
:101AF000000EF36FC20EF56F34EC95F050D0020E6D
:101B00000101F46F000EF36FD20EF56F34EC95F017
:101B100046D0020E0101F46F000EF36FE20EF56F76
:101B200034EC95F03CD0020E0101F46F000EF36F1F
:101B3000F20EF56F34EC95F032D00101FA510B0A38
:101B4000D8B45CD7070AD8B462D7010AD8B469D729
:101B5000030AD8B470D7010AD8B477D71F0AD8B40B
:101B60007ED7010AD8B485D7030AD8B48CD7010A26
:101B7000D8B493D7070AD8B49AD7010AD8B4A1D752
:101B8000030AD8B4A8D7010AD8B4AFD70F0AD8B47B
:101B9000B6D7010AD8B4BDD7030AD8B4C4D799ECD4
:101BA00097F01200000E02018C6F000E8B6F640E16
:101BB000F66EFD0EF76E000EF86E0800F5CF60F0C1
:101BC000650EF66EFD0EF76E000EF86E0800F5CF8E
:101BD000FAF1640EF66EFD0EF76E000EF86E080058
:101BE000F5500101FA250001616F010E626F880E48
:101BF000636FD1C064F0E5C065F0E4C066F0E6C094
:101C000067F0E7C068F0CBC069F0CCC06AF0CDC027
:101C10006BF0CEC06CF0000E02018B6F0D0E000158
:101C2000AF6F020E02018B6501D018D00001AF51D9
:101C3000010D600EF324D96E000EF420DA6E02015D
:101C40008B51010DB70EF324E16E000EF420E26E0D
:101C5000DFCFE7FF8B2B0001AF2BE3D7B70E0101DE
:101C6000F16F000EF26F030EF36FF6EC95F0F1C119
:101C700093F0F2C194F093C070F000019451716F31
:101C8000000E02018C6F640EF66EFD0EF76E000EF4
:101C9000F86E0800F5500101FA6FFB6B650EF66EE9
:101CA000FD0EF76E000EF86E0800F550FA27000ED4
:101CB000FB23020EFA27000EFB2302018C510101C7
:101CC000FC6FFD6BFA51FC5DFD51800AFE6FFB510C
:101CD000800AFE59D8B023D002018C51000197250B
:101CE0000101F36F000E000198210101F46F020160
:101CF0008C51010D600EF324D96E000EF420DA6EC3
:101D0000DF500101F56F34EC95F0000E0101F26F28
:101D10000A0EF16F8BEC98F002018C2BB4D7B1EC6A
:101D200098F0A6EC98F0B0EC95F01200FACF37F0EE
:101D3000FBCF38F0E9CF39F0EACF3AF0E1CF3BF012
:101D4000E2CF3CF0D9CF3DF0DACF3EF0F3CF3FF019
:101D5000F4CF40F0F6CF41F0F7CF42F0F8CF43F0A8
:101D6000F5CF44F049C045F04AC046F04BC047F0BB
:101D70004CC048F0F2B8F2A220D0310E2EEC98F010
:101D8000236E23A618D0F29E78EC8AF0F28EB20E63
:101D9000256E000E266E030E276E99EC96F025C078
:101DA00091F026C092F00001B651356EB551956F95
:101DB00035C096F000F0F29237D09DBA9EAA34D08A
:101DC0000350010D000EF324D96E020EF420DA6EDA
:101DD000AECFDFFF240E02010019D8A40CD0050EEF
:101DE0000118D8B408D0032A0250035CD8A003D04D
:101DF000000E0001A56F0A0E0118D8A408D0032A0E
:101E00000250035CD8A003D0000E0001A56F530E52
:101E100002010A19D8A407D04D0E0B19D8A403D07B
:101E2000010E0001A46F9E9A48C04CF047C04BF0D1
:101E300046C04AF045C049F044C0F5FF43C0F8FF32
:101E400042C0F7FF41C0F6FF40C0F4FF3FC0F3FFC0
:101E50003EC0DAFF3DC0D9FF3CC0E2FF3BC0E1FF1E
:101E60003AC0EAFF39C0E9FF38C0FBFF37C0FAFFCC
:101E7000499211000101010101010101546F7461D6
:101E80006C204C69746572733D2020202020202036
:101E90002020202049442020202020204C696768F1
:101EA00074202D2D3E3E204F46462E2049442000D2
:101EB000000020697320696E20456D657267656E4C
:101EC00063790D49442020202020204C69676874E4
:101ED000202D2D3E3E204F4E004944200000206919
:101EE0007320696E20456D657267656E63790D4973
:101EF00044200020697320696E20456D6572676516
:101F00006E63790D41542B434D47533D2239353390
:101F100037333835353837220D307830302C30783B
:101F200030302C307830302C3078303041544439D7
:101F30003533373338353538373B0D02020202026C
:031F400002020298
:101F44000101F56F000E0101F66F51D0000EF66F1E
:101F5400F6518009F66FF651DF0BF66FF6C1F3F117
:101F64003A0EE7EC97F0600E0101F36F3F0EE7ECD9
:101F740097F01200000E0101F66FF6514009F66F5A
:101F8400F6517F0BF66FF6C1F3F13A0EE7EC97F0DA
:101F9400000E0101F66FF6513809F66FF651FB0B8E
:101FA400F66FF6C1F3F13A0EE7EC97F01200000E6B
:101FB4000101F66FF651C009F66FF6C1F3F13A0E5E
:101FC400E7EC97F0000E0101F66FF6513809F66F51
:101FD400F651FB0BF66FF6C1F3F13A0EE7EC97F00E
:101FE400600E0101F36F3F0EE7EC97F01200010160
:101FF400F551010AD8B4AAD7030AD8B4BBD7010A49
:10200400D8A41200D4D7000E0101F26F020EF16FB2
:1020140079EC96F0D20E0101F76F000EF86F0A0EFC
:10202400F96FA2EC94F0000E0101F26F020EF16F51
:1020340079EC96F0900E0101F76F010EF86F150E12
:10204400F96FA2EC94F0000E0101F26F020EF16F31
:1020540079EC96F0640E0101F76F020EF86F270E0B
:10206400F96FA2EC94F0000E0101F26F020EF16F11
:1020740079EC96F0080E0101F76F010EF86F170E58
:10208400F96FA2EC94F0000E0101F26F020EF16FF1
:1020940079EC96F0E20E0101F76F000EF86F030E73
:1020A400F96FA2EC94F0000E0101F26F020EF16FD1
:1020B40079EC96F01200000E0101F26F020EF16F3E
:1020C40079EC96F0D20E0101F76F000EF86F0A0E4C
:1020D400F96FA2EC94F0000E0101F26F020EF16FA1
:1020E40079EC96F0900E0101F76F010EF86F150E62
:1020F400F96FA2EC94F0000E0101F26F020EF16F81
:1021040079EC96F0660E0101F76FFD0EF86F250E5F
:10211400F96FA2EC94F0000E0101F26F020EF16F60
:1021240079EC96F0A50E0101F76F010EF86F130E0E
:10213400F96FA2EC94F0000E0101F26F020EF16F40
:1021440079EC96F0E20E0101F76F000EF86F030EC2
:10215400F96FA2EC94F0000E0101F26F020EF16F20
:1021640079EC96F01200000E0101F26F020EF16F8D
:1021740079EC96F0D20E0101F76F000EF86F0A0E9B
:10218400F96FA2EC94F0000E0101F26F020EF16FF0
:1021940079EC96F0900E0101F76F010EF86F150EB1
:1021A400F96FA2EC94F0000E0101F26F020EF16FD0
:1021B40079EC96F0200E0101F76F010EF86F180EFE
:1021C400F96FA2EC94F0000E0101F26F020EF16FB0
:1021D40079EC96F08B0E0101F76FFD0EF86F200E6F
:1021E400F96FA2EC94F0000E0101F26F020EF16F90
:1021F40079EC96F0E20E0101F76F000EF86F030E12
:10220400F96FA2EC94F0000E0101F26F020EF16F6F
:1022140079EC96F012001FEC99F06F0E0101F86F43
:10222400FF0EF96FC00E59EC96F0010E0001A56F78
:10223400000E036E70EC97F0050E026EAB0E0101FA
:10224400F76FFD0EF86F0C0EF96F09EC95F00001B5
:10225400A551D8A4FCD7010E0101F26F2C0EF16F29
:1022640079EC96F0000E0101F26F010EF16F79EC3A
:1022740096F070EC97F0910E0101F86FFF0EF96F74
:10228400C00E59EC96F0010E0101F26F2C0EF16FA5
:1022940079EC96F0010E0101F26F2C0EF16F79ECDE
:1022A40096F0010E0101F26F2C0EF16F79EC96F0AD
:1022B400010E0101F26F2C0EF16F79EC96F01FEC18
:1022C40099F01200000E0101F56F000EF46F000E7C
:1022D400F26F000EF36F00017C51D8B40BD00D0ED9
:1022E4007D19D8A407D07C51D00F0101F56FF5C139
:1022F400F3F13AD000017C51D8B414D00D0E7E19FC
:10230400D8A410D07C51D00F0101F56F00017D518C
:10231400D00F0101F46FF5510A0DF3CFF5F1F5512A
:10232400F42521D000017C51D8B41ED00D0E7F19A4
:10233400D8A41AD07C51D00F0101F56F00017D5152
:10234400D00F0101F46F00017E51D00F0101F26F33
:10235400F4510A0DF3CFF1F1F551640DF350F12569
:10236400F56FF551F225F36F0101F3511200820E5E
:10237400F66E2F0EF76E010EF86E02EE64F010EE9C
:1023840027F00900F5CFEEFFE550E150FAE1740EB5
:10239400F66E1E0EF76E010EF86E01EE00F010EEF2
:1023A400CFF00900F5CFEEFFE550E150FAE1560E0B
:1023B400F66E2E0EF76E010EF86E00EEBAF010EE09
:1023C4002EF00900F5CFEEFFE550E150FAE102EE00
:1023D40000F0640EEE6AE806FDE101EECFF0220E95
:1023E400EE6AE806FDE100EE60F05A0EEE6AE806D9
:1023F400FDE100EE01F0240EEE6AE806FDE14990ED
:102404004992000100EF80F0980E0101F36F180E5D
:10241400E7EC97F0950E0101F36F2E0EE7EC97F0C1
:10242400020E0101F46F010EF36F010EF56F34EC2F
:1024340095F0BCEC98F0020E0101F46F060EF36FF8
:10244400900EF56F34EC95F0020E0101F46F070E57
:10245400F36F800EF56F34EC95F0020E0101F46F0A
:10246400080EF36F100EF56F34EC95F0020E0101B7
:10247400F36F110EE7EC97F0020E0101F46F200EDA
:10248400F36F210EF56F34EC95F0020E0101F46F39
:102494002F0EF36F0F0EF56F34EC95F0120001015F
:1024A400F56F000E0101F66F34D0000EF66F000ECA
:1024B400F66FF6C1F3F10D0EE7EC97F01200000E83
:1024C4000101F66F000EF66FF6510809F66FF6C1BA
:1024D400F3F10D0EE7EC97F01200000E0101F66F18
:1024E400000EF66FF6510409F66FF6C1F3F10D0E06
:1024F400E7EC97F01200000E0101F66F000EF66F84
:10250400F6510209F66FF6C1F3F10D0EE7EC97F000
:1025140012000101F551010AD8B4C7D7030AD8B48F
:10252400CED7010AD8B4D9D7070AD8A41200E3D762
:10253400000E0101F26F020EF16F79EC96F0D20EEB
:102544000101F76F000EF86F0A0EF96FA2EC94F018
:10255400000E0101F26F020EF16F79EC96F0900E0D
:102564000101F76F010EF86F150EF96FA2EC94F0EC
:10257400000E0101F26F020EF16F79EC96F04F0E2E
:102584000101F76F010EF86F160EF96FA2EC94F0CB
:10259400000E0101F26F020EF16F79EC96F0E20E7B
:1025A4000101F76F000EF86F030EF96FA2EC94F0BF
:1025B400000E0101F26F020EF16F79EC96F0120039
:1025C400000E0101F26F020EF16F79EC96F0D20E5B
:1025D4000101F76F000EF86F0A0EF96FA2EC94F088
:1025E400000E0101F26F020EF16F79EC96F0900E7D
:1025F4000101F76F010EF86F150EF96FA2EC94F05C
:10260400000E0101F26F020EF16F79EC96F0380EB4
:102614000101F76F010EF86F170EF96FA2EC94F039
:10262400000E0101F26F020EF16F79EC96F0E20EEA
:102634000101F76F000EF86F030EF96FA2EC94F02E
:10264400000E0101F26F020EF16F79EC96F01200A8
:10265400000E0101F26F020EF16F79EC96F0D20ECA
:102664000101F76F000EF86F0A0EF96FA2EC94F0F7
:10267400000E0101F26F020EF16F79EC96F0900EEC
:102684000101F76F010EF86F150EF96FA2EC94F0CB
:10269400000E0101F26F020EF16F79EC96F0650EF7
:1026A4000101F76F010EF86F160EF96FA2EC94F0AA
:1026B400000E0101F26F020EF16F79EC96F0E20E5A
:1026C4000101F76F000EF86F030EF96FA2EC94F09E
:1026D400000E0101F26F020EF16F79EC96F0120018
:1026E400000E0101F26F020EF16F79EC96F0D20E3A
:1026F4000101F76F000EF86F0A0EF96FA2EC94F067
:10270400000E0101F26F020EF16F79EC96F0900E5B
:102714000101F76F010EF86F150EF96FA2EC94F03A
:10272400000E0101F26F020EF16F79EC96F07B0E50
:102734000101F76F010EF86F150EF96FA2EC94F01A
:10274400000E0101F26F020EF16F79EC96F0E20EC9
:102754000101F76F000EF86F030EF96FA2EC94F00D
:10276400000E0101F26F020EF16F79EC96F0120087
:10277400000E0101F66FF4AF06D0F36DF41FD8B06C
:10278400F42B010EF66FF2AF06D0F16DF21FD8B044
:10279400F22B010EF61B000EF86F000EF76FF351CB
:1027A400F411D8B41CD0010EF56F04D0D890F337CF
:1027B400F437F52BF4AFFAD7D890F737F837F3514D
:1027C400F15DF451F259D8A005D0F351F15FF45101
:1027D400F25BF781D890F433F333F52FEDD7F6514C
:1027E400D8B404D0F76DF81FD8B0F82BF7C1F1F1C5
:1027F400F8C1F2F11200000E0101F66FF2AF06D03B
:10280400F16DF21FD8B0F22B010EF66FF4AF04D0C5
:10281400F36DF41FD8B0F42BF351F411D8B418D0DD
:10282400010EF56F04D0D890F337F437F52BF4AFDD
:10283400FAD7F351F15DF451F259D8A004D0F35111
:10284400F15FF451F25BD890F433F333F52FF1D701
:10285400F651D8B404D0F16DF21FD8B0F22BF1C107
:10286400F1F1F2C1F2F112000101F56F000E010164
:10287400F66F26D0000EF66F000EF66FF6C1F3F178
:10288400000EE7EC97F01200000E0101F66F000E47
:10289400F66FF6510209F66FF6C1F3F1000EE7EC9C
:1028A40097F01200000E0101F66F000EF66FF6515C
:1028B4000109F66FF6C1F3F1000EE7EC97F0120090
:1028C4000101F551010AD8B4D5D7030AD8B4DCD72D
:1028D400010AD8A41200E6D770EC97F0010E0001AB
:1028E400A56F000E036E050E026EB70E0101F76FA1
:1028F400FD0EF86F030EF96F09EC95F00001A55178
:10290400D8A4FCD770EC97F0010E0001A56F000E5F
:10291400036E050E026ED20E0101F76F000EF86F02
:102924000A0EF96FA2EC94F00001A551D8A4FCD7CB
:1029340000F070EC97F00DEC91F01FEC99F01200A0
:10294400000E0101FD6F000EFC6F000EFD6F27D01D
:10295400FD51010DF7C1FAF1F8C1FBF1F350FA276B
:10296400F450FB23FAC1F6FFFBC1F7FF000EF86E2B
:102974000F0EF76403D00800F55005D0F6CFE9FF39
:10298400F7CFEAFFEF50AD6E9EA8FED7000E01010F
:10299400F26F320EF16F79EC96F00101FD2BF951D3
:1029A400FD5DD8B01200D4D7140EAF6EAC8400F025
:1029B40000F000F0AC9800F000F000F0AC9C00F0E7
:1029C40000F000F0AB8E00F000F000F0AB8800F0F7
:1029D40000F000F0AC8A00F000F000F09D9800F0E8
:1029E40000F000F09D8A00F000F000F0F28E00F09C
:1029F40000F000F0F28C00F000F000F0948E00F093
:102A040000F000F0949C00F000F000F01200000EC2
:102A14000101FD6F000EFC6F000EFD6F1ED0FD5115
:102A2400010DF7C1FAF1F8C1FBF1F350FA27F450A4
:102A3400FB23FAC1F6FFFBC1F7FF000EF86E080096
:102A4400F5CFADFF9EA8FED7000E0101F26F320E46
:102A5400F16F79EC96F00101FD2BF951FD5DD8B0D1
:102A64001200DDD7000E0101F86F000EF96F82909D
:102A7400F3C1F6F1F4C1F7F1D890F733F633D890F7
:102A8400F733F633D890F733F633F6517F0B8009DA
:102A9400F86FF339E846E00BE00B1009F96FF851D1
:102AA400E2EC98F00101F951E2EC98F00101F551E2
:102AB400E2EC98F082801200380E4FEC98F0000E91
:102AC4000101F26F0A0EF16F79EC96F00E0E4FECE5
:102AD40098F0000E0101F26F0A0EF16F79EC96F096
:102AE400010E4FEC98F0000E0101F26F0A0EF16F27
:102AF40079EC96F0800E4FEC98F0000E0101F26F25
:102B04000A0EF16F79EC96F01200000E2B6E000E97
:102B14002C6E000E2D6E829027C029F028C02AF05A
:102B2400D8902A322932D8902A322932D8902A329F
:102B3400293229507F0B80092C6E2738E846E00B98
:102B4400E00B2D6E2C50FDEC98F02D50FDEC98F020
:102B540005EC99F02B6E82802B501200000E0001C0
:102B6400B16FB1510109B16FB1C0F3F11B0EE7ECC4
:102B740097F0000E0001B16F310E85EC97F0E80676
:102B8400D8A4FAD7310E85EC97F00001B16F00F0AC
:102B9400000E0001B16F240E85EC97F00001B16FB7
:102BA40000F01200000E8D6E000E8C6E0F0E896EFA
:102BB400100E8E6E000E8A6E000E8F6E030E8B6EDC
:102BC400000E966EE00E976EC00E926E1F0E986EFB
:102BD4009368FC0E946E9568200E0F01256F0C0E01
:102BE400246F0F0E236F12008D0E0101F66F0D0E70
:102BF400F56F000EF86F000EF76F0AD0F1C1D9FF20
:102C0400F2C1DAFFDF50F46FF451F51BF14BF22BF4
:102C1400F307F329D8A4F2D7F5C1F7F1F6C1F8F117
:102C2400F7C1F1F1F8C1F2F112000101FB6F1F0EBF
:102C34000101FB6502D01F0EFB6FFB5100081F0F43
:102C4400FB6FFBC1FAF11F0EFA17D890FA37D89030
:102C5400FA37D890FA35F80BFB6F020EF46F030EB7
:102C6400F36FFBC1F5F134EC95F012000101F56F3F
:102C7400000E0101F66F12D0000EF66FF6518009B6
:102C8400F66FF6C1F3F13E0EE7EC97F01200400E3A
:102C94000101F36F3E0EE7EC97F012000101F551CC
:102CA400010AD8B4E9D7030AD8A41200F0D7010165
:102CB400FA6F0101FA514FEC98F00DD0F8C1F6FF0C
:102CC400F9C1F7FF000EF86E0800F5503FEC98F0DC
:102CD4000101F84BF92BF8C1F6FFF9C1F7FF000E1B
:102CE400F86E0800F5500009D8B41200E7D7000EBA
:102CF4000101F46F000EF36F11D0000EF66F000E99
:102D0400F56FF6BF06D0F50EF55D010EF659D8B095
:102D140003D0F54BF62BF5D7F34BF42BF151F35DC0
:102D2400F251F459D8A0E9D700F000F012008D0E4A
:102D34002A6E0D0E296E000E2C6E000E2B6E0AD01C
:102D440025C0D9FF26C0DAFFDF50286E2850291A83
:102D5400254A262A27062728D8A4F2D729C02BF0EB
:102D64002AC02CF02BC025F02CC026F01200000E37
:102D74000101F56F000EF56FF5510809F56FF5C106
:102D8400F3F1000EE7EC97F0000E0101F56FF55139
:102D9400DF0BF56FF5C1F3F1110EE7EC97F0FF0EC1
:102DA4000101F36F100EE7EC97F01200000E010121
:102DB400F46FF1C162FFF3C161FF7F9E7F9C7F844A
:102DC400000EF2BE010EF46FF29E550E7E6EAA0E38
:102DD4007E6E7F827FB2FED70101F4B102D0F29EF3
:102DE40001D0F28E7F941200000E0101F26F000EEA
:102DF400F16F000EF26F000EF16FF2510FE1060E4B
:102E0400F15DD8B01200B20EF125D96E000EF22198
:102E1400DA6E000EDF6EF14BF22BEFD71200000ECC
:102E24000101F76F000EF76F070EF76501D012006E
:102E3400F751010DF350F525D96EF450F621DA6EF1
:102E4400DF50F36FF751050FE7EC97F00101F72B13
:102E5400EBD7302C302C302C3048656C6C6F0D4126
:102E640054480D0303010100032341542B434D47F0
:102E7400463D310D4154434C430D1A0D03030202E8
:102E8400F5C1D9FFF6C1DAFFDF500101F36F030E7C
:102E9400E7EC97F0010120EE01F0F551D926F65147
:102EA400DA22DF50F36F040EE7EC97F01200F5C15D
:102EB400D9FFF6C1DAFFDF500101F36F010EE7EC31
:102EC40097F0010120EE01F0F551D926F651DA22EE
:102ED400DF50F36F020EE7EC97F01200000E0101D1
:102EE400F16F000EF16F630EF16501D01200F15124
:102EF400010D000EF324D96E020EF420DA6EFF0EDB
:102F0400DF6EF12BF0D70101F46F000E0101F36FB6
:102F14008290F451F4257E0BF46FF451E2EC98F0B6
:102F2400D0EC98F00101F36F8280F3511200040E8B
:102F34000101F36F360EE7EC97F0000E0101F36F19
:102F4400360EE7EC97F0000E0101F26F140EF16FEC
:102F54008BEC98F01200F29424C0D6FF0001994B38
:102F64009A2B9A5104E10A0E995DD8A012000BEC39
:102F740098F0000E00019A6F000E996F12002D2D2B
:102F84002D2D3E5741544552204D45544552204D18
:102F94004F44554C4520494420697320202020206B
:052FA4003C2D2D2D2D38
:102FAA0006EC92F0010EA2EC8FF0020E38EC96F0CD
:102FBA000DEC99F00F0EF2EC8CF0D9EC98F099EC3C
:102FCA0097F012000101F46F82900101F451F42587
:102FDA007F0B0109F46FF451E2EC98F00101F3510F
:102FEA00E2EC98F082801200C690C692C694C69609
:102FFA00949A9496C68AC78EC698C78C000E010109
:10300A00F26F0A0EF16F5FEC98F012000001855121
:10301A0086118711D8B4120001D812000500FA6E81
:10302A008551FD6E8651FE6E8751FF6EFA50120071
:10303A008292000E0101F26F0A0EF16F8BEC98F08A
:10304A008282000E0101F26F0A0EF16F8BEC98F08A
:10305A001200276E000E286E8290275027247E0BBE
:10306A00276E2750FDEC98F005EC99F0286E8280C7
:10307A00285012000101F76FF7C184FF858200F022
:10308A008586000E0101F26F050EF16F79EC96F05C
:10309A00859612000101F76FF7C184FF859200F04F
:1030AA008586000E0101F26F050EF16F79EC96F03C
:1030BA0085961200000E0101F46F000EF36F02D024
:1030CA00F34BF42BF151F35DF251F459D8B01200DD
:1030DA00F7D7286E8290285028247F0B0109286E82
:1030EA002850FDEC98F02750FDEC98F082801200F1
:1030FA008598600E0101F36F0D0EE7EC97F0800ED4
:10310A000101F36F220EE7EC97F01200000E0101A5
:10311A00F46F000EF36FF14BF22B100EF15D270ED8
:10312A00F259D8B01200F7D7F292F19C000E0101C1
:10313A00F16F000EF26F000EF36F14EC99F0F28843
:10314A001200000E0101F56F000EF56FF5C1F3F1E3
:10315A001B0EE7EC97F01200000E0101F56F000E4E
:10316A00F56FF5C1F3F11B0EE7EC97F01200020EB2
:10317A000101F46F020EF36F800EF56F34EC95F0D7
:10318A001200600ED36E000E646E000E9B6E000E6F
:10319A000F012A6F1200C968C7A0FED7C9CFF1F183
:1031AA009E960101F15112008588000E0101F26F0D
:1031BA000A0EF16F8BEC98F012000101F26FF2C166
:1031CA00C9FFC7A0FED7C9CFF1F1120023EC99F0CD
:1031DA00D4EC95F0C6EC98F099EC98F01200F1C195
:1031EA0062FF7F9C7F9E7F8000F000F0615012009A
:1031FA00266E26C0C9FFC7A0FED7C9CF25F0120088
:10320A00C968C7A0FED7C9CF25F09E9625501200DF
:10321A00F70E0101F36F320EE7EC97F01200F1C1DD
:10322A0088F0F2C189F0F3C18AF012000C0E4FEC5B
:10323A0098F01200010E4FEC98F01200D08EF19423
:04324A00120012005C
:020000040020DA
:08000000FFFFFFFFFFFFFFFF00
:020000040030CA
:0E00000015137F7C018991FFFFC0FFE0FF40D8
:00000001FF
